{
    "Opcodes_TransactionInit_d89g0v0_Byzantium" : {
        "_info" : {
            "comment" : "",
            "filledwith" : "testeth 1.5.0.dev2-52+commit.d419e0a2",
            "lllcversion" : "Version: 0.4.26-develop.2018.9.19+commit.785cbf40.Linux.g++",
            "source" : "src/BlockchainTestsFiller/GeneralStateTests/stTransactionTest/Opcodes_TransactionInit_d89g0v0Filler.json",
            "sourceHash" : "9e29d76fb6251ebac96b3b8c5fbb6325665711ea647fa7f115feccc819381a5c"
        },
        "blocks" : [
            {
                "blockHeader" : {
                    "bloom" : "0x00000000000000000000000000000000000000000000000000000000000000000000000000000000000000000000000000000000000000000000000000000000000000000000000000000000000000000000000000000000000000000000000000000000000000000000000000000000000000000000000000000000000000000000000000000000000000000000000000000000000000000000000000000000000000000000000000000000000000000000000000000000000000000000000000000000000000000000000000000000000000000000000000000000000000000000000000000000000000000000000000000000000000000000000000000000",
                    "coinbase" : "0x2adc25665018aa1fe0e6bc666dac8fc2697ff9ba",
                    "difficulty" : "0x020000",
                    "extraData" : "",
                    "gasLimit" : "0x0f4240",
                    "gasUsed" : "0xd626",
                    "hash" : "0x2fa525e2416865065f6a62836c23dcf56583c770f052750802edffeddf9d00e6",
                    "mixHash" : "0x0000000000000000000000000000000000000000000000000000000000000000",
                    "nonce" : "0x0000000000000000",
                    "number" : "0x01",
                    "parentHash" : "0xa9b003c176d2037cf7095f0b73892729cba523a7b887ad67d3c517ed26b9e31b",
                    "receiptTrie" : "0x0323fb445379fbd8312026ec103b3adb5a80841e784cdf144a31c1b23ce67f14",
                    "stateRoot" : "0x19d4a7fae6f579e11bfde44b27a65f77e539911650650b5ea5c033dfa63cb0b8",
                    "timestamp" : "0x03e8",
                    "transactionsTrie" : "0xb3eea207cf3b093e01c8ec004943533e89abed25339c4a5a4f08cf6541e65d5c",
                    "uncleHash" : "0x1dcc4de8dec75d7aab85b567b6ccd41ad312451b948a7413f0a142fd40d49347"
                },
                "rlp" : "0xf9026af901f7a0a9b003c176d2037cf7095f0b73892729cba523a7b887ad67d3c517ed26b9e31ba01dcc4de8dec75d7aab85b567b6ccd41ad312451b948a7413f0a142fd40d49347942adc25665018aa1fe0e6bc666dac8fc2697ff9baa019d4a7fae6f579e11bfde44b27a65f77e539911650650b5ea5c033dfa63cb0b8a0b3eea207cf3b093e01c8ec004943533e89abed25339c4a5a4f08cf6541e65d5ca00323fb445379fbd8312026ec103b3adb5a80841e784cdf144a31c1b23ce67f14b90100000000000000000000000000000000000000000000000000000000000000000000000000000000000000000000000000000000000000000000000000000000000000000000000000000000000000000000000000000000000000000000000000000000000000000000000000000000000000000000000000000000000000000000000000000000000000000000000000000000000000000000000000000000000000000000000000000000000000000000000000000000000000000000000000000000000000000000000000000000000000000000000000000000000000000000000000000000000000000000000000000000000000000000000000000000008302000001830f424082d6268203e880a00000000000000000000000000000000000000000000000000000000000000000880000000000000000f86df86b800183061a8080830186a09c60ff60ff60ff60ff60ff60ff60ff86505050505050505060006000f31ba07f1b1b8015d2eeb548e4ca3ec2c46643d01debf3db94b4b3cb0cc56d3d4508e1a04ca126dd12f64bcf1bb5a1ee8d23c3f2b8ad693fd601f93f7d79cbb2a93a3fcdc0",
                "transactions" : [
                    {
                        "data" : "0x60ff60ff60ff60ff60ff60ff60ff86505050505050505060006000f3",
                        "gasLimit" : "0x061a80",
                        "gasPrice" : "0x01",
                        "nonce" : "0x00",
                        "r" : "0x7f1b1b8015d2eeb548e4ca3ec2c46643d01debf3db94b4b3cb0cc56d3d4508e1",
                        "s" : "0x4ca126dd12f64bcf1bb5a1ee8d23c3f2b8ad693fd601f93f7d79cbb2a93a3fcd",
                        "to" : "",
                        "v" : "0x1b",
                        "value" : "0x0186a0"
                    }
                ],
                "uncleHeaders" : [
                ]
            }
        ],
        "genesisBlockHeader" : {
            "bloom" : "0x00000000000000000000000000000000000000000000000000000000000000000000000000000000000000000000000000000000000000000000000000000000000000000000000000000000000000000000000000000000000000000000000000000000000000000000000000000000000000000000000000000000000000000000000000000000000000000000000000000000000000000000000000000000000000000000000000000000000000000000000000000000000000000000000000000000000000000000000000000000000000000000000000000000000000000000000000000000000000000000000000000000000000000000000000000000",
            "coinbase" : "0x2adc25665018aa1fe0e6bc666dac8fc2697ff9ba",
            "difficulty" : "0x020000",
            "extraData" : "0x42",
            "gasLimit" : "0x0f4240",
            "gasUsed" : "0x00",
            "hash" : "0xa9b003c176d2037cf7095f0b73892729cba523a7b887ad67d3c517ed26b9e31b",
            "mixHash" : "0x56e81f171bcc55a6ff8345e692c0f86e5b48e01b996cadc001622fb5e363b421",
            "nonce" : "0x0102030405060708",
            "number" : "0x00",
            "parentHash" : "0x0000000000000000000000000000000000000000000000000000000000000000",
            "receiptTrie" : "0x56e81f171bcc55a6ff8345e692c0f86e5b48e01b996cadc001622fb5e363b421",
            "stateRoot" : "0xe77f3052601feb5eee19025a8b8caa2b6c4374448dc40d5ef15cec0b8e129ac7",
            "timestamp" : "0x03b6",
            "transactionsTrie" : "0x56e81f171bcc55a6ff8345e692c0f86e5b48e01b996cadc001622fb5e363b421",
            "uncleHash" : "0x1dcc4de8dec75d7aab85b567b6ccd41ad312451b948a7413f0a142fd40d49347"
        },
        "genesisRLP" : "0xf901faf901f5a00000000000000000000000000000000000000000000000000000000000000000a01dcc4de8dec75d7aab85b567b6ccd41ad312451b948a7413f0a142fd40d49347942adc25665018aa1fe0e6bc666dac8fc2697ff9baa0e77f3052601feb5eee19025a8b8caa2b6c4374448dc40d5ef15cec0b8e129ac7a056e81f171bcc55a6ff8345e692c0f86e5b48e01b996cadc001622fb5e363b421a056e81f171bcc55a6ff8345e692c0f86e5b48e01b996cadc001622fb5e363b421b90100000000000000000000000000000000000000000000000000000000000000000000000000000000000000000000000000000000000000000000000000000000000000000000000000000000000000000000000000000000000000000000000000000000000000000000000000000000000000000000000000000000000000000000000000000000000000000000000000000000000000000000000000000000000000000000000000000000000000000000000000000000000000000000000000000000000000000000000000000000000000000000000000000000000000000000000000000000000000000000000000000000000000000000000000000000008302000080830f4240808203b642a056e81f171bcc55a6ff8345e692c0f86e5b48e01b996cadc001622fb5e363b421880102030405060708c0c0",
        "lastblockhash" : "0x2fa525e2416865065f6a62836c23dcf56583c770f052750802edffeddf9d00e6",
        "network" : "Byzantium",
        "postState" : {
            "0x0f572e5295c57f15886f9b263e2f6d2d6c7b5ec6" : {
                "balance" : "0x0de0b6b3a7640000",
                "code" : "0x61ffff5060046000f3",
                "nonce" : "0x01",
                "storage" : {
                }
            },
            "0x2adc25665018aa1fe0e6bc666dac8fc2697ff9ba" : {
                "balance" : "0x29a2241af62cd626",
                "code" : "",
                "nonce" : "0x00",
                "storage" : {
                }
            },
            "0x6295ee1b4f6dd65047762f924ecd367c17eabf8f" : {
                "balance" : "0x0186a0",
                "code" : "",
                "nonce" : "0x01",
                "storage" : {
                }
            },
            "0xa94f5374fce5edbc8e2a8697c15331677e6ebf0b" : {
                "balance" : "0x0de0b6b3a761a33a",
                "code" : "",
                "nonce" : "0x01",
                "storage" : {
                }
            }
        },
        "pre" : {
            "0x0f572e5295c57f15886f9b263e2f6d2d6c7b5ec6" : {
                "balance" : "0x0de0b6b3a7640000",
                "code" : "0x61ffff5060046000f3",
                "nonce" : "0x01",
                "storage" : {
                }
            },
            "0xa94f5374fce5edbc8e2a8697c15331677e6ebf0b" : {
                "balance" : "0x0de0b6b3a7640000",
                "code" : "",
                "nonce" : "0x00",
                "storage" : {
                }
            }
        },
        "sealEngine" : "NoProof"
    },
    "Opcodes_TransactionInit_d89g0v0_Constantinople" : {
        "_info" : {
            "comment" : "",
            "filledwith" : "testeth 1.5.0.dev2-52+commit.d419e0a2",
            "lllcversion" : "Version: 0.4.26-develop.2018.9.19+commit.785cbf40.Linux.g++",
            "source" : "src/BlockchainTestsFiller/GeneralStateTests/stTransactionTest/Opcodes_TransactionInit_d89g0v0Filler.json",
            "sourceHash" : "9e29d76fb6251ebac96b3b8c5fbb6325665711ea647fa7f115feccc819381a5c"
        },
        "blocks" : [
            {
                "blockHeader" : {
                    "bloom" : "0x00000000000000000000000000000000000000000000000000000000000000000000000000000000000000000000000000000000000000000000000000000000000000000000000000000000000000000000000000000000000000000000000000000000000000000000000000000000000000000000000000000000000000000000000000000000000000000000000000000000000000000000000000000000000000000000000000000000000000000000000000000000000000000000000000000000000000000000000000000000000000000000000000000000000000000000000000000000000000000000000000000000000000000000000000000000",
                    "coinbase" : "0x2adc25665018aa1fe0e6bc666dac8fc2697ff9ba",
                    "difficulty" : "0x020000",
                    "extraData" : "",
                    "gasLimit" : "0x0f4240",
                    "gasUsed" : "0xd626",
                    "hash" : "0x2cea42334c0a617e352b53f774b3296dcc9c9a98a09c2ba5d9b4837894c61126",
                    "mixHash" : "0x0000000000000000000000000000000000000000000000000000000000000000",
                    "nonce" : "0x0000000000000000",
                    "number" : "0x01",
                    "parentHash" : "0xa9b003c176d2037cf7095f0b73892729cba523a7b887ad67d3c517ed26b9e31b",
                    "receiptTrie" : "0x0323fb445379fbd8312026ec103b3adb5a80841e784cdf144a31c1b23ce67f14",
                    "stateRoot" : "0x72436ecb049981ea2a3d07e84ca305f53490ace967de8e5de65643bd6a4bd943",
                    "timestamp" : "0x03e8",
                    "transactionsTrie" : "0xb3eea207cf3b093e01c8ec004943533e89abed25339c4a5a4f08cf6541e65d5c",
                    "uncleHash" : "0x1dcc4de8dec75d7aab85b567b6ccd41ad312451b948a7413f0a142fd40d49347"
                },
                "rlp" : "0xf9026af901f7a0a9b003c176d2037cf7095f0b73892729cba523a7b887ad67d3c517ed26b9e31ba01dcc4de8dec75d7aab85b567b6ccd41ad312451b948a7413f0a142fd40d49347942adc25665018aa1fe0e6bc666dac8fc2697ff9baa072436ecb049981ea2a3d07e84ca305f53490ace967de8e5de65643bd6a4bd943a0b3eea207cf3b093e01c8ec004943533e89abed25339c4a5a4f08cf6541e65d5ca00323fb445379fbd8312026ec103b3adb5a80841e784cdf144a31c1b23ce67f14b90100000000000000000000000000000000000000000000000000000000000000000000000000000000000000000000000000000000000000000000000000000000000000000000000000000000000000000000000000000000000000000000000000000000000000000000000000000000000000000000000000000000000000000000000000000000000000000000000000000000000000000000000000000000000000000000000000000000000000000000000000000000000000000000000000000000000000000000000000000000000000000000000000000000000000000000000000000000000000000000000000000000000000000000000000000000008302000001830f424082d6268203e880a00000000000000000000000000000000000000000000000000000000000000000880000000000000000f86df86b800183061a8080830186a09c60ff60ff60ff60ff60ff60ff60ff86505050505050505060006000f31ba07f1b1b8015d2eeb548e4ca3ec2c46643d01debf3db94b4b3cb0cc56d3d4508e1a04ca126dd12f64bcf1bb5a1ee8d23c3f2b8ad693fd601f93f7d79cbb2a93a3fcdc0",
                "transactions" : [
                    {
                        "data" : "0x60ff60ff60ff60ff60ff60ff60ff86505050505050505060006000f3",
                        "gasLimit" : "0x061a80",
                        "gasPrice" : "0x01",
                        "nonce" : "0x00",
                        "r" : "0x7f1b1b8015d2eeb548e4ca3ec2c46643d01debf3db94b4b3cb0cc56d3d4508e1",
                        "s" : "0x4ca126dd12f64bcf1bb5a1ee8d23c3f2b8ad693fd601f93f7d79cbb2a93a3fcd",
                        "to" : "",
                        "v" : "0x1b",
                        "value" : "0x0186a0"
                    }
                ],
                "uncleHeaders" : [
                ]
            }
        ],
        "genesisBlockHeader" : {
            "bloom" : "0x00000000000000000000000000000000000000000000000000000000000000000000000000000000000000000000000000000000000000000000000000000000000000000000000000000000000000000000000000000000000000000000000000000000000000000000000000000000000000000000000000000000000000000000000000000000000000000000000000000000000000000000000000000000000000000000000000000000000000000000000000000000000000000000000000000000000000000000000000000000000000000000000000000000000000000000000000000000000000000000000000000000000000000000000000000000",
            "coinbase" : "0x2adc25665018aa1fe0e6bc666dac8fc2697ff9ba",
            "difficulty" : "0x020000",
            "extraData" : "0x42",
            "gasLimit" : "0x0f4240",
            "gasUsed" : "0x00",
            "hash" : "0xa9b003c176d2037cf7095f0b73892729cba523a7b887ad67d3c517ed26b9e31b",
            "mixHash" : "0x56e81f171bcc55a6ff8345e692c0f86e5b48e01b996cadc001622fb5e363b421",
            "nonce" : "0x0102030405060708",
            "number" : "0x00",
            "parentHash" : "0x0000000000000000000000000000000000000000000000000000000000000000",
            "receiptTrie" : "0x56e81f171bcc55a6ff8345e692c0f86e5b48e01b996cadc001622fb5e363b421",
            "stateRoot" : "0xe77f3052601feb5eee19025a8b8caa2b6c4374448dc40d5ef15cec0b8e129ac7",
            "timestamp" : "0x03b6",
            "transactionsTrie" : "0x56e81f171bcc55a6ff8345e692c0f86e5b48e01b996cadc001622fb5e363b421",
            "uncleHash" : "0x1dcc4de8dec75d7aab85b567b6ccd41ad312451b948a7413f0a142fd40d49347"
        },
        "genesisRLP" : "0xf901faf901f5a00000000000000000000000000000000000000000000000000000000000000000a01dcc4de8dec75d7aab85b567b6ccd41ad312451b948a7413f0a142fd40d49347942adc25665018aa1fe0e6bc666dac8fc2697ff9baa0e77f3052601feb5eee19025a8b8caa2b6c4374448dc40d5ef15cec0b8e129ac7a056e81f171bcc55a6ff8345e692c0f86e5b48e01b996cadc001622fb5e363b421a056e81f171bcc55a6ff8345e692c0f86e5b48e01b996cadc001622fb5e363b421b90100000000000000000000000000000000000000000000000000000000000000000000000000000000000000000000000000000000000000000000000000000000000000000000000000000000000000000000000000000000000000000000000000000000000000000000000000000000000000000000000000000000000000000000000000000000000000000000000000000000000000000000000000000000000000000000000000000000000000000000000000000000000000000000000000000000000000000000000000000000000000000000000000000000000000000000000000000000000000000000000000000000000000000000000000000000008302000080830f4240808203b642a056e81f171bcc55a6ff8345e692c0f86e5b48e01b996cadc001622fb5e363b421880102030405060708c0c0",
        "lastblockhash" : "0x2cea42334c0a617e352b53f774b3296dcc9c9a98a09c2ba5d9b4837894c61126",
        "network" : "Constantinople",
        "postState" : {
            "0x0f572e5295c57f15886f9b263e2f6d2d6c7b5ec6" : {
                "balance" : "0x0de0b6b3a7640000",
                "code" : "0x61ffff5060046000f3",
                "nonce" : "0x01",
                "storage" : {
                }
            },
            "0x2adc25665018aa1fe0e6bc666dac8fc2697ff9ba" : {
                "balance" : "0x1bc16d674ec8d626",
                "code" : "",
                "nonce" : "0x00",
                "storage" : {
                }
            },
            "0x6295ee1b4f6dd65047762f924ecd367c17eabf8f" : {
                "balance" : "0x0186a0",
                "code" : "",
                "nonce" : "0x01",
                "storage" : {
                }
            },
            "0xa94f5374fce5edbc8e2a8697c15331677e6ebf0b" : {
                "balance" : "0x0de0b6b3a761a33a",
                "code" : "",
                "nonce" : "0x01",
                "storage" : {
                }
            }
        },
        "pre" : {
            "0x0f572e5295c57f15886f9b263e2f6d2d6c7b5ec6" : {
                "balance" : "0x0de0b6b3a7640000",
                "code" : "0x61ffff5060046000f3",
                "nonce" : "0x01",
                "storage" : {
                }
            },
            "0xa94f5374fce5edbc8e2a8697c15331677e6ebf0b" : {
                "balance" : "0x0de0b6b3a7640000",
                "code" : "",
                "nonce" : "0x00",
                "storage" : {
                }
            }
        },
        "sealEngine" : "NoProof"
    }
}