{
    "Opcodes_TransactionInit_d80g0v0_Byzantium" : {
        "_info" : {
            "comment" : "",
            "filledwith" : "testeth 1.5.0.dev2-52+commit.d419e0a2",
            "lllcversion" : "Version: 0.4.26-develop.2018.9.19+commit.785cbf40.Linux.g++",
            "source" : "src/BlockchainTestsFiller/GeneralStateTests/stTransactionTest/Opcodes_TransactionInit_d80g0v0Filler.json",
            "sourceHash" : "cebfc7ef5e1ffb76fbdb1cc5195a7b84a05058edb6a98a5929391f755318e5b0"
        },
        "blocks" : [
            {
                "blockHeader" : {
                    "bloom" : "0x00000000000000000000000000000000000000000000000000000000000000000000000000000000000000000000000000000000000000000000000000000000000000000000000000000000000000000000000000000000000000000000000000000000000000000000000000000000000000000000000000000000000000000000000000000000000000000000000000000000000000000000000000000000000000000000000000000000000000000000000000000000000000000000000000000000000000000000000000000000000000000000000000000000000000000000000000000000000000000000000000000000000000000000000000000000",
                    "coinbase" : "0x2adc25665018aa1fe0e6bc666dac8fc2697ff9ba",
                    "difficulty" : "0x020000",
                    "extraData" : "",
                    "gasLimit" : "0x0f4240",
                    "gasUsed" : "0xd867",
                    "hash" : "0x69181bfb3c036c052f0b8df8492260dea3e2a40d59461ebbbd97a2ff6c78d91b",
                    "mixHash" : "0x0000000000000000000000000000000000000000000000000000000000000000",
                    "nonce" : "0x0000000000000000",
                    "number" : "0x01",
                    "parentHash" : "0xa9b003c176d2037cf7095f0b73892729cba523a7b887ad67d3c517ed26b9e31b",
                    "receiptTrie" : "0x349199150d95f3e5a4354247b4de51c38a7d9d1a9d545ba809b5d5d0e70f2847",
                    "stateRoot" : "0xbfe77e6812a6e5a034a8a4e9e21f75787d8b605828cd9edc727c30c217e00936",
                    "timestamp" : "0x03e8",
                    "transactionsTrie" : "0x5ea5fb709b0ad9c4b37eb7c9034ea33686bb56d1c934616903fd012082b4caf5",
                    "uncleHash" : "0x1dcc4de8dec75d7aab85b567b6ccd41ad312451b948a7413f0a142fd40d49347"
                },
                "rlp" : "0xf90273f901f7a0a9b003c176d2037cf7095f0b73892729cba523a7b887ad67d3c517ed26b9e31ba01dcc4de8dec75d7aab85b567b6ccd41ad312451b948a7413f0a142fd40d49347942adc25665018aa1fe0e6bc666dac8fc2697ff9baa0bfe77e6812a6e5a034a8a4e9e21f75787d8b605828cd9edc727c30c217e00936a05ea5fb709b0ad9c4b37eb7c9034ea33686bb56d1c934616903fd012082b4caf5a0349199150d95f3e5a4354247b4de51c38a7d9d1a9d545ba809b5d5d0e70f2847b90100000000000000000000000000000000000000000000000000000000000000000000000000000000000000000000000000000000000000000000000000000000000000000000000000000000000000000000000000000000000000000000000000000000000000000000000000000000000000000000000000000000000000000000000000000000000000000000000000000000000000000000000000000000000000000000000000000000000000000000000000000000000000000000000000000000000000000000000000000000000000000000000000000000000000000000000000000000000000000000000000000000000000000000000000000000008302000001830f424082d8678203e880a00000000000000000000000000000000000000000000000000000000000000000880000000000000000f876f874800183061a8080830186a0a57dffffffffffffffffffffffffffffffffffffffffffffffffffffffffffff5060006000f31ba069839c372d9dfb51a97ad621768ad9acd22d79d8ae711b5ad4bc95e438e5e2b1a01ebfcd5474c9f1757bf5ee53481edc93ec90fbda20b2fdc06fb5530cb5802e94c0",
                "transactions" : [
                    {
                        "data" : "0x7dffffffffffffffffffffffffffffffffffffffffffffffffffffffffffff5060006000f3",
                        "gasLimit" : "0x061a80",
                        "gasPrice" : "0x01",
                        "nonce" : "0x00",
                        "r" : "0x69839c372d9dfb51a97ad621768ad9acd22d79d8ae711b5ad4bc95e438e5e2b1",
                        "s" : "0x1ebfcd5474c9f1757bf5ee53481edc93ec90fbda20b2fdc06fb5530cb5802e94",
                        "to" : "",
                        "v" : "0x1b",
                        "value" : "0x0186a0"
                    }
                ],
                "uncleHeaders" : [
                ]
            }
        ],
        "genesisBlockHeader" : {
            "bloom" : "0x00000000000000000000000000000000000000000000000000000000000000000000000000000000000000000000000000000000000000000000000000000000000000000000000000000000000000000000000000000000000000000000000000000000000000000000000000000000000000000000000000000000000000000000000000000000000000000000000000000000000000000000000000000000000000000000000000000000000000000000000000000000000000000000000000000000000000000000000000000000000000000000000000000000000000000000000000000000000000000000000000000000000000000000000000000000",
            "coinbase" : "0x2adc25665018aa1fe0e6bc666dac8fc2697ff9ba",
            "difficulty" : "0x020000",
            "extraData" : "0x42",
            "gasLimit" : "0x0f4240",
            "gasUsed" : "0x00",
            "hash" : "0xa9b003c176d2037cf7095f0b73892729cba523a7b887ad67d3c517ed26b9e31b",
            "mixHash" : "0x56e81f171bcc55a6ff8345e692c0f86e5b48e01b996cadc001622fb5e363b421",
            "nonce" : "0x0102030405060708",
            "number" : "0x00",
            "parentHash" : "0x0000000000000000000000000000000000000000000000000000000000000000",
            "receiptTrie" : "0x56e81f171bcc55a6ff8345e692c0f86e5b48e01b996cadc001622fb5e363b421",
            "stateRoot" : "0xe77f3052601feb5eee19025a8b8caa2b6c4374448dc40d5ef15cec0b8e129ac7",
            "timestamp" : "0x03b6",
            "transactionsTrie" : "0x56e81f171bcc55a6ff8345e692c0f86e5b48e01b996cadc001622fb5e363b421",
            "uncleHash" : "0x1dcc4de8dec75d7aab85b567b6ccd41ad312451b948a7413f0a142fd40d49347"
        },
        "genesisRLP" : "0xf901faf901f5a00000000000000000000000000000000000000000000000000000000000000000a01dcc4de8dec75d7aab85b567b6ccd41ad312451b948a7413f0a142fd40d49347942adc25665018aa1fe0e6bc666dac8fc2697ff9baa0e77f3052601feb5eee19025a8b8caa2b6c4374448dc40d5ef15cec0b8e129ac7a056e81f171bcc55a6ff8345e692c0f86e5b48e01b996cadc001622fb5e363b421a056e81f171bcc55a6ff8345e692c0f86e5b48e01b996cadc001622fb5e363b421b90100000000000000000000000000000000000000000000000000000000000000000000000000000000000000000000000000000000000000000000000000000000000000000000000000000000000000000000000000000000000000000000000000000000000000000000000000000000000000000000000000000000000000000000000000000000000000000000000000000000000000000000000000000000000000000000000000000000000000000000000000000000000000000000000000000000000000000000000000000000000000000000000000000000000000000000000000000000000000000000000000000000000000000000000000000000008302000080830f4240808203b642a056e81f171bcc55a6ff8345e692c0f86e5b48e01b996cadc001622fb5e363b421880102030405060708c0c0",
        "lastblockhash" : "0x69181bfb3c036c052f0b8df8492260dea3e2a40d59461ebbbd97a2ff6c78d91b",
        "network" : "Byzantium",
        "postState" : {
            "0x0f572e5295c57f15886f9b263e2f6d2d6c7b5ec6" : {
                "balance" : "0x0de0b6b3a7640000",
                "code" : "0x61ffff5060046000f3",
                "nonce" : "0x01",
                "storage" : {
                }
            },
            "0x2adc25665018aa1fe0e6bc666dac8fc2697ff9ba" : {
                "balance" : "0x29a2241af62cd867",
                "code" : "",
                "nonce" : "0x00",
                "storage" : {
                }
            },
            "0x6295ee1b4f6dd65047762f924ecd367c17eabf8f" : {
                "balance" : "0x0186a0",
                "code" : "",
                "nonce" : "0x01",
                "storage" : {
                }
            },
            "0xa94f5374fce5edbc8e2a8697c15331677e6ebf0b" : {
                "balance" : "0x0de0b6b3a761a0f9",
                "code" : "",
                "nonce" : "0x01",
                "storage" : {
                }
            }
        },
        "pre" : {
            "0x0f572e5295c57f15886f9b263e2f6d2d6c7b5ec6" : {
                "balance" : "0x0de0b6b3a7640000",
                "code" : "0x61ffff5060046000f3",
                "nonce" : "0x01",
                "storage" : {
                }
            },
            "0xa94f5374fce5edbc8e2a8697c15331677e6ebf0b" : {
                "balance" : "0x0de0b6b3a7640000",
                "code" : "",
                "nonce" : "0x00",
                "storage" : {
                }
            }
        },
        "sealEngine" : "NoProof"
    },
    "Opcodes_TransactionInit_d80g0v0_Constantinople" : {
        "_info" : {
            "comment" : "",
            "filledwith" : "testeth 1.5.0.dev2-52+commit.d419e0a2",
            "lllcversion" : "Version: 0.4.26-develop.2018.9.19+commit.785cbf40.Linux.g++",
            "source" : "src/BlockchainTestsFiller/GeneralStateTests/stTransactionTest/Opcodes_TransactionInit_d80g0v0Filler.json",
            "sourceHash" : "cebfc7ef5e1ffb76fbdb1cc5195a7b84a05058edb6a98a5929391f755318e5b0"
        },
        "blocks" : [
            {
                "blockHeader" : {
                    "bloom" : "0x00000000000000000000000000000000000000000000000000000000000000000000000000000000000000000000000000000000000000000000000000000000000000000000000000000000000000000000000000000000000000000000000000000000000000000000000000000000000000000000000000000000000000000000000000000000000000000000000000000000000000000000000000000000000000000000000000000000000000000000000000000000000000000000000000000000000000000000000000000000000000000000000000000000000000000000000000000000000000000000000000000000000000000000000000000000",
                    "coinbase" : "0x2adc25665018aa1fe0e6bc666dac8fc2697ff9ba",
                    "difficulty" : "0x020000",
                    "extraData" : "",
                    "gasLimit" : "0x0f4240",
                    "gasUsed" : "0xd867",
                    "hash" : "0x1f380192c8f37ca69a14b14469a64a869654ed97886728c7be983a94415884ad",
                    "mixHash" : "0x0000000000000000000000000000000000000000000000000000000000000000",
                    "nonce" : "0x0000000000000000",
                    "number" : "0x01",
                    "parentHash" : "0xa9b003c176d2037cf7095f0b73892729cba523a7b887ad67d3c517ed26b9e31b",
                    "receiptTrie" : "0x349199150d95f3e5a4354247b4de51c38a7d9d1a9d545ba809b5d5d0e70f2847",
                    "stateRoot" : "0x0da52ab3244c96ac62d95ee84ab63535fbdb587b1a5c46f3ab89ca06640d57d8",
                    "timestamp" : "0x03e8",
                    "transactionsTrie" : "0x5ea5fb709b0ad9c4b37eb7c9034ea33686bb56d1c934616903fd012082b4caf5",
                    "uncleHash" : "0x1dcc4de8dec75d7aab85b567b6ccd41ad312451b948a7413f0a142fd40d49347"
                },
                "rlp" : "0xf90273f901f7a0a9b003c176d2037cf7095f0b73892729cba523a7b887ad67d3c517ed26b9e31ba01dcc4de8dec75d7aab85b567b6ccd41ad312451b948a7413f0a142fd40d49347942adc25665018aa1fe0e6bc666dac8fc2697ff9baa00da52ab3244c96ac62d95ee84ab63535fbdb587b1a5c46f3ab89ca06640d57d8a05ea5fb709b0ad9c4b37eb7c9034ea33686bb56d1c934616903fd012082b4caf5a0349199150d95f3e5a4354247b4de51c38a7d9d1a9d545ba809b5d5d0e70f2847b90100000000000000000000000000000000000000000000000000000000000000000000000000000000000000000000000000000000000000000000000000000000000000000000000000000000000000000000000000000000000000000000000000000000000000000000000000000000000000000000000000000000000000000000000000000000000000000000000000000000000000000000000000000000000000000000000000000000000000000000000000000000000000000000000000000000000000000000000000000000000000000000000000000000000000000000000000000000000000000000000000000000000000000000000000000000008302000001830f424082d8678203e880a00000000000000000000000000000000000000000000000000000000000000000880000000000000000f876f874800183061a8080830186a0a57dffffffffffffffffffffffffffffffffffffffffffffffffffffffffffff5060006000f31ba069839c372d9dfb51a97ad621768ad9acd22d79d8ae711b5ad4bc95e438e5e2b1a01ebfcd5474c9f1757bf5ee53481edc93ec90fbda20b2fdc06fb5530cb5802e94c0",
                "transactions" : [
                    {
                        "data" : "0x7dffffffffffffffffffffffffffffffffffffffffffffffffffffffffffff5060006000f3",
                        "gasLimit" : "0x061a80",
                        "gasPrice" : "0x01",
                        "nonce" : "0x00",
                        "r" : "0x69839c372d9dfb51a97ad621768ad9acd22d79d8ae711b5ad4bc95e438e5e2b1",
                        "s" : "0x1ebfcd5474c9f1757bf5ee53481edc93ec90fbda20b2fdc06fb5530cb5802e94",
                        "to" : "",
                        "v" : "0x1b",
                        "value" : "0x0186a0"
                    }
                ],
                "uncleHeaders" : [
                ]
            }
        ],
        "genesisBlockHeader" : {
            "bloom" : "0x00000000000000000000000000000000000000000000000000000000000000000000000000000000000000000000000000000000000000000000000000000000000000000000000000000000000000000000000000000000000000000000000000000000000000000000000000000000000000000000000000000000000000000000000000000000000000000000000000000000000000000000000000000000000000000000000000000000000000000000000000000000000000000000000000000000000000000000000000000000000000000000000000000000000000000000000000000000000000000000000000000000000000000000000000000000",
            "coinbase" : "0x2adc25665018aa1fe0e6bc666dac8fc2697ff9ba",
            "difficulty" : "0x020000",
            "extraData" : "0x42",
            "gasLimit" : "0x0f4240",
            "gasUsed" : "0x00",
            "hash" : "0xa9b003c176d2037cf7095f0b73892729cba523a7b887ad67d3c517ed26b9e31b",
            "mixHash" : "0x56e81f171bcc55a6ff8345e692c0f86e5b48e01b996cadc001622fb5e363b421",
            "nonce" : "0x0102030405060708",
            "number" : "0x00",
            "parentHash" : "0x0000000000000000000000000000000000000000000000000000000000000000",
            "receiptTrie" : "0x56e81f171bcc55a6ff8345e692c0f86e5b48e01b996cadc001622fb5e363b421",
            "stateRoot" : "0xe77f3052601feb5eee19025a8b8caa2b6c4374448dc40d5ef15cec0b8e129ac7",
            "timestamp" : "0x03b6",
            "transactionsTrie" : "0x56e81f171bcc55a6ff8345e692c0f86e5b48e01b996cadc001622fb5e363b421",
            "uncleHash" : "0x1dcc4de8dec75d7aab85b567b6ccd41ad312451b948a7413f0a142fd40d49347"
        },
        "genesisRLP" : "0xf901faf901f5a00000000000000000000000000000000000000000000000000000000000000000a01dcc4de8dec75d7aab85b567b6ccd41ad312451b948a7413f0a142fd40d49347942adc25665018aa1fe0e6bc666dac8fc2697ff9baa0e77f3052601feb5eee19025a8b8caa2b6c4374448dc40d5ef15cec0b8e129ac7a056e81f171bcc55a6ff8345e692c0f86e5b48e01b996cadc001622fb5e363b421a056e81f171bcc55a6ff8345e692c0f86e5b48e01b996cadc001622fb5e363b421b90100000000000000000000000000000000000000000000000000000000000000000000000000000000000000000000000000000000000000000000000000000000000000000000000000000000000000000000000000000000000000000000000000000000000000000000000000000000000000000000000000000000000000000000000000000000000000000000000000000000000000000000000000000000000000000000000000000000000000000000000000000000000000000000000000000000000000000000000000000000000000000000000000000000000000000000000000000000000000000000000000000000000000000000000000000000008302000080830f4240808203b642a056e81f171bcc55a6ff8345e692c0f86e5b48e01b996cadc001622fb5e363b421880102030405060708c0c0",
        "lastblockhash" : "0x1f380192c8f37ca69a14b14469a64a869654ed97886728c7be983a94415884ad",
        "network" : "Constantinople",
        "postState" : {
            "0x0f572e5295c57f15886f9b263e2f6d2d6c7b5ec6" : {
                "balance" : "0x0de0b6b3a7640000",
                "code" : "0x61ffff5060046000f3",
                "nonce" : "0x01",
                "storage" : {
                }
            },
            "0x2adc25665018aa1fe0e6bc666dac8fc2697ff9ba" : {
                "balance" : "0x1bc16d674ec8d867",
                "code" : "",
                "nonce" : "0x00",
                "storage" : {
                }
            },
            "0x6295ee1b4f6dd65047762f924ecd367c17eabf8f" : {
                "balance" : "0x0186a0",
                "code" : "",
                "nonce" : "0x01",
                "storage" : {
                }
            },
            "0xa94f5374fce5edbc8e2a8697c15331677e6ebf0b" : {
                "balance" : "0x0de0b6b3a761a0f9",
                "code" : "",
                "nonce" : "0x01",
                "storage" : {
                }
            }
        },
        "pre" : {
            "0x0f572e5295c57f15886f9b263e2f6d2d6c7b5ec6" : {
                "balance" : "0x0de0b6b3a7640000",
                "code" : "0x61ffff5060046000f3",
                "nonce" : "0x01",
                "storage" : {
                }
            },
            "0xa94f5374fce5edbc8e2a8697c15331677e6ebf0b" : {
                "balance" : "0x0de0b6b3a7640000",
                "code" : "",
                "nonce" : "0x00",
                "storage" : {
                }
            }
        },
        "sealEngine" : "NoProof"
    }
}