{
    "StoreClearsAndInternlCallStoreClearsOOG_d0g0v0_Byzantium" : {
        "_info" : {
            "comment" : "",
            "filledwith" : "testeth 1.5.0.dev2-52+commit.d419e0a2",
            "lllcversion" : "Version: 0.4.26-develop.2018.9.19+commit.785cbf40.Linux.g++",
            "source" : "src/BlockchainTestsFiller/GeneralStateTests/stTransactionTest/StoreClearsAndInternlCallStoreClearsOOG_d0g0v0Filler.json",
            "sourceHash" : "00b277530dd7e0142cdfbc4df2ed30dcca8dbb3bad9a044b6e486046c60d4058"
        },
        "blocks" : [
            {
                "blockHeader" : {
                    "bloom" : "0x00000000000000000000000000000000000000000000000000000000000000000000000000000000000000000000000000000000000000000000000000000000000000000000000000000000000000000000000000000000000000000000000000000000000000000000000000000000000000000000000000000000000000000000000000000000000000000000000000000000000000000000000000000000000000000000000000000000000000000000000000000000000000000000000000000000000000000000000000000000000000000000000000000000000000000000000000000000000000000000000000000000000000000000000000000000",
                    "coinbase" : "0xb94f5374fce5edbc8e2a8697c15331677e6ebf0b",
                    "difficulty" : "0x020000",
                    "extraData" : "",
                    "gasLimit" : "0x989680",
                    "gasUsed" : "0x8a2d",
                    "hash" : "0xa2152b8307dfaaec1a6847333cf386fe74d9932a888bd0ae6eacc96fb1d2fca3",
                    "mixHash" : "0x0000000000000000000000000000000000000000000000000000000000000000",
                    "nonce" : "0x0000000000000000",
                    "number" : "0x01",
                    "parentHash" : "0xeda0add42b04e6c7558de0c8d9ded56a526da0e2e33228439589f7b12b3c41ed",
                    "receiptTrie" : "0xcf4e41ad3a5547e6fe8fe2cf2fd1061083f71034d28f3587a956453231317a91",
                    "stateRoot" : "0x42d1b2f424d67059b9698e1f5e30939c9cc9a63a418aa9037c90646fb0d75a6b",
                    "timestamp" : "0x03e8",
                    "transactionsTrie" : "0x1e33dec8f8bcfa97b05c985988a668b694b06df138212e8680c788bad2ec0bae",
                    "uncleHash" : "0x1dcc4de8dec75d7aab85b567b6ccd41ad312451b948a7413f0a142fd40d49347"
                },
                "rlp" : "0xf9025ff901f7a0eda0add42b04e6c7558de0c8d9ded56a526da0e2e33228439589f7b12b3c41eda01dcc4de8dec75d7aab85b567b6ccd41ad312451b948a7413f0a142fd40d4934794b94f5374fce5edbc8e2a8697c15331677e6ebf0ba042d1b2f424d67059b9698e1f5e30939c9cc9a63a418aa9037c90646fb0d75a6ba01e33dec8f8bcfa97b05c985988a668b694b06df138212e8680c788bad2ec0baea0cf4e41ad3a5547e6fe8fe2cf2fd1061083f71034d28f3587a956453231317a91b9010000000000000000000000000000000000000000000000000000000000000000000000000000000000000000000000000000000000000000000000000000000000000000000000000000000000000000000000000000000000000000000000000000000000000000000000000000000000000000000000000000000000000000000000000000000000000000000000000000000000000000000000000000000000000000000000000000000000000000000000000000000000000000000000000000000000000000000000000000000000000000000000000000000000000000000000000000000000000000000000000000000000000000000000000000000000830200000183989680828a2d8203e880a00000000000000000000000000000000000000000000000000000000000000000880000000000000000f862f860800183030d4094c94f5374fce5edbc8e2a8697c15331677e6ebf0b0a801ba06f109e4c3936cdf76c69176a1c1143141a249e08b2724b636fd5191e4c3503c5a007c20efee46c20d804ba68f87d807e74b1a6ab5bd687902d3cdc071699f446c6c0",
                "transactions" : [
                    {
                        "data" : "0x",
                        "gasLimit" : "0x030d40",
                        "gasPrice" : "0x01",
                        "nonce" : "0x00",
                        "r" : "0x6f109e4c3936cdf76c69176a1c1143141a249e08b2724b636fd5191e4c3503c5",
                        "s" : "0x07c20efee46c20d804ba68f87d807e74b1a6ab5bd687902d3cdc071699f446c6",
                        "to" : "0xc94f5374fce5edbc8e2a8697c15331677e6ebf0b",
                        "v" : "0x1b",
                        "value" : "0x0a"
                    }
                ],
                "uncleHeaders" : [
                ]
            }
        ],
        "genesisBlockHeader" : {
            "bloom" : "0x00000000000000000000000000000000000000000000000000000000000000000000000000000000000000000000000000000000000000000000000000000000000000000000000000000000000000000000000000000000000000000000000000000000000000000000000000000000000000000000000000000000000000000000000000000000000000000000000000000000000000000000000000000000000000000000000000000000000000000000000000000000000000000000000000000000000000000000000000000000000000000000000000000000000000000000000000000000000000000000000000000000000000000000000000000000",
            "coinbase" : "0xb94f5374fce5edbc8e2a8697c15331677e6ebf0b",
            "difficulty" : "0x020000",
            "extraData" : "0x42",
            "gasLimit" : "0x989680",
            "gasUsed" : "0x00",
            "hash" : "0xeda0add42b04e6c7558de0c8d9ded56a526da0e2e33228439589f7b12b3c41ed",
            "mixHash" : "0x56e81f171bcc55a6ff8345e692c0f86e5b48e01b996cadc001622fb5e363b421",
            "nonce" : "0x0102030405060708",
            "number" : "0x00",
            "parentHash" : "0x0000000000000000000000000000000000000000000000000000000000000000",
            "receiptTrie" : "0x56e81f171bcc55a6ff8345e692c0f86e5b48e01b996cadc001622fb5e363b421",
            "stateRoot" : "0x9876da83c28da1fe5f94a135ad5881765090cf03dc03b44dbe9dbc3137a8b81a",
            "timestamp" : "0x03b6",
            "transactionsTrie" : "0x56e81f171bcc55a6ff8345e692c0f86e5b48e01b996cadc001622fb5e363b421",
            "uncleHash" : "0x1dcc4de8dec75d7aab85b567b6ccd41ad312451b948a7413f0a142fd40d49347"
        },
        "genesisRLP" : "0xf901faf901f5a00000000000000000000000000000000000000000000000000000000000000000a01dcc4de8dec75d7aab85b567b6ccd41ad312451b948a7413f0a142fd40d4934794b94f5374fce5edbc8e2a8697c15331677e6ebf0ba09876da83c28da1fe5f94a135ad5881765090cf03dc03b44dbe9dbc3137a8b81aa056e81f171bcc55a6ff8345e692c0f86e5b48e01b996cadc001622fb5e363b421a056e81f171bcc55a6ff8345e692c0f86e5b48e01b996cadc001622fb5e363b421b9010000000000000000000000000000000000000000000000000000000000000000000000000000000000000000000000000000000000000000000000000000000000000000000000000000000000000000000000000000000000000000000000000000000000000000000000000000000000000000000000000000000000000000000000000000000000000000000000000000000000000000000000000000000000000000000000000000000000000000000000000000000000000000000000000000000000000000000000000000000000000000000000000000000000000000000000000000000000000000000000000000000000000000000000000000000000830200008083989680808203b642a056e81f171bcc55a6ff8345e692c0f86e5b48e01b996cadc001622fb5e363b421880102030405060708c0c0",
        "lastblockhash" : "0xa2152b8307dfaaec1a6847333cf386fe74d9932a888bd0ae6eacc96fb1d2fca3",
        "network" : "Byzantium",
        "postState" : {
            "0x0000000000000000000000000000000000000000" : {
                "balance" : "0x00",
                "code" : "0x6000600055600060015560006002556000600355600060045560006005556000600655600060075560006008556000600955",
                "nonce" : "0x00",
                "storage" : {
                    "0x00" : "0x0c",
                    "0x01" : "0x0c",
                    "0x02" : "0x0c",
                    "0x03" : "0x0c",
                    "0x04" : "0x0c",
                    "0x05" : "0x0c",
                    "0x06" : "0x0c",
                    "0x07" : "0x0c",
                    "0x08" : "0x0c",
                    "0x09" : "0x0c"
                }
            },
            "0xa94f5374fce5edbc8e2a8697c15331677e6ebf0b" : {
                "balance" : "0x0716e9",
                "code" : "",
                "nonce" : "0x01",
                "storage" : {
                }
            },
            "0xb94f5374fce5edbc8e2a8697c15331677e6ebf0b" : {
                "balance" : "0x29a2241af62c8a2d",
                "code" : "",
                "nonce" : "0x00",
                "storage" : {
                }
            },
            "0xc94f5374fce5edbc8e2a8697c15331677e6ebf0b" : {
                "balance" : "0x14",
                "code" : "0x6000600055600060015560006002556000600355600060006000600060016000614e20f1",
                "nonce" : "0x00",
                "storage" : {
                    "0x04" : "0x0c"
                }
            }
        },
        "pre" : {
            "0x0000000000000000000000000000000000000000" : {
                "balance" : "0x00",
                "code" : "0x6000600055600060015560006002556000600355600060045560006005556000600655600060075560006008556000600955",
                "nonce" : "0x00",
                "storage" : {
                    "0x00" : "0x0c",
                    "0x01" : "0x0c",
                    "0x02" : "0x0c",
                    "0x03" : "0x0c",
                    "0x04" : "0x0c",
                    "0x05" : "0x0c",
                    "0x06" : "0x0c",
                    "0x07" : "0x0c",
                    "0x08" : "0x0c",
                    "0x09" : "0x0c"
                }
            },
            "0xa94f5374fce5edbc8e2a8697c15331677e6ebf0b" : {
                "balance" : "0x07a120",
                "code" : "",
                "nonce" : "0x00",
                "storage" : {
                }
            },
            "0xc94f5374fce5edbc8e2a8697c15331677e6ebf0b" : {
                "balance" : "0x0a",
                "code" : "0x6000600055600060015560006002556000600355600060006000600060016000614e20f1",
                "nonce" : "0x00",
                "storage" : {
                    "0x00" : "0x0c",
                    "0x01" : "0x0c",
                    "0x02" : "0x0c",
                    "0x03" : "0x0c",
                    "0x04" : "0x0c"
                }
            }
        },
        "sealEngine" : "NoProof"
    },
    "StoreClearsAndInternlCallStoreClearsOOG_d0g0v0_Constantinople" : {
        "_info" : {
            "comment" : "",
            "filledwith" : "testeth 1.5.0.dev2-52+commit.d419e0a2",
            "lllcversion" : "Version: 0.4.26-develop.2018.9.19+commit.785cbf40.Linux.g++",
            "source" : "src/BlockchainTestsFiller/GeneralStateTests/stTransactionTest/StoreClearsAndInternlCallStoreClearsOOG_d0g0v0Filler.json",
            "sourceHash" : "00b277530dd7e0142cdfbc4df2ed30dcca8dbb3bad9a044b6e486046c60d4058"
        },
        "blocks" : [
            {
                "blockHeader" : {
                    "bloom" : "0x00000000000000000000000000000000000000000000000000000000000000000000000000000000000000000000000000000000000000000000000000000000000000000000000000000000000000000000000000000000000000000000000000000000000000000000000000000000000000000000000000000000000000000000000000000000000000000000000000000000000000000000000000000000000000000000000000000000000000000000000000000000000000000000000000000000000000000000000000000000000000000000000000000000000000000000000000000000000000000000000000000000000000000000000000000000",
                    "coinbase" : "0xb94f5374fce5edbc8e2a8697c15331677e6ebf0b",
                    "difficulty" : "0x020000",
                    "extraData" : "",
                    "gasLimit" : "0x989680",
                    "gasUsed" : "0x8a2d",
                    "hash" : "0xd4db9a6a9032b97994c42fcaa4e83cf05d9b3fb628bbd79f7fa4191d4395849c",
                    "mixHash" : "0x0000000000000000000000000000000000000000000000000000000000000000",
                    "nonce" : "0x0000000000000000",
                    "number" : "0x01",
                    "parentHash" : "0xeda0add42b04e6c7558de0c8d9ded56a526da0e2e33228439589f7b12b3c41ed",
                    "receiptTrie" : "0xcf4e41ad3a5547e6fe8fe2cf2fd1061083f71034d28f3587a956453231317a91",
                    "stateRoot" : "0x344fc841915e43de80854316582ac684a6370cecfd33f190e5a47917a2a0156a",
                    "timestamp" : "0x03e8",
                    "transactionsTrie" : "0x1e33dec8f8bcfa97b05c985988a668b694b06df138212e8680c788bad2ec0bae",
                    "uncleHash" : "0x1dcc4de8dec75d7aab85b567b6ccd41ad312451b948a7413f0a142fd40d49347"
                },
                "rlp" : "0xf9025ff901f7a0eda0add42b04e6c7558de0c8d9ded56a526da0e2e33228439589f7b12b3c41eda01dcc4de8dec75d7aab85b567b6ccd41ad312451b948a7413f0a142fd40d4934794b94f5374fce5edbc8e2a8697c15331677e6ebf0ba0344fc841915e43de80854316582ac684a6370cecfd33f190e5a47917a2a0156aa01e33dec8f8bcfa97b05c985988a668b694b06df138212e8680c788bad2ec0baea0cf4e41ad3a5547e6fe8fe2cf2fd1061083f71034d28f3587a956453231317a91b9010000000000000000000000000000000000000000000000000000000000000000000000000000000000000000000000000000000000000000000000000000000000000000000000000000000000000000000000000000000000000000000000000000000000000000000000000000000000000000000000000000000000000000000000000000000000000000000000000000000000000000000000000000000000000000000000000000000000000000000000000000000000000000000000000000000000000000000000000000000000000000000000000000000000000000000000000000000000000000000000000000000000000000000000000000000000830200000183989680828a2d8203e880a00000000000000000000000000000000000000000000000000000000000000000880000000000000000f862f860800183030d4094c94f5374fce5edbc8e2a8697c15331677e6ebf0b0a801ba06f109e4c3936cdf76c69176a1c1143141a249e08b2724b636fd5191e4c3503c5a007c20efee46c20d804ba68f87d807e74b1a6ab5bd687902d3cdc071699f446c6c0",
                "transactions" : [
                    {
                        "data" : "0x",
                        "gasLimit" : "0x030d40",
                        "gasPrice" : "0x01",
                        "nonce" : "0x00",
                        "r" : "0x6f109e4c3936cdf76c69176a1c1143141a249e08b2724b636fd5191e4c3503c5",
                        "s" : "0x07c20efee46c20d804ba68f87d807e74b1a6ab5bd687902d3cdc071699f446c6",
                        "to" : "0xc94f5374fce5edbc8e2a8697c15331677e6ebf0b",
                        "v" : "0x1b",
                        "value" : "0x0a"
                    }
                ],
                "uncleHeaders" : [
                ]
            }
        ],
        "genesisBlockHeader" : {
            "bloom" : "0x00000000000000000000000000000000000000000000000000000000000000000000000000000000000000000000000000000000000000000000000000000000000000000000000000000000000000000000000000000000000000000000000000000000000000000000000000000000000000000000000000000000000000000000000000000000000000000000000000000000000000000000000000000000000000000000000000000000000000000000000000000000000000000000000000000000000000000000000000000000000000000000000000000000000000000000000000000000000000000000000000000000000000000000000000000000",
            "coinbase" : "0xb94f5374fce5edbc8e2a8697c15331677e6ebf0b",
            "difficulty" : "0x020000",
            "extraData" : "0x42",
            "gasLimit" : "0x989680",
            "gasUsed" : "0x00",
            "hash" : "0xeda0add42b04e6c7558de0c8d9ded56a526da0e2e33228439589f7b12b3c41ed",
            "mixHash" : "0x56e81f171bcc55a6ff8345e692c0f86e5b48e01b996cadc001622fb5e363b421",
            "nonce" : "0x0102030405060708",
            "number" : "0x00",
            "parentHash" : "0x0000000000000000000000000000000000000000000000000000000000000000",
            "receiptTrie" : "0x56e81f171bcc55a6ff8345e692c0f86e5b48e01b996cadc001622fb5e363b421",
            "stateRoot" : "0x9876da83c28da1fe5f94a135ad5881765090cf03dc03b44dbe9dbc3137a8b81a",
            "timestamp" : "0x03b6",
            "transactionsTrie" : "0x56e81f171bcc55a6ff8345e692c0f86e5b48e01b996cadc001622fb5e363b421",
            "uncleHash" : "0x1dcc4de8dec75d7aab85b567b6ccd41ad312451b948a7413f0a142fd40d49347"
        },
        "genesisRLP" : "0xf901faf901f5a00000000000000000000000000000000000000000000000000000000000000000a01dcc4de8dec75d7aab85b567b6ccd41ad312451b948a7413f0a142fd40d4934794b94f5374fce5edbc8e2a8697c15331677e6ebf0ba09876da83c28da1fe5f94a135ad5881765090cf03dc03b44dbe9dbc3137a8b81aa056e81f171bcc55a6ff8345e692c0f86e5b48e01b996cadc001622fb5e363b421a056e81f171bcc55a6ff8345e692c0f86e5b48e01b996cadc001622fb5e363b421b9010000000000000000000000000000000000000000000000000000000000000000000000000000000000000000000000000000000000000000000000000000000000000000000000000000000000000000000000000000000000000000000000000000000000000000000000000000000000000000000000000000000000000000000000000000000000000000000000000000000000000000000000000000000000000000000000000000000000000000000000000000000000000000000000000000000000000000000000000000000000000000000000000000000000000000000000000000000000000000000000000000000000000000000000000000000000830200008083989680808203b642a056e81f171bcc55a6ff8345e692c0f86e5b48e01b996cadc001622fb5e363b421880102030405060708c0c0",
        "lastblockhash" : "0xd4db9a6a9032b97994c42fcaa4e83cf05d9b3fb628bbd79f7fa4191d4395849c",
        "network" : "Constantinople",
        "postState" : {
            "0x0000000000000000000000000000000000000000" : {
                "balance" : "0x00",
                "code" : "0x6000600055600060015560006002556000600355600060045560006005556000600655600060075560006008556000600955",
                "nonce" : "0x00",
                "storage" : {
                    "0x00" : "0x0c",
                    "0x01" : "0x0c",
                    "0x02" : "0x0c",
                    "0x03" : "0x0c",
                    "0x04" : "0x0c",
                    "0x05" : "0x0c",
                    "0x06" : "0x0c",
                    "0x07" : "0x0c",
                    "0x08" : "0x0c",
                    "0x09" : "0x0c"
                }
            },
            "0xa94f5374fce5edbc8e2a8697c15331677e6ebf0b" : {
                "balance" : "0x0716e9",
                "code" : "",
                "nonce" : "0x01",
                "storage" : {
                }
            },
            "0xb94f5374fce5edbc8e2a8697c15331677e6ebf0b" : {
                "balance" : "0x1bc16d674ec88a2d",
                "code" : "",
                "nonce" : "0x00",
                "storage" : {
                }
            },
            "0xc94f5374fce5edbc8e2a8697c15331677e6ebf0b" : {
                "balance" : "0x14",
                "code" : "0x6000600055600060015560006002556000600355600060006000600060016000614e20f1",
                "nonce" : "0x00",
                "storage" : {
                    "0x04" : "0x0c"
                }
            }
        },
        "pre" : {
            "0x0000000000000000000000000000000000000000" : {
                "balance" : "0x00",
                "code" : "0x6000600055600060015560006002556000600355600060045560006005556000600655600060075560006008556000600955",
                "nonce" : "0x00",
                "storage" : {
                    "0x00" : "0x0c",
                    "0x01" : "0x0c",
                    "0x02" : "0x0c",
                    "0x03" : "0x0c",
                    "0x04" : "0x0c",
                    "0x05" : "0x0c",
                    "0x06" : "0x0c",
                    "0x07" : "0x0c",
                    "0x08" : "0x0c",
                    "0x09" : "0x0c"
                }
            },
            "0xa94f5374fce5edbc8e2a8697c15331677e6ebf0b" : {
                "balance" : "0x07a120",
                "code" : "",
                "nonce" : "0x00",
                "storage" : {
                }
            },
            "0xc94f5374fce5edbc8e2a8697c15331677e6ebf0b" : {
                "balance" : "0x0a",
                "code" : "0x6000600055600060015560006002556000600355600060006000600060016000614e20f1",
                "nonce" : "0x00",
                "storage" : {
                    "0x00" : "0x0c",
                    "0x01" : "0x0c",
                    "0x02" : "0x0c",
                    "0x03" : "0x0c",
                    "0x04" : "0x0c"
                }
            }
        },
        "sealEngine" : "NoProof"
    }
}