{
    "CallContractToCreateContractAndCallItOOG_d0g0v0_Byzantium" : {
        "_info" : {
            "comment" : "",
            "filledwith" : "testeth 1.5.0.dev2-52+commit.d419e0a2",
            "lllcversion" : "Version: 0.4.26-develop.2018.9.19+commit.785cbf40.Linux.g++",
            "source" : "src/BlockchainTestsFiller/GeneralStateTests/stInitCodeTest/CallContractToCreateContractAndCallItOOG_d0g0v0Filler.json",
            "sourceHash" : "4c788298829dc97db5ca3f9fedb7eb620f9ebd49a77065f40f00f9f0bcef2abc"
        },
        "blocks" : [
            {
                "blockHeader" : {
                    "bloom" : "0x00000000000000000000000000000000000000000000000000000000000000000000000000000000000000000000000000000000000000000000000000000000000000000000000000000000000000000000000000000000000000000000000000000000000000000000000000000000000000000000000000000000000000000000000000000000000000000000000000000000000000000000000000000000000000000000000000000000000000000000000000000000000000000000000000000000000000000000000000000000000000000000000000000000000000000000000000000000000000000000000000000000000000000000000000000000",
                    "coinbase" : "0x2adc25665018aa1fe0e6bc666dac8fc2697ff9ba",
                    "difficulty" : "0x020000",
                    "extraData" : "",
                    "gasLimit" : "0x05f5e100",
                    "gasUsed" : "0x017878",
                    "hash" : "0x0ecd1bf20307fb4afa9805a678b82db1e559c03666f3a9471b9dbf6a499e3dd6",
                    "mixHash" : "0x0000000000000000000000000000000000000000000000000000000000000000",
                    "nonce" : "0x0000000000000000",
                    "number" : "0x01",
                    "parentHash" : "0x8da1d28acef8b132ae719f0ca5ff9468e0dc911675aa8477dcefbfa8f02d2843",
                    "receiptTrie" : "0xd0e270562064e137d79f512ef3ca4c981a592b3d8607487df457dea9a774d027",
                    "stateRoot" : "0xe387b0158ed9d45dfb685497e4390792196a041c86a0fcb22e34932f320936ea",
                    "timestamp" : "0x03e8",
                    "transactionsTrie" : "0x6f54a3f90a0be837cd8357c28b481ba8017d07ba63237e10b76569a2c6e2bd3b",
                    "uncleHash" : "0x1dcc4de8dec75d7aab85b567b6ccd41ad312451b948a7413f0a142fd40d49347"
                },
                "rlp" : "0xf90261f901f9a08da1d28acef8b132ae719f0ca5ff9468e0dc911675aa8477dcefbfa8f02d2843a01dcc4de8dec75d7aab85b567b6ccd41ad312451b948a7413f0a142fd40d49347942adc25665018aa1fe0e6bc666dac8fc2697ff9baa0e387b0158ed9d45dfb685497e4390792196a041c86a0fcb22e34932f320936eaa06f54a3f90a0be837cd8357c28b481ba8017d07ba63237e10b76569a2c6e2bd3ba0d0e270562064e137d79f512ef3ca4c981a592b3d8607487df457dea9a774d027b901000000000000000000000000000000000000000000000000000000000000000000000000000000000000000000000000000000000000000000000000000000000000000000000000000000000000000000000000000000000000000000000000000000000000000000000000000000000000000000000000000000000000000000000000000000000000000000000000000000000000000000000000000000000000000000000000000000000000000000000000000000000000000000000000000000000000000000000000000000000000000000000000000000000000000000000000000000000000000000000000000000000000000000000000000000000083020000018405f5e100830178788203e880a00000000000000000000000000000000000000000000000000000000000000000880000000000000000f862f8608001830318f894095e7baea6a6c7c4c2dfeb977efac326af552d8780001ba0d2dcdfd1cdaddf6df344be51f59e214875efd3405d665d95d4dc8655293b866fa03ec96b23e0612dd65f9b8d505e26b8b95fcb8612e207bd4ec1f613edb4f68ec0c0",
                "transactions" : [
                    {
                        "data" : "0x00",
                        "gasLimit" : "0x0318f8",
                        "gasPrice" : "0x01",
                        "nonce" : "0x00",
                        "r" : "0xd2dcdfd1cdaddf6df344be51f59e214875efd3405d665d95d4dc8655293b866f",
                        "s" : "0x3ec96b23e0612dd65f9b8d505e26b8b95fcb8612e207bd4ec1f613edb4f68ec0",
                        "to" : "0x095e7baea6a6c7c4c2dfeb977efac326af552d87",
                        "v" : "0x1b",
                        "value" : "0x00"
                    }
                ],
                "uncleHeaders" : [
                ]
            }
        ],
        "genesisBlockHeader" : {
            "bloom" : "0x00000000000000000000000000000000000000000000000000000000000000000000000000000000000000000000000000000000000000000000000000000000000000000000000000000000000000000000000000000000000000000000000000000000000000000000000000000000000000000000000000000000000000000000000000000000000000000000000000000000000000000000000000000000000000000000000000000000000000000000000000000000000000000000000000000000000000000000000000000000000000000000000000000000000000000000000000000000000000000000000000000000000000000000000000000000",
            "coinbase" : "0x2adc25665018aa1fe0e6bc666dac8fc2697ff9ba",
            "difficulty" : "0x020000",
            "extraData" : "0x42",
            "gasLimit" : "0x05f5e100",
            "gasUsed" : "0x00",
            "hash" : "0x8da1d28acef8b132ae719f0ca5ff9468e0dc911675aa8477dcefbfa8f02d2843",
            "mixHash" : "0x56e81f171bcc55a6ff8345e692c0f86e5b48e01b996cadc001622fb5e363b421",
            "nonce" : "0x0102030405060708",
            "number" : "0x00",
            "parentHash" : "0x0000000000000000000000000000000000000000000000000000000000000000",
            "receiptTrie" : "0x56e81f171bcc55a6ff8345e692c0f86e5b48e01b996cadc001622fb5e363b421",
            "stateRoot" : "0x3ab4ce03e63eee91700ee708b140752dc1a2eac333f0ca7cbfe3b1d74737d6c3",
            "timestamp" : "0x03b6",
            "transactionsTrie" : "0x56e81f171bcc55a6ff8345e692c0f86e5b48e01b996cadc001622fb5e363b421",
            "uncleHash" : "0x1dcc4de8dec75d7aab85b567b6ccd41ad312451b948a7413f0a142fd40d49347"
        },
        "genesisRLP" : "0xf901fbf901f6a00000000000000000000000000000000000000000000000000000000000000000a01dcc4de8dec75d7aab85b567b6ccd41ad312451b948a7413f0a142fd40d49347942adc25665018aa1fe0e6bc666dac8fc2697ff9baa03ab4ce03e63eee91700ee708b140752dc1a2eac333f0ca7cbfe3b1d74737d6c3a056e81f171bcc55a6ff8345e692c0f86e5b48e01b996cadc001622fb5e363b421a056e81f171bcc55a6ff8345e692c0f86e5b48e01b996cadc001622fb5e363b421b901000000000000000000000000000000000000000000000000000000000000000000000000000000000000000000000000000000000000000000000000000000000000000000000000000000000000000000000000000000000000000000000000000000000000000000000000000000000000000000000000000000000000000000000000000000000000000000000000000000000000000000000000000000000000000000000000000000000000000000000000000000000000000000000000000000000000000000000000000000000000000000000000000000000000000000000000000000000000000000000000000000000000000000000000000000000083020000808405f5e100808203b642a056e81f171bcc55a6ff8345e692c0f86e5b48e01b996cadc001622fb5e363b421880102030405060708c0c0",
        "lastblockhash" : "0x0ecd1bf20307fb4afa9805a678b82db1e559c03666f3a9471b9dbf6a499e3dd6",
        "network" : "Byzantium",
        "postState" : {
            "0x095e7baea6a6c7c4c2dfeb977efac326af552d87" : {
                "balance" : "0x03e7",
                "code" : "0x74600c60005566602060406000f060205260076039f36000526015600b6001f0600055600060006000600060006000546103e8f1",
                "nonce" : "0x01",
                "storage" : {
                    "0x00" : "0xd2571607e241ecf590ed94b12d87c94babe36db6"
                }
            },
            "0x2adc25665018aa1fe0e6bc666dac8fc2697ff9ba" : {
                "balance" : "0x29a2241af62d7878",
                "code" : "",
                "nonce" : "0x00",
                "storage" : {
                }
            },
            "0xa94f5374fce5edbc8e2a8697c15331677e6ebf0b" : {
                "balance" : "0x05f46888",
                "code" : "",
                "nonce" : "0x01",
                "storage" : {
                }
            },
            "0xd2571607e241ecf590ed94b12d87c94babe36db6" : {
                "balance" : "0x01",
                "code" : "0x602060406000f0",
                "nonce" : "0x01",
                "storage" : {
                    "0x00" : "0x0c"
                }
            }
        },
        "pre" : {
            "0x095e7baea6a6c7c4c2dfeb977efac326af552d87" : {
                "balance" : "0x03e8",
                "code" : "0x74600c60005566602060406000f060205260076039f36000526015600b6001f0600055600060006000600060006000546103e8f1",
                "nonce" : "0x00",
                "storage" : {
                }
            },
            "0xa94f5374fce5edbc8e2a8697c15331677e6ebf0b" : {
                "balance" : "0x05f5e100",
                "code" : "",
                "nonce" : "0x00",
                "storage" : {
                }
            }
        },
        "sealEngine" : "NoProof"
    },
    "CallContractToCreateContractAndCallItOOG_d0g0v0_Constantinople" : {
        "_info" : {
            "comment" : "",
            "filledwith" : "testeth 1.5.0.dev2-52+commit.d419e0a2",
            "lllcversion" : "Version: 0.4.26-develop.2018.9.19+commit.785cbf40.Linux.g++",
            "source" : "src/BlockchainTestsFiller/GeneralStateTests/stInitCodeTest/CallContractToCreateContractAndCallItOOG_d0g0v0Filler.json",
            "sourceHash" : "4c788298829dc97db5ca3f9fedb7eb620f9ebd49a77065f40f00f9f0bcef2abc"
        },
        "blocks" : [
            {
                "blockHeader" : {
                    "bloom" : "0x00000000000000000000000000000000000000000000000000000000000000000000000000000000000000000000000000000000000000000000000000000000000000000000000000000000000000000000000000000000000000000000000000000000000000000000000000000000000000000000000000000000000000000000000000000000000000000000000000000000000000000000000000000000000000000000000000000000000000000000000000000000000000000000000000000000000000000000000000000000000000000000000000000000000000000000000000000000000000000000000000000000000000000000000000000000",
                    "coinbase" : "0x2adc25665018aa1fe0e6bc666dac8fc2697ff9ba",
                    "difficulty" : "0x020000",
                    "extraData" : "",
                    "gasLimit" : "0x05f5e100",
                    "gasUsed" : "0x017878",
                    "hash" : "0x3d962d652b7458d6298fdda456d5499973a8f366cbfe430126411ce65862988c",
                    "mixHash" : "0x0000000000000000000000000000000000000000000000000000000000000000",
                    "nonce" : "0x0000000000000000",
                    "number" : "0x01",
                    "parentHash" : "0x8da1d28acef8b132ae719f0ca5ff9468e0dc911675aa8477dcefbfa8f02d2843",
                    "receiptTrie" : "0xd0e270562064e137d79f512ef3ca4c981a592b3d8607487df457dea9a774d027",
                    "stateRoot" : "0x7a39e1bdb3ece4d5b3042c6adb0b6c69a573b250dd2ac5fd35b2e5b07e1670ab",
                    "timestamp" : "0x03e8",
                    "transactionsTrie" : "0x6f54a3f90a0be837cd8357c28b481ba8017d07ba63237e10b76569a2c6e2bd3b",
                    "uncleHash" : "0x1dcc4de8dec75d7aab85b567b6ccd41ad312451b948a7413f0a142fd40d49347"
                },
                "rlp" : "0xf90261f901f9a08da1d28acef8b132ae719f0ca5ff9468e0dc911675aa8477dcefbfa8f02d2843a01dcc4de8dec75d7aab85b567b6ccd41ad312451b948a7413f0a142fd40d49347942adc25665018aa1fe0e6bc666dac8fc2697ff9baa07a39e1bdb3ece4d5b3042c6adb0b6c69a573b250dd2ac5fd35b2e5b07e1670aba06f54a3f90a0be837cd8357c28b481ba8017d07ba63237e10b76569a2c6e2bd3ba0d0e270562064e137d79f512ef3ca4c981a592b3d8607487df457dea9a774d027b901000000000000000000000000000000000000000000000000000000000000000000000000000000000000000000000000000000000000000000000000000000000000000000000000000000000000000000000000000000000000000000000000000000000000000000000000000000000000000000000000000000000000000000000000000000000000000000000000000000000000000000000000000000000000000000000000000000000000000000000000000000000000000000000000000000000000000000000000000000000000000000000000000000000000000000000000000000000000000000000000000000000000000000000000000000000083020000018405f5e100830178788203e880a00000000000000000000000000000000000000000000000000000000000000000880000000000000000f862f8608001830318f894095e7baea6a6c7c4c2dfeb977efac326af552d8780001ba0d2dcdfd1cdaddf6df344be51f59e214875efd3405d665d95d4dc8655293b866fa03ec96b23e0612dd65f9b8d505e26b8b95fcb8612e207bd4ec1f613edb4f68ec0c0",
                "transactions" : [
                    {
                        "data" : "0x00",
                        "gasLimit" : "0x0318f8",
                        "gasPrice" : "0x01",
                        "nonce" : "0x00",
                        "r" : "0xd2dcdfd1cdaddf6df344be51f59e214875efd3405d665d95d4dc8655293b866f",
                        "s" : "0x3ec96b23e0612dd65f9b8d505e26b8b95fcb8612e207bd4ec1f613edb4f68ec0",
                        "to" : "0x095e7baea6a6c7c4c2dfeb977efac326af552d87",
                        "v" : "0x1b",
                        "value" : "0x00"
                    }
                ],
                "uncleHeaders" : [
                ]
            }
        ],
        "genesisBlockHeader" : {
            "bloom" : "0x00000000000000000000000000000000000000000000000000000000000000000000000000000000000000000000000000000000000000000000000000000000000000000000000000000000000000000000000000000000000000000000000000000000000000000000000000000000000000000000000000000000000000000000000000000000000000000000000000000000000000000000000000000000000000000000000000000000000000000000000000000000000000000000000000000000000000000000000000000000000000000000000000000000000000000000000000000000000000000000000000000000000000000000000000000000",
            "coinbase" : "0x2adc25665018aa1fe0e6bc666dac8fc2697ff9ba",
            "difficulty" : "0x020000",
            "extraData" : "0x42",
            "gasLimit" : "0x05f5e100",
            "gasUsed" : "0x00",
            "hash" : "0x8da1d28acef8b132ae719f0ca5ff9468e0dc911675aa8477dcefbfa8f02d2843",
            "mixHash" : "0x56e81f171bcc55a6ff8345e692c0f86e5b48e01b996cadc001622fb5e363b421",
            "nonce" : "0x0102030405060708",
            "number" : "0x00",
            "parentHash" : "0x0000000000000000000000000000000000000000000000000000000000000000",
            "receiptTrie" : "0x56e81f171bcc55a6ff8345e692c0f86e5b48e01b996cadc001622fb5e363b421",
            "stateRoot" : "0x3ab4ce03e63eee91700ee708b140752dc1a2eac333f0ca7cbfe3b1d74737d6c3",
            "timestamp" : "0x03b6",
            "transactionsTrie" : "0x56e81f171bcc55a6ff8345e692c0f86e5b48e01b996cadc001622fb5e363b421",
            "uncleHash" : "0x1dcc4de8dec75d7aab85b567b6ccd41ad312451b948a7413f0a142fd40d49347"
        },
        "genesisRLP" : "0xf901fbf901f6a00000000000000000000000000000000000000000000000000000000000000000a01dcc4de8dec75d7aab85b567b6ccd41ad312451b948a7413f0a142fd40d49347942adc25665018aa1fe0e6bc666dac8fc2697ff9baa03ab4ce03e63eee91700ee708b140752dc1a2eac333f0ca7cbfe3b1d74737d6c3a056e81f171bcc55a6ff8345e692c0f86e5b48e01b996cadc001622fb5e363b421a056e81f171bcc55a6ff8345e692c0f86e5b48e01b996cadc001622fb5e363b421b901000000000000000000000000000000000000000000000000000000000000000000000000000000000000000000000000000000000000000000000000000000000000000000000000000000000000000000000000000000000000000000000000000000000000000000000000000000000000000000000000000000000000000000000000000000000000000000000000000000000000000000000000000000000000000000000000000000000000000000000000000000000000000000000000000000000000000000000000000000000000000000000000000000000000000000000000000000000000000000000000000000000000000000000000000000000083020000808405f5e100808203b642a056e81f171bcc55a6ff8345e692c0f86e5b48e01b996cadc001622fb5e363b421880102030405060708c0c0",
        "lastblockhash" : "0x3d962d652b7458d6298fdda456d5499973a8f366cbfe430126411ce65862988c",
        "network" : "Constantinople",
        "postState" : {
            "0x095e7baea6a6c7c4c2dfeb977efac326af552d87" : {
                "balance" : "0x03e7",
                "code" : "0x74600c60005566602060406000f060205260076039f36000526015600b6001f0600055600060006000600060006000546103e8f1",
                "nonce" : "0x01",
                "storage" : {
                    "0x00" : "0xd2571607e241ecf590ed94b12d87c94babe36db6"
                }
            },
            "0x2adc25665018aa1fe0e6bc666dac8fc2697ff9ba" : {
                "balance" : "0x1bc16d674ec97878",
                "code" : "",
                "nonce" : "0x00",
                "storage" : {
                }
            },
            "0xa94f5374fce5edbc8e2a8697c15331677e6ebf0b" : {
                "balance" : "0x05f46888",
                "code" : "",
                "nonce" : "0x01",
                "storage" : {
                }
            },
            "0xd2571607e241ecf590ed94b12d87c94babe36db6" : {
                "balance" : "0x01",
                "code" : "0x602060406000f0",
                "nonce" : "0x01",
                "storage" : {
                    "0x00" : "0x0c"
                }
            }
        },
        "pre" : {
            "0x095e7baea6a6c7c4c2dfeb977efac326af552d87" : {
                "balance" : "0x03e8",
                "code" : "0x74600c60005566602060406000f060205260076039f36000526015600b6001f0600055600060006000600060006000546103e8f1",
                "nonce" : "0x00",
                "storage" : {
                }
            },
            "0xa94f5374fce5edbc8e2a8697c15331677e6ebf0b" : {
                "balance" : "0x05f5e100",
                "code" : "",
                "nonce" : "0x00",
                "storage" : {
                }
            }
        },
        "sealEngine" : "NoProof"
    }
}