{
    "CallRecursiveContract_d0g0v0_Byzantium" : {
        "_info" : {
            "comment" : "",
            "filledwith" : "testeth 1.5.0.dev2-52+commit.d419e0a2",
            "lllcversion" : "Version: 0.4.26-develop.2018.9.19+commit.785cbf40.Linux.g++",
            "source" : "src/BlockchainTestsFiller/GeneralStateTests/stInitCodeTest/CallRecursiveContract_d0g0v0Filler.json",
            "sourceHash" : "19e4d18a1aa2f62dafbf53035e24a54ee5841d04be1aa5b84c172a5b7430c800"
        },
        "blocks" : [
            {
                "blockHeader" : {
                    "bloom" : "0x00000000000000000000000000000000000000000000000000000000000000000000000000000000000000000000000000000000000000000000000000000000000000000000000000000000000000000000000000000000000000000000000000000000000000000000000000000000000000000000000000000000000000000000000000000000000000000000000000000000000000000000000000000000000000000000000000000000000000000000000000000000000000000000000000000000000000000000000000000000000000000000000000000000000000000000000000000000000000000000000000000000000000000000000000000000",
                    "coinbase" : "0x2adc25665018aa1fe0e6bc666dac8fc2697ff9ba",
                    "difficulty" : "0x020000",
                    "extraData" : "",
                    "gasLimit" : "0x05f5e100",
                    "gasUsed" : "0x05d602",
                    "hash" : "0x0c2e477aae552e51951d4a8e46533ea19844beb1fc48c735b929aae7977876f3",
                    "mixHash" : "0x0000000000000000000000000000000000000000000000000000000000000000",
                    "nonce" : "0x0000000000000000",
                    "number" : "0x01",
                    "parentHash" : "0x6c44ba6d50081eedac235864ef83628b46a1a93f57c34e03e4782e7a04e3bf3f",
                    "receiptTrie" : "0x29cd73fe1868f13a298f87d55ffc3c35f6c1251f98fd58835f99a95c718fbd31",
                    "stateRoot" : "0xc2eed555afd349166225c89bb46ab3428f34fe9388ce2a8b5b1b4409412dc8f9",
                    "timestamp" : "0x03e8",
                    "transactionsTrie" : "0xd4be89a2f61318fc9713ec59a5f4dc08476e084155c765e911baf3180b66a493",
                    "uncleHash" : "0x1dcc4de8dec75d7aab85b567b6ccd41ad312451b948a7413f0a142fd40d49347"
                },
                "rlp" : "0xf90261f901f9a06c44ba6d50081eedac235864ef83628b46a1a93f57c34e03e4782e7a04e3bf3fa01dcc4de8dec75d7aab85b567b6ccd41ad312451b948a7413f0a142fd40d49347942adc25665018aa1fe0e6bc666dac8fc2697ff9baa0c2eed555afd349166225c89bb46ab3428f34fe9388ce2a8b5b1b4409412dc8f9a0d4be89a2f61318fc9713ec59a5f4dc08476e084155c765e911baf3180b66a493a029cd73fe1868f13a298f87d55ffc3c35f6c1251f98fd58835f99a95c718fbd31b901000000000000000000000000000000000000000000000000000000000000000000000000000000000000000000000000000000000000000000000000000000000000000000000000000000000000000000000000000000000000000000000000000000000000000000000000000000000000000000000000000000000000000000000000000000000000000000000000000000000000000000000000000000000000000000000000000000000000000000000000000000000000000000000000000000000000000000000000000000000000000000000000000000000000000000000000000000000000000000000000000000000000000000000000000000000083020000018405f5e1008305d6028203e880a00000000000000000000000000000000000000000000000000000000000000000880000000000000000f862f860800183061a8094095e7baea6a6c7c4c2dfeb977efac326af552d8701001ca0767b4aeef3b7b464066b6622894304ddbe828ff6f7d35b4a208479b84190072da06d23402c4c7144e986f0a9dbbb8bfc7fd8e1d75f13bb85d5cce03b46f0a8b0cac0",
                "transactions" : [
                    {
                        "data" : "0x00",
                        "gasLimit" : "0x061a80",
                        "gasPrice" : "0x01",
                        "nonce" : "0x00",
                        "r" : "0x767b4aeef3b7b464066b6622894304ddbe828ff6f7d35b4a208479b84190072d",
                        "s" : "0x6d23402c4c7144e986f0a9dbbb8bfc7fd8e1d75f13bb85d5cce03b46f0a8b0ca",
                        "to" : "0x095e7baea6a6c7c4c2dfeb977efac326af552d87",
                        "v" : "0x1c",
                        "value" : "0x01"
                    }
                ],
                "uncleHeaders" : [
                ]
            }
        ],
        "genesisBlockHeader" : {
            "bloom" : "0x00000000000000000000000000000000000000000000000000000000000000000000000000000000000000000000000000000000000000000000000000000000000000000000000000000000000000000000000000000000000000000000000000000000000000000000000000000000000000000000000000000000000000000000000000000000000000000000000000000000000000000000000000000000000000000000000000000000000000000000000000000000000000000000000000000000000000000000000000000000000000000000000000000000000000000000000000000000000000000000000000000000000000000000000000000000",
            "coinbase" : "0x2adc25665018aa1fe0e6bc666dac8fc2697ff9ba",
            "difficulty" : "0x020000",
            "extraData" : "0x42",
            "gasLimit" : "0x05f5e100",
            "gasUsed" : "0x00",
            "hash" : "0x6c44ba6d50081eedac235864ef83628b46a1a93f57c34e03e4782e7a04e3bf3f",
            "mixHash" : "0x56e81f171bcc55a6ff8345e692c0f86e5b48e01b996cadc001622fb5e363b421",
            "nonce" : "0x0102030405060708",
            "number" : "0x00",
            "parentHash" : "0x0000000000000000000000000000000000000000000000000000000000000000",
            "receiptTrie" : "0x56e81f171bcc55a6ff8345e692c0f86e5b48e01b996cadc001622fb5e363b421",
            "stateRoot" : "0x9c33b65c5ead10d16ec24c6d6dcdff561dae7610857513f507152c6d05e15d22",
            "timestamp" : "0x03b6",
            "transactionsTrie" : "0x56e81f171bcc55a6ff8345e692c0f86e5b48e01b996cadc001622fb5e363b421",
            "uncleHash" : "0x1dcc4de8dec75d7aab85b567b6ccd41ad312451b948a7413f0a142fd40d49347"
        },
        "genesisRLP" : "0xf901fbf901f6a00000000000000000000000000000000000000000000000000000000000000000a01dcc4de8dec75d7aab85b567b6ccd41ad312451b948a7413f0a142fd40d49347942adc25665018aa1fe0e6bc666dac8fc2697ff9baa09c33b65c5ead10d16ec24c6d6dcdff561dae7610857513f507152c6d05e15d22a056e81f171bcc55a6ff8345e692c0f86e5b48e01b996cadc001622fb5e363b421a056e81f171bcc55a6ff8345e692c0f86e5b48e01b996cadc001622fb5e363b421b901000000000000000000000000000000000000000000000000000000000000000000000000000000000000000000000000000000000000000000000000000000000000000000000000000000000000000000000000000000000000000000000000000000000000000000000000000000000000000000000000000000000000000000000000000000000000000000000000000000000000000000000000000000000000000000000000000000000000000000000000000000000000000000000000000000000000000000000000000000000000000000000000000000000000000000000000000000000000000000000000000000000000000000000000000000000083020000808405f5e100808203b642a056e81f171bcc55a6ff8345e692c0f86e5b48e01b996cadc001622fb5e363b421880102030405060708c0c0",
        "lastblockhash" : "0x0c2e477aae552e51951d4a8e46533ea19844beb1fc48c735b929aae7977876f3",
        "network" : "Byzantium",
        "postState" : {
            "0x095e7baea6a6c7c4c2dfeb977efac326af552d87" : {
                "balance" : "0x01",
                "code" : "0x3060025560206000600039602060006000f0",
                "nonce" : "0x29",
                "storage" : {
                    "0x02" : "0x095e7baea6a6c7c4c2dfeb977efac326af552d87"
                }
            },
            "0x2adc25665018aa1fe0e6bc666dac8fc2697ff9ba" : {
                "balance" : "0x29a2241af631d602",
                "code" : "",
                "nonce" : "0x00",
                "storage" : {
                }
            },
            "0x4b0b4b3c7fd3dd5cea1d04dcf027dea29f84acb1" : {
                "balance" : "0x00",
                "code" : "",
                "nonce" : "0x02",
                "storage" : {
                    "0x02" : "0x4b0b4b3c7fd3dd5cea1d04dcf027dea29f84acb1"
                }
            },
            "0x60f971aa65f7e520dcb750823e2c239e61c3736b" : {
                "balance" : "0x00",
                "code" : "",
                "nonce" : "0x02",
                "storage" : {
                    "0x02" : "0x60f971aa65f7e520dcb750823e2c239e61c3736b"
                }
            },
            "0x6fc9df08d2206eff4f4c378aeb2a1f8c570952b9" : {
                "balance" : "0x00",
                "code" : "",
                "nonce" : "0x02",
                "storage" : {
                    "0x02" : "0x6fc9df08d2206eff4f4c378aeb2a1f8c570952b9"
                }
            },
            "0x74a77e95f3228f0b4d116d5a12e09aaf99ce54ae" : {
                "balance" : "0x00",
                "code" : "",
                "nonce" : "0x02",
                "storage" : {
                    "0x02" : "0x74a77e95f3228f0b4d116d5a12e09aaf99ce54ae"
                }
            },
            "0xa94f5374fce5edbc8e2a8697c15331677e6ebf0b" : {
                "balance" : "0x096c3d",
                "code" : "",
                "nonce" : "0x01",
                "storage" : {
                }
            },
            "0xf0064be0919341a45680ec0d592eaee47df671ac" : {
                "balance" : "0x00",
                "code" : "",
                "nonce" : "0x02",
                "storage" : {
                    "0x02" : "0xf0064be0919341a45680ec0d592eaee47df671ac"
                }
            }
        },
        "pre" : {
            "0x095e7baea6a6c7c4c2dfeb977efac326af552d87" : {
                "balance" : "0x00",
                "code" : "0x3060025560206000600039602060006000f0",
                "nonce" : "0x28",
                "storage" : {
                }
            },
            "0xa94f5374fce5edbc8e2a8697c15331677e6ebf0b" : {
                "balance" : "0x0f4240",
                "code" : "",
                "nonce" : "0x00",
                "storage" : {
                }
            }
        },
        "sealEngine" : "NoProof"
    },
    "CallRecursiveContract_d0g0v0_Constantinople" : {
        "_info" : {
            "comment" : "",
            "filledwith" : "testeth 1.5.0.dev2-52+commit.d419e0a2",
            "lllcversion" : "Version: 0.4.26-develop.2018.9.19+commit.785cbf40.Linux.g++",
            "source" : "src/BlockchainTestsFiller/GeneralStateTests/stInitCodeTest/CallRecursiveContract_d0g0v0Filler.json",
            "sourceHash" : "19e4d18a1aa2f62dafbf53035e24a54ee5841d04be1aa5b84c172a5b7430c800"
        },
        "blocks" : [
            {
                "blockHeader" : {
                    "bloom" : "0x00000000000000000000000000000000000000000000000000000000000000000000000000000000000000000000000000000000000000000000000000000000000000000000000000000000000000000000000000000000000000000000000000000000000000000000000000000000000000000000000000000000000000000000000000000000000000000000000000000000000000000000000000000000000000000000000000000000000000000000000000000000000000000000000000000000000000000000000000000000000000000000000000000000000000000000000000000000000000000000000000000000000000000000000000000000",
                    "coinbase" : "0x2adc25665018aa1fe0e6bc666dac8fc2697ff9ba",
                    "difficulty" : "0x020000",
                    "extraData" : "",
                    "gasLimit" : "0x05f5e100",
                    "gasUsed" : "0x05d602",
                    "hash" : "0x6c41a27576b19f899028f84827ac81a454b062b7e5b6bb09e29614cf6f5459d8",
                    "mixHash" : "0x0000000000000000000000000000000000000000000000000000000000000000",
                    "nonce" : "0x0000000000000000",
                    "number" : "0x01",
                    "parentHash" : "0x6c44ba6d50081eedac235864ef83628b46a1a93f57c34e03e4782e7a04e3bf3f",
                    "receiptTrie" : "0x29cd73fe1868f13a298f87d55ffc3c35f6c1251f98fd58835f99a95c718fbd31",
                    "stateRoot" : "0xc1459497130e1f468ade98ca3709d4a93f306075120d416da2fd2e64a9dd39cc",
                    "timestamp" : "0x03e8",
                    "transactionsTrie" : "0xd4be89a2f61318fc9713ec59a5f4dc08476e084155c765e911baf3180b66a493",
                    "uncleHash" : "0x1dcc4de8dec75d7aab85b567b6ccd41ad312451b948a7413f0a142fd40d49347"
                },
                "rlp" : "0xf90261f901f9a06c44ba6d50081eedac235864ef83628b46a1a93f57c34e03e4782e7a04e3bf3fa01dcc4de8dec75d7aab85b567b6ccd41ad312451b948a7413f0a142fd40d49347942adc25665018aa1fe0e6bc666dac8fc2697ff9baa0c1459497130e1f468ade98ca3709d4a93f306075120d416da2fd2e64a9dd39cca0d4be89a2f61318fc9713ec59a5f4dc08476e084155c765e911baf3180b66a493a029cd73fe1868f13a298f87d55ffc3c35f6c1251f98fd58835f99a95c718fbd31b901000000000000000000000000000000000000000000000000000000000000000000000000000000000000000000000000000000000000000000000000000000000000000000000000000000000000000000000000000000000000000000000000000000000000000000000000000000000000000000000000000000000000000000000000000000000000000000000000000000000000000000000000000000000000000000000000000000000000000000000000000000000000000000000000000000000000000000000000000000000000000000000000000000000000000000000000000000000000000000000000000000000000000000000000000000000083020000018405f5e1008305d6028203e880a00000000000000000000000000000000000000000000000000000000000000000880000000000000000f862f860800183061a8094095e7baea6a6c7c4c2dfeb977efac326af552d8701001ca0767b4aeef3b7b464066b6622894304ddbe828ff6f7d35b4a208479b84190072da06d23402c4c7144e986f0a9dbbb8bfc7fd8e1d75f13bb85d5cce03b46f0a8b0cac0",
                "transactions" : [
                    {
                        "data" : "0x00",
                        "gasLimit" : "0x061a80",
                        "gasPrice" : "0x01",
                        "nonce" : "0x00",
                        "r" : "0x767b4aeef3b7b464066b6622894304ddbe828ff6f7d35b4a208479b84190072d",
                        "s" : "0x6d23402c4c7144e986f0a9dbbb8bfc7fd8e1d75f13bb85d5cce03b46f0a8b0ca",
                        "to" : "0x095e7baea6a6c7c4c2dfeb977efac326af552d87",
                        "v" : "0x1c",
                        "value" : "0x01"
                    }
                ],
                "uncleHeaders" : [
                ]
            }
        ],
        "genesisBlockHeader" : {
            "bloom" : "0x00000000000000000000000000000000000000000000000000000000000000000000000000000000000000000000000000000000000000000000000000000000000000000000000000000000000000000000000000000000000000000000000000000000000000000000000000000000000000000000000000000000000000000000000000000000000000000000000000000000000000000000000000000000000000000000000000000000000000000000000000000000000000000000000000000000000000000000000000000000000000000000000000000000000000000000000000000000000000000000000000000000000000000000000000000000",
            "coinbase" : "0x2adc25665018aa1fe0e6bc666dac8fc2697ff9ba",
            "difficulty" : "0x020000",
            "extraData" : "0x42",
            "gasLimit" : "0x05f5e100",
            "gasUsed" : "0x00",
            "hash" : "0x6c44ba6d50081eedac235864ef83628b46a1a93f57c34e03e4782e7a04e3bf3f",
            "mixHash" : "0x56e81f171bcc55a6ff8345e692c0f86e5b48e01b996cadc001622fb5e363b421",
            "nonce" : "0x0102030405060708",
            "number" : "0x00",
            "parentHash" : "0x0000000000000000000000000000000000000000000000000000000000000000",
            "receiptTrie" : "0x56e81f171bcc55a6ff8345e692c0f86e5b48e01b996cadc001622fb5e363b421",
            "stateRoot" : "0x9c33b65c5ead10d16ec24c6d6dcdff561dae7610857513f507152c6d05e15d22",
            "timestamp" : "0x03b6",
            "transactionsTrie" : "0x56e81f171bcc55a6ff8345e692c0f86e5b48e01b996cadc001622fb5e363b421",
            "uncleHash" : "0x1dcc4de8dec75d7aab85b567b6ccd41ad312451b948a7413f0a142fd40d49347"
        },
        "genesisRLP" : "0xf901fbf901f6a00000000000000000000000000000000000000000000000000000000000000000a01dcc4de8dec75d7aab85b567b6ccd41ad312451b948a7413f0a142fd40d49347942adc25665018aa1fe0e6bc666dac8fc2697ff9baa09c33b65c5ead10d16ec24c6d6dcdff561dae7610857513f507152c6d05e15d22a056e81f171bcc55a6ff8345e692c0f86e5b48e01b996cadc001622fb5e363b421a056e81f171bcc55a6ff8345e692c0f86e5b48e01b996cadc001622fb5e363b421b901000000000000000000000000000000000000000000000000000000000000000000000000000000000000000000000000000000000000000000000000000000000000000000000000000000000000000000000000000000000000000000000000000000000000000000000000000000000000000000000000000000000000000000000000000000000000000000000000000000000000000000000000000000000000000000000000000000000000000000000000000000000000000000000000000000000000000000000000000000000000000000000000000000000000000000000000000000000000000000000000000000000000000000000000000000000083020000808405f5e100808203b642a056e81f171bcc55a6ff8345e692c0f86e5b48e01b996cadc001622fb5e363b421880102030405060708c0c0",
        "lastblockhash" : "0x6c41a27576b19f899028f84827ac81a454b062b7e5b6bb09e29614cf6f5459d8",
        "network" : "Constantinople",
        "postState" : {
            "0x095e7baea6a6c7c4c2dfeb977efac326af552d87" : {
                "balance" : "0x01",
                "code" : "0x3060025560206000600039602060006000f0",
                "nonce" : "0x29",
                "storage" : {
                    "0x02" : "0x095e7baea6a6c7c4c2dfeb977efac326af552d87"
                }
            },
            "0x2adc25665018aa1fe0e6bc666dac8fc2697ff9ba" : {
                "balance" : "0x1bc16d674ecdd602",
                "code" : "",
                "nonce" : "0x00",
                "storage" : {
                }
            },
            "0x4b0b4b3c7fd3dd5cea1d04dcf027dea29f84acb1" : {
                "balance" : "0x00",
                "code" : "",
                "nonce" : "0x02",
                "storage" : {
                    "0x02" : "0x4b0b4b3c7fd3dd5cea1d04dcf027dea29f84acb1"
                }
            },
            "0x60f971aa65f7e520dcb750823e2c239e61c3736b" : {
                "balance" : "0x00",
                "code" : "",
                "nonce" : "0x02",
                "storage" : {
                    "0x02" : "0x60f971aa65f7e520dcb750823e2c239e61c3736b"
                }
            },
            "0x6fc9df08d2206eff4f4c378aeb2a1f8c570952b9" : {
                "balance" : "0x00",
                "code" : "",
                "nonce" : "0x02",
                "storage" : {
                    "0x02" : "0x6fc9df08d2206eff4f4c378aeb2a1f8c570952b9"
                }
            },
            "0x74a77e95f3228f0b4d116d5a12e09aaf99ce54ae" : {
                "balance" : "0x00",
                "code" : "",
                "nonce" : "0x02",
                "storage" : {
                    "0x02" : "0x74a77e95f3228f0b4d116d5a12e09aaf99ce54ae"
                }
            },
            "0xa94f5374fce5edbc8e2a8697c15331677e6ebf0b" : {
                "balance" : "0x096c3d",
                "code" : "",
                "nonce" : "0x01",
                "storage" : {
                }
            },
            "0xf0064be0919341a45680ec0d592eaee47df671ac" : {
                "balance" : "0x00",
                "code" : "",
                "nonce" : "0x02",
                "storage" : {
                    "0x02" : "0xf0064be0919341a45680ec0d592eaee47df671ac"
                }
            }
        },
        "pre" : {
            "0x095e7baea6a6c7c4c2dfeb977efac326af552d87" : {
                "balance" : "0x00",
                "code" : "0x3060025560206000600039602060006000f0",
                "nonce" : "0x28",
                "storage" : {
                }
            },
            "0xa94f5374fce5edbc8e2a8697c15331677e6ebf0b" : {
                "balance" : "0x0f4240",
                "code" : "",
                "nonce" : "0x00",
                "storage" : {
                }
            }
        },
        "sealEngine" : "NoProof"
    }
}