{
    "CREATE_ContractSSTOREDuringInit_d0g0v0_Byzantium" : {
        "_info" : {
            "comment" : "",
            "filledwith" : "testeth 1.5.0.dev2-52+commit.d419e0a2",
            "lllcversion" : "Version: 0.4.26-develop.2018.9.19+commit.785cbf40.Linux.g++",
            "source" : "src/BlockchainTestsFiller/GeneralStateTests/stCreateTest/CREATE_ContractSSTOREDuringInit_d0g0v0Filler.json",
            "sourceHash" : "b9a82df49be5f0f1edac7471e8cd63fb1ab55cc905a159404d63dece48114d8c"
        },
        "blocks" : [
            {
                "blockHeader" : {
                    "bloom" : "0x00000000000000000000000000000000000000000000000000000000000000000000000000000000000000000000000000000000000000000000000000000000000000000000000000000000000000000000000000000000000000000000000000000000000000000000000000000000000000000000000000000000000000000000000000000000000000000000000000000000000000000000000000000000000000000000000000000000000000000000000000000000000000000000000000000000000000000000000000000000000000000000000000000000000000000000000000000000000000000000000000000000000000000000000000000000",
                    "coinbase" : "0x2adc25665018aa1fe0e6bc666dac8fc2697ff9ba",
                    "difficulty" : "0x020000",
                    "extraData" : "",
                    "gasLimit" : "0x989680",
                    "gasUsed" : "0x011e42",
                    "hash" : "0x5b39085ff02a03bfa2862106ea914a5acfcbd58da823a52cf38f1e5c7c491425",
                    "mixHash" : "0x0000000000000000000000000000000000000000000000000000000000000000",
                    "nonce" : "0x0000000000000000",
                    "number" : "0x01",
                    "parentHash" : "0xeb24bb1eab0d8c7752e0184a38ca1b65f115e20801724893ee816875ddce2e97",
                    "receiptTrie" : "0xecfd971e868a33e9302ce2bd60c55724320afc3473ed5c903c0ee862427b6329",
                    "stateRoot" : "0xb0093a2787e489d7b309f739675440ab6e9d3130c94d6015c60f9b30b1f3bad1",
                    "timestamp" : "0x03e8",
                    "transactionsTrie" : "0xf7de684b011341d75d5a2f0312527b5c7b07598e98b2cd3d36948581c4899199",
                    "uncleHash" : "0x1dcc4de8dec75d7aab85b567b6ccd41ad312451b948a7413f0a142fd40d49347"
                },
                "rlp" : "0xf90251f901f8a0eb24bb1eab0d8c7752e0184a38ca1b65f115e20801724893ee816875ddce2e97a01dcc4de8dec75d7aab85b567b6ccd41ad312451b948a7413f0a142fd40d49347942adc25665018aa1fe0e6bc666dac8fc2697ff9baa0b0093a2787e489d7b309f739675440ab6e9d3130c94d6015c60f9b30b1f3bad1a0f7de684b011341d75d5a2f0312527b5c7b07598e98b2cd3d36948581c4899199a0ecfd971e868a33e9302ce2bd60c55724320afc3473ed5c903c0ee862427b6329b901000000000000000000000000000000000000000000000000000000000000000000000000000000000000000000000000000000000000000000000000000000000000000000000000000000000000000000000000000000000000000000000000000000000000000000000000000000000000000000000000000000000000000000000000000000000000000000000000000000000000000000000000000000000000000000000000000000000000000000000000000000000000000000000000000000000000000000000000000000000000000000000000000000000000000000000000000000000000000000000000000000000000000000000000000000000083020000018398968083011e428203e880a00000000000000000000000000000000000000000000000000000000000000000880000000000000000f853f8518001830249f080808560ff6000551ba05c46a071f9398a3d56ef96e84ee19c9c9f5d9bd12f344d96d95cd982c6a37d85a0698ee0b9d1dea3ca290dd788630b4ea416cad7d47d2abdb00447ba33c3f23364c0",
                "transactions" : [
                    {
                        "data" : "0x60ff600055",
                        "gasLimit" : "0x0249f0",
                        "gasPrice" : "0x01",
                        "nonce" : "0x00",
                        "r" : "0x5c46a071f9398a3d56ef96e84ee19c9c9f5d9bd12f344d96d95cd982c6a37d85",
                        "s" : "0x698ee0b9d1dea3ca290dd788630b4ea416cad7d47d2abdb00447ba33c3f23364",
                        "to" : "",
                        "v" : "0x1b",
                        "value" : "0x00"
                    }
                ],
                "uncleHeaders" : [
                ]
            }
        ],
        "genesisBlockHeader" : {
            "bloom" : "0x00000000000000000000000000000000000000000000000000000000000000000000000000000000000000000000000000000000000000000000000000000000000000000000000000000000000000000000000000000000000000000000000000000000000000000000000000000000000000000000000000000000000000000000000000000000000000000000000000000000000000000000000000000000000000000000000000000000000000000000000000000000000000000000000000000000000000000000000000000000000000000000000000000000000000000000000000000000000000000000000000000000000000000000000000000000",
            "coinbase" : "0x2adc25665018aa1fe0e6bc666dac8fc2697ff9ba",
            "difficulty" : "0x020000",
            "extraData" : "0x42",
            "gasLimit" : "0x989680",
            "gasUsed" : "0x00",
            "hash" : "0xeb24bb1eab0d8c7752e0184a38ca1b65f115e20801724893ee816875ddce2e97",
            "mixHash" : "0x56e81f171bcc55a6ff8345e692c0f86e5b48e01b996cadc001622fb5e363b421",
            "nonce" : "0x0102030405060708",
            "number" : "0x00",
            "parentHash" : "0x0000000000000000000000000000000000000000000000000000000000000000",
            "receiptTrie" : "0x56e81f171bcc55a6ff8345e692c0f86e5b48e01b996cadc001622fb5e363b421",
            "stateRoot" : "0x19fc38351a22fc05c8add29df0767dc26ab2635d0b4ed11caf7d7cb6fed2ea4d",
            "timestamp" : "0x03b6",
            "transactionsTrie" : "0x56e81f171bcc55a6ff8345e692c0f86e5b48e01b996cadc001622fb5e363b421",
            "uncleHash" : "0x1dcc4de8dec75d7aab85b567b6ccd41ad312451b948a7413f0a142fd40d49347"
        },
        "genesisRLP" : "0xf901faf901f5a00000000000000000000000000000000000000000000000000000000000000000a01dcc4de8dec75d7aab85b567b6ccd41ad312451b948a7413f0a142fd40d49347942adc25665018aa1fe0e6bc666dac8fc2697ff9baa019fc38351a22fc05c8add29df0767dc26ab2635d0b4ed11caf7d7cb6fed2ea4da056e81f171bcc55a6ff8345e692c0f86e5b48e01b996cadc001622fb5e363b421a056e81f171bcc55a6ff8345e692c0f86e5b48e01b996cadc001622fb5e363b421b9010000000000000000000000000000000000000000000000000000000000000000000000000000000000000000000000000000000000000000000000000000000000000000000000000000000000000000000000000000000000000000000000000000000000000000000000000000000000000000000000000000000000000000000000000000000000000000000000000000000000000000000000000000000000000000000000000000000000000000000000000000000000000000000000000000000000000000000000000000000000000000000000000000000000000000000000000000000000000000000000000000000000000000000000000000000000830200008083989680808203b642a056e81f171bcc55a6ff8345e692c0f86e5b48e01b996cadc001622fb5e363b421880102030405060708c0c0",
        "lastblockhash" : "0x5b39085ff02a03bfa2862106ea914a5acfcbd58da823a52cf38f1e5c7c491425",
        "network" : "Byzantium",
        "postState" : {
            "0x2adc25665018aa1fe0e6bc666dac8fc2697ff9ba" : {
                "balance" : "0x29a2241af62d1e42",
                "code" : "",
                "nonce" : "0x00",
                "storage" : {
                }
            },
            "0x6295ee1b4f6dd65047762f924ecd367c17eabf8f" : {
                "balance" : "0x00",
                "code" : "",
                "nonce" : "0x01",
                "storage" : {
                    "0x00" : "0xff"
                }
            },
            "0xa94f5374fce5edbc8e2a8697c15331677e6ebf0b" : {
                "balance" : "0x174875c9be",
                "code" : "",
                "nonce" : "0x01",
                "storage" : {
                }
            }
        },
        "pre" : {
            "0xa94f5374fce5edbc8e2a8697c15331677e6ebf0b" : {
                "balance" : "0x174876e800",
                "code" : "",
                "nonce" : "0x00",
                "storage" : {
                }
            }
        },
        "sealEngine" : "NoProof"
    },
    "CREATE_ContractSSTOREDuringInit_d0g0v0_Constantinople" : {
        "_info" : {
            "comment" : "",
            "filledwith" : "testeth 1.5.0.dev2-52+commit.d419e0a2",
            "lllcversion" : "Version: 0.4.26-develop.2018.9.19+commit.785cbf40.Linux.g++",
            "source" : "src/BlockchainTestsFiller/GeneralStateTests/stCreateTest/CREATE_ContractSSTOREDuringInit_d0g0v0Filler.json",
            "sourceHash" : "b9a82df49be5f0f1edac7471e8cd63fb1ab55cc905a159404d63dece48114d8c"
        },
        "blocks" : [
            {
                "blockHeader" : {
                    "bloom" : "0x00000000000000000000000000000000000000000000000000000000000000000000000000000000000000000000000000000000000000000000000000000000000000000000000000000000000000000000000000000000000000000000000000000000000000000000000000000000000000000000000000000000000000000000000000000000000000000000000000000000000000000000000000000000000000000000000000000000000000000000000000000000000000000000000000000000000000000000000000000000000000000000000000000000000000000000000000000000000000000000000000000000000000000000000000000000",
                    "coinbase" : "0x2adc25665018aa1fe0e6bc666dac8fc2697ff9ba",
                    "difficulty" : "0x020000",
                    "extraData" : "",
                    "gasLimit" : "0x989680",
                    "gasUsed" : "0x011e42",
                    "hash" : "0x30419ad456d6a80c004078d9dfffb52172c13ddbf5455f5a90200009469e445a",
                    "mixHash" : "0x0000000000000000000000000000000000000000000000000000000000000000",
                    "nonce" : "0x0000000000000000",
                    "number" : "0x01",
                    "parentHash" : "0xeb24bb1eab0d8c7752e0184a38ca1b65f115e20801724893ee816875ddce2e97",
                    "receiptTrie" : "0xecfd971e868a33e9302ce2bd60c55724320afc3473ed5c903c0ee862427b6329",
                    "stateRoot" : "0x2cfb254ef3c589b4c0af4da7fb45c785fe14e4f946fdaf013303fb215f4eb7f6",
                    "timestamp" : "0x03e8",
                    "transactionsTrie" : "0xf7de684b011341d75d5a2f0312527b5c7b07598e98b2cd3d36948581c4899199",
                    "uncleHash" : "0x1dcc4de8dec75d7aab85b567b6ccd41ad312451b948a7413f0a142fd40d49347"
                },
                "rlp" : "0xf90251f901f8a0eb24bb1eab0d8c7752e0184a38ca1b65f115e20801724893ee816875ddce2e97a01dcc4de8dec75d7aab85b567b6ccd41ad312451b948a7413f0a142fd40d49347942adc25665018aa1fe0e6bc666dac8fc2697ff9baa02cfb254ef3c589b4c0af4da7fb45c785fe14e4f946fdaf013303fb215f4eb7f6a0f7de684b011341d75d5a2f0312527b5c7b07598e98b2cd3d36948581c4899199a0ecfd971e868a33e9302ce2bd60c55724320afc3473ed5c903c0ee862427b6329b901000000000000000000000000000000000000000000000000000000000000000000000000000000000000000000000000000000000000000000000000000000000000000000000000000000000000000000000000000000000000000000000000000000000000000000000000000000000000000000000000000000000000000000000000000000000000000000000000000000000000000000000000000000000000000000000000000000000000000000000000000000000000000000000000000000000000000000000000000000000000000000000000000000000000000000000000000000000000000000000000000000000000000000000000000000000083020000018398968083011e428203e880a00000000000000000000000000000000000000000000000000000000000000000880000000000000000f853f8518001830249f080808560ff6000551ba05c46a071f9398a3d56ef96e84ee19c9c9f5d9bd12f344d96d95cd982c6a37d85a0698ee0b9d1dea3ca290dd788630b4ea416cad7d47d2abdb00447ba33c3f23364c0",
                "transactions" : [
                    {
                        "data" : "0x60ff600055",
                        "gasLimit" : "0x0249f0",
                        "gasPrice" : "0x01",
                        "nonce" : "0x00",
                        "r" : "0x5c46a071f9398a3d56ef96e84ee19c9c9f5d9bd12f344d96d95cd982c6a37d85",
                        "s" : "0x698ee0b9d1dea3ca290dd788630b4ea416cad7d47d2abdb00447ba33c3f23364",
                        "to" : "",
                        "v" : "0x1b",
                        "value" : "0x00"
                    }
                ],
                "uncleHeaders" : [
                ]
            }
        ],
        "genesisBlockHeader" : {
            "bloom" : "0x00000000000000000000000000000000000000000000000000000000000000000000000000000000000000000000000000000000000000000000000000000000000000000000000000000000000000000000000000000000000000000000000000000000000000000000000000000000000000000000000000000000000000000000000000000000000000000000000000000000000000000000000000000000000000000000000000000000000000000000000000000000000000000000000000000000000000000000000000000000000000000000000000000000000000000000000000000000000000000000000000000000000000000000000000000000",
            "coinbase" : "0x2adc25665018aa1fe0e6bc666dac8fc2697ff9ba",
            "difficulty" : "0x020000",
            "extraData" : "0x42",
            "gasLimit" : "0x989680",
            "gasUsed" : "0x00",
            "hash" : "0xeb24bb1eab0d8c7752e0184a38ca1b65f115e20801724893ee816875ddce2e97",
            "mixHash" : "0x56e81f171bcc55a6ff8345e692c0f86e5b48e01b996cadc001622fb5e363b421",
            "nonce" : "0x0102030405060708",
            "number" : "0x00",
            "parentHash" : "0x0000000000000000000000000000000000000000000000000000000000000000",
            "receiptTrie" : "0x56e81f171bcc55a6ff8345e692c0f86e5b48e01b996cadc001622fb5e363b421",
            "stateRoot" : "0x19fc38351a22fc05c8add29df0767dc26ab2635d0b4ed11caf7d7cb6fed2ea4d",
            "timestamp" : "0x03b6",
            "transactionsTrie" : "0x56e81f171bcc55a6ff8345e692c0f86e5b48e01b996cadc001622fb5e363b421",
            "uncleHash" : "0x1dcc4de8dec75d7aab85b567b6ccd41ad312451b948a7413f0a142fd40d49347"
        },
        "genesisRLP" : "0xf901faf901f5a00000000000000000000000000000000000000000000000000000000000000000a01dcc4de8dec75d7aab85b567b6ccd41ad312451b948a7413f0a142fd40d49347942adc25665018aa1fe0e6bc666dac8fc2697ff9baa019fc38351a22fc05c8add29df0767dc26ab2635d0b4ed11caf7d7cb6fed2ea4da056e81f171bcc55a6ff8345e692c0f86e5b48e01b996cadc001622fb5e363b421a056e81f171bcc55a6ff8345e692c0f86e5b48e01b996cadc001622fb5e363b421b9010000000000000000000000000000000000000000000000000000000000000000000000000000000000000000000000000000000000000000000000000000000000000000000000000000000000000000000000000000000000000000000000000000000000000000000000000000000000000000000000000000000000000000000000000000000000000000000000000000000000000000000000000000000000000000000000000000000000000000000000000000000000000000000000000000000000000000000000000000000000000000000000000000000000000000000000000000000000000000000000000000000000000000000000000000000000830200008083989680808203b642a056e81f171bcc55a6ff8345e692c0f86e5b48e01b996cadc001622fb5e363b421880102030405060708c0c0",
        "lastblockhash" : "0x30419ad456d6a80c004078d9dfffb52172c13ddbf5455f5a90200009469e445a",
        "network" : "Constantinople",
        "postState" : {
            "0x2adc25665018aa1fe0e6bc666dac8fc2697ff9ba" : {
                "balance" : "0x1bc16d674ec91e42",
                "code" : "",
                "nonce" : "0x00",
                "storage" : {
                }
            },
            "0x6295ee1b4f6dd65047762f924ecd367c17eabf8f" : {
                "balance" : "0x00",
                "code" : "",
                "nonce" : "0x01",
                "storage" : {
                    "0x00" : "0xff"
                }
            },
            "0xa94f5374fce5edbc8e2a8697c15331677e6ebf0b" : {
                "balance" : "0x174875c9be",
                "code" : "",
                "nonce" : "0x01",
                "storage" : {
                }
            }
        },
        "pre" : {
            "0xa94f5374fce5edbc8e2a8697c15331677e6ebf0b" : {
                "balance" : "0x174876e800",
                "code" : "",
                "nonce" : "0x00",
                "storage" : {
                }
            }
        },
        "sealEngine" : "NoProof"
    }
}