{
    "CREATE_AcreateB_BSuicide_BStore_d0g0v0_Byzantium" : {
        "_info" : {
            "comment" : "",
            "filledwith" : "testeth 1.5.0.dev2-52+commit.d419e0a2",
            "lllcversion" : "Version: 0.4.26-develop.2018.9.19+commit.785cbf40.Linux.g++",
            "source" : "src/BlockchainTestsFiller/GeneralStateTests/stCreateTest/CREATE_AcreateB_BSuicide_BStore_d0g0v0Filler.json",
            "sourceHash" : "744ea8ed086e68f26b07702999821d8dafe9de96e0696a9fd664e34e0fb7d061"
        },
        "blocks" : [
            {
                "blockHeader" : {
                    "bloom" : "0x00000000000000000000000000000000000000000000000000000000000000000000000000000000000000000000000000000000000000000000000000000000000000000000000000000000000000000000000000000000000000000000000000000000000000000000000000000000000000000000000000000000000000000000000000000000000000000000000000000000000000000000000000000000000000000000000000000000000000000000000000000000000000000000000000000000000000000000000000000000000000000000000000000000000000000000000000000000000000000000000000000000000000000000000000000000",
                    "coinbase" : "0x2adc25665018aa1fe0e6bc666dac8fc2697ff9ba",
                    "difficulty" : "0x020000",
                    "extraData" : "",
                    "gasLimit" : "0x989680",
                    "gasUsed" : "0x0216c6",
                    "hash" : "0xd64fa78f661b9c4ccc04adc2854ea12c3575184fcaf235807b4ea751edf697c7",
                    "mixHash" : "0x0000000000000000000000000000000000000000000000000000000000000000",
                    "nonce" : "0x0000000000000000",
                    "number" : "0x01",
                    "parentHash" : "0xd8f8bac8f9db45740b174a8ad52ad40e4fc608c844ae4fa8b35dde6c4bb0db27",
                    "receiptTrie" : "0xd673c51e1572e83676852c95f03298a2362413876c090b4c4a9895c031c00e9a",
                    "stateRoot" : "0x129c584c9079b1ddb019752b050454fda2aeb09872ce581273d3ad9cdfd98374",
                    "timestamp" : "0x03e8",
                    "transactionsTrie" : "0x81ad0f293bbbdad8b96a977a265021ce8eb0c23ff57f1011eb70212eadb41431",
                    "uncleHash" : "0x1dcc4de8dec75d7aab85b567b6ccd41ad312451b948a7413f0a142fd40d49347"
                },
                "rlp" : "0xf90264f901f8a0d8f8bac8f9db45740b174a8ad52ad40e4fc608c844ae4fa8b35dde6c4bb0db27a01dcc4de8dec75d7aab85b567b6ccd41ad312451b948a7413f0a142fd40d49347942adc25665018aa1fe0e6bc666dac8fc2697ff9baa0129c584c9079b1ddb019752b050454fda2aeb09872ce581273d3ad9cdfd98374a081ad0f293bbbdad8b96a977a265021ce8eb0c23ff57f1011eb70212eadb41431a0d673c51e1572e83676852c95f03298a2362413876c090b4c4a9895c031c00e9ab9010000000000000000000000000000000000000000000000000000000000000000000000000000000000000000000000000000000000000000000000000000000000000000000000000000000000000000000000000000000000000000000000000000000000000000000000000000000000000000000000000000000000000000000000000000000000000000000000000000000000000000000000000000000000000000000000000000000000000000000000000000000000000000000000000000000000000000000000000000000000000000000000000000000000000000000000000000000000000000000000000000000000000000000000000000000000830200000183989680830216c68203e880a00000000000000000000000000000000000000000000000000000000000000000880000000000000000f866f8648001830927c094b94f5374fce5edbc8e2a8697c15331677e6ebf0b8084c04062261ba0d4381c6e085035a8798ee92e57777582ba84c7e7ffd58cab345538b4d8165664a0475c18fa38480718a0b67621fb2323ee64ed7a0e3cecf5f5581f569ab00ba41ec0",
                "transactions" : [
                    {
                        "data" : "0xc0406226",
                        "gasLimit" : "0x0927c0",
                        "gasPrice" : "0x01",
                        "nonce" : "0x00",
                        "r" : "0xd4381c6e085035a8798ee92e57777582ba84c7e7ffd58cab345538b4d8165664",
                        "s" : "0x475c18fa38480718a0b67621fb2323ee64ed7a0e3cecf5f5581f569ab00ba41e",
                        "to" : "0xb94f5374fce5edbc8e2a8697c15331677e6ebf0b",
                        "v" : "0x1b",
                        "value" : "0x00"
                    }
                ],
                "uncleHeaders" : [
                ]
            }
        ],
        "genesisBlockHeader" : {
            "bloom" : "0x00000000000000000000000000000000000000000000000000000000000000000000000000000000000000000000000000000000000000000000000000000000000000000000000000000000000000000000000000000000000000000000000000000000000000000000000000000000000000000000000000000000000000000000000000000000000000000000000000000000000000000000000000000000000000000000000000000000000000000000000000000000000000000000000000000000000000000000000000000000000000000000000000000000000000000000000000000000000000000000000000000000000000000000000000000000",
            "coinbase" : "0x2adc25665018aa1fe0e6bc666dac8fc2697ff9ba",
            "difficulty" : "0x020000",
            "extraData" : "0x42",
            "gasLimit" : "0x989680",
            "gasUsed" : "0x00",
            "hash" : "0xd8f8bac8f9db45740b174a8ad52ad40e4fc608c844ae4fa8b35dde6c4bb0db27",
            "mixHash" : "0x56e81f171bcc55a6ff8345e692c0f86e5b48e01b996cadc001622fb5e363b421",
            "nonce" : "0x0102030405060708",
            "number" : "0x00",
            "parentHash" : "0x0000000000000000000000000000000000000000000000000000000000000000",
            "receiptTrie" : "0x56e81f171bcc55a6ff8345e692c0f86e5b48e01b996cadc001622fb5e363b421",
            "stateRoot" : "0x16a9e12ff192097b3be5177731211aaa10145474731be2f109806ca5ee8debe1",
            "timestamp" : "0x03b6",
            "transactionsTrie" : "0x56e81f171bcc55a6ff8345e692c0f86e5b48e01b996cadc001622fb5e363b421",
            "uncleHash" : "0x1dcc4de8dec75d7aab85b567b6ccd41ad312451b948a7413f0a142fd40d49347"
        },
        "genesisRLP" : "0xf901faf901f5a00000000000000000000000000000000000000000000000000000000000000000a01dcc4de8dec75d7aab85b567b6ccd41ad312451b948a7413f0a142fd40d49347942adc25665018aa1fe0e6bc666dac8fc2697ff9baa016a9e12ff192097b3be5177731211aaa10145474731be2f109806ca5ee8debe1a056e81f171bcc55a6ff8345e692c0f86e5b48e01b996cadc001622fb5e363b421a056e81f171bcc55a6ff8345e692c0f86e5b48e01b996cadc001622fb5e363b421b9010000000000000000000000000000000000000000000000000000000000000000000000000000000000000000000000000000000000000000000000000000000000000000000000000000000000000000000000000000000000000000000000000000000000000000000000000000000000000000000000000000000000000000000000000000000000000000000000000000000000000000000000000000000000000000000000000000000000000000000000000000000000000000000000000000000000000000000000000000000000000000000000000000000000000000000000000000000000000000000000000000000000000000000000000000000000830200008083989680808203b642a056e81f171bcc55a6ff8345e692c0f86e5b48e01b996cadc001622fb5e363b421880102030405060708c0c0",
        "lastblockhash" : "0xd64fa78f661b9c4ccc04adc2854ea12c3575184fcaf235807b4ea751edf697c7",
        "network" : "Byzantium",
        "postState" : {
            "0x1000000000000000000000000000000000000000" : {
                "balance" : "0x01",
                "code" : "",
                "nonce" : "0x00",
                "storage" : {
                }
            },
            "0x2adc25665018aa1fe0e6bc666dac8fc2697ff9ba" : {
                "balance" : "0x29a2241af62e16c6",
                "code" : "",
                "nonce" : "0x00",
                "storage" : {
                }
            },
            "0xa94f5374fce5edbc8e2a8697c15331677e6ebf0b" : {
                "balance" : "0xe8d4a2f93a",
                "code" : "",
                "nonce" : "0x01",
                "storage" : {
                }
            },
            "0xb94f5374fce5edbc8e2a8697c15331677e6ebf0b" : {
                "balance" : "0xe8d4a51000",
                "code" : "0x60606040526000357c010000000000000000000000000000000000000000000000000000000090048063c04062261461003c57610037565b610002565b346100025761004e6004805050610050565b005b600060405160c9806101d3833901809050604051809103906000f080156100025790508073ffffffffffffffffffffffffffffffffffffffff166369bda7aa604051817c0100000000000000000000000000000000000000000000000000000000028152600401809050600060405180830381600087803b156100025760325a03f115610002575050508073ffffffffffffffffffffffffffffffffffffffff16633ac6dff3604051817c0100000000000000000000000000000000000000000000000000000000028152600401809050600060405180830381600087803b156100025760325a03f115610002575050508073ffffffffffffffffffffffffffffffffffffffff16636f118b2b600060405160200152604051817c0100000000000000000000000000000000000000000000000000000000028152600401809050602060405180830381600087803b156100025760325a03f115610002575050506040518051906020015060016000508190555060016000600050819055505b5056606060405260b98060106000396000f360606040526000357c0100000000000000000000000000000000000000000000000000000000900480633ac6dff314604d57806369bda7aa14605e5780636f118b2b14606f576049565b6002565b34600257605c60048050506094565b005b34600257606d600480505060a2565b005b34600257607e600480505060a8565b6040518082815260200191505060405180910390f35b600c6000600050819055505b565b6011ff5b565b6000600060005054905060b6565b9056",
                "nonce" : "0x01",
                "storage" : {
                    "0x00" : "0x01",
                    "0x01" : "0x0c"
                }
            }
        },
        "pre" : {
            "0x1000000000000000000000000000000000000000" : {
                "balance" : "0x01",
                "code" : "",
                "nonce" : "0x00",
                "storage" : {
                }
            },
            "0xa94f5374fce5edbc8e2a8697c15331677e6ebf0b" : {
                "balance" : "0xe8d4a51000",
                "code" : "",
                "nonce" : "0x00",
                "storage" : {
                }
            },
            "0xb94f5374fce5edbc8e2a8697c15331677e6ebf0b" : {
                "balance" : "0xe8d4a51000",
                "code" : "0x60606040526000357c010000000000000000000000000000000000000000000000000000000090048063c04062261461003c57610037565b610002565b346100025761004e6004805050610050565b005b600060405160c9806101d3833901809050604051809103906000f080156100025790508073ffffffffffffffffffffffffffffffffffffffff166369bda7aa604051817c0100000000000000000000000000000000000000000000000000000000028152600401809050600060405180830381600087803b156100025760325a03f115610002575050508073ffffffffffffffffffffffffffffffffffffffff16633ac6dff3604051817c0100000000000000000000000000000000000000000000000000000000028152600401809050600060405180830381600087803b156100025760325a03f115610002575050508073ffffffffffffffffffffffffffffffffffffffff16636f118b2b600060405160200152604051817c0100000000000000000000000000000000000000000000000000000000028152600401809050602060405180830381600087803b156100025760325a03f115610002575050506040518051906020015060016000508190555060016000600050819055505b5056606060405260b98060106000396000f360606040526000357c0100000000000000000000000000000000000000000000000000000000900480633ac6dff314604d57806369bda7aa14605e5780636f118b2b14606f576049565b6002565b34600257605c60048050506094565b005b34600257606d600480505060a2565b005b34600257607e600480505060a8565b6040518082815260200191505060405180910390f35b600c6000600050819055505b565b6011ff5b565b6000600060005054905060b6565b9056",
                "nonce" : "0x00",
                "storage" : {
                }
            }
        },
        "sealEngine" : "NoProof"
    },
    "CREATE_AcreateB_BSuicide_BStore_d0g0v0_Constantinople" : {
        "_info" : {
            "comment" : "",
            "filledwith" : "testeth 1.5.0.dev2-52+commit.d419e0a2",
            "lllcversion" : "Version: 0.4.26-develop.2018.9.19+commit.785cbf40.Linux.g++",
            "source" : "src/BlockchainTestsFiller/GeneralStateTests/stCreateTest/CREATE_AcreateB_BSuicide_BStore_d0g0v0Filler.json",
            "sourceHash" : "744ea8ed086e68f26b07702999821d8dafe9de96e0696a9fd664e34e0fb7d061"
        },
        "blocks" : [
            {
                "blockHeader" : {
                    "bloom" : "0x00000000000000000000000000000000000000000000000000000000000000000000000000000000000000000000000000000000000000000000000000000000000000000000000000000000000000000000000000000000000000000000000000000000000000000000000000000000000000000000000000000000000000000000000000000000000000000000000000000000000000000000000000000000000000000000000000000000000000000000000000000000000000000000000000000000000000000000000000000000000000000000000000000000000000000000000000000000000000000000000000000000000000000000000000000000",
                    "coinbase" : "0x2adc25665018aa1fe0e6bc666dac8fc2697ff9ba",
                    "difficulty" : "0x020000",
                    "extraData" : "",
                    "gasLimit" : "0x989680",
                    "gasUsed" : "0x0216c6",
                    "hash" : "0x37766334ec6f3179ea7e41c9cd9f26ca2debed01f5e4d2ea8c7a543e48c5036b",
                    "mixHash" : "0x0000000000000000000000000000000000000000000000000000000000000000",
                    "nonce" : "0x0000000000000000",
                    "number" : "0x01",
                    "parentHash" : "0xd8f8bac8f9db45740b174a8ad52ad40e4fc608c844ae4fa8b35dde6c4bb0db27",
                    "receiptTrie" : "0xd673c51e1572e83676852c95f03298a2362413876c090b4c4a9895c031c00e9a",
                    "stateRoot" : "0x97137a762ec41076e36efbcad90ecce71d34a738408140ae74eff9892ae47e16",
                    "timestamp" : "0x03e8",
                    "transactionsTrie" : "0x81ad0f293bbbdad8b96a977a265021ce8eb0c23ff57f1011eb70212eadb41431",
                    "uncleHash" : "0x1dcc4de8dec75d7aab85b567b6ccd41ad312451b948a7413f0a142fd40d49347"
                },
                "rlp" : "0xf90264f901f8a0d8f8bac8f9db45740b174a8ad52ad40e4fc608c844ae4fa8b35dde6c4bb0db27a01dcc4de8dec75d7aab85b567b6ccd41ad312451b948a7413f0a142fd40d49347942adc25665018aa1fe0e6bc666dac8fc2697ff9baa097137a762ec41076e36efbcad90ecce71d34a738408140ae74eff9892ae47e16a081ad0f293bbbdad8b96a977a265021ce8eb0c23ff57f1011eb70212eadb41431a0d673c51e1572e83676852c95f03298a2362413876c090b4c4a9895c031c00e9ab9010000000000000000000000000000000000000000000000000000000000000000000000000000000000000000000000000000000000000000000000000000000000000000000000000000000000000000000000000000000000000000000000000000000000000000000000000000000000000000000000000000000000000000000000000000000000000000000000000000000000000000000000000000000000000000000000000000000000000000000000000000000000000000000000000000000000000000000000000000000000000000000000000000000000000000000000000000000000000000000000000000000000000000000000000000000000830200000183989680830216c68203e880a00000000000000000000000000000000000000000000000000000000000000000880000000000000000f866f8648001830927c094b94f5374fce5edbc8e2a8697c15331677e6ebf0b8084c04062261ba0d4381c6e085035a8798ee92e57777582ba84c7e7ffd58cab345538b4d8165664a0475c18fa38480718a0b67621fb2323ee64ed7a0e3cecf5f5581f569ab00ba41ec0",
                "transactions" : [
                    {
                        "data" : "0xc0406226",
                        "gasLimit" : "0x0927c0",
                        "gasPrice" : "0x01",
                        "nonce" : "0x00",
                        "r" : "0xd4381c6e085035a8798ee92e57777582ba84c7e7ffd58cab345538b4d8165664",
                        "s" : "0x475c18fa38480718a0b67621fb2323ee64ed7a0e3cecf5f5581f569ab00ba41e",
                        "to" : "0xb94f5374fce5edbc8e2a8697c15331677e6ebf0b",
                        "v" : "0x1b",
                        "value" : "0x00"
                    }
                ],
                "uncleHeaders" : [
                ]
            }
        ],
        "genesisBlockHeader" : {
            "bloom" : "0x00000000000000000000000000000000000000000000000000000000000000000000000000000000000000000000000000000000000000000000000000000000000000000000000000000000000000000000000000000000000000000000000000000000000000000000000000000000000000000000000000000000000000000000000000000000000000000000000000000000000000000000000000000000000000000000000000000000000000000000000000000000000000000000000000000000000000000000000000000000000000000000000000000000000000000000000000000000000000000000000000000000000000000000000000000000",
            "coinbase" : "0x2adc25665018aa1fe0e6bc666dac8fc2697ff9ba",
            "difficulty" : "0x020000",
            "extraData" : "0x42",
            "gasLimit" : "0x989680",
            "gasUsed" : "0x00",
            "hash" : "0xd8f8bac8f9db45740b174a8ad52ad40e4fc608c844ae4fa8b35dde6c4bb0db27",
            "mixHash" : "0x56e81f171bcc55a6ff8345e692c0f86e5b48e01b996cadc001622fb5e363b421",
            "nonce" : "0x0102030405060708",
            "number" : "0x00",
            "parentHash" : "0x0000000000000000000000000000000000000000000000000000000000000000",
            "receiptTrie" : "0x56e81f171bcc55a6ff8345e692c0f86e5b48e01b996cadc001622fb5e363b421",
            "stateRoot" : "0x16a9e12ff192097b3be5177731211aaa10145474731be2f109806ca5ee8debe1",
            "timestamp" : "0x03b6",
            "transactionsTrie" : "0x56e81f171bcc55a6ff8345e692c0f86e5b48e01b996cadc001622fb5e363b421",
            "uncleHash" : "0x1dcc4de8dec75d7aab85b567b6ccd41ad312451b948a7413f0a142fd40d49347"
        },
        "genesisRLP" : "0xf901faf901f5a00000000000000000000000000000000000000000000000000000000000000000a01dcc4de8dec75d7aab85b567b6ccd41ad312451b948a7413f0a142fd40d49347942adc25665018aa1fe0e6bc666dac8fc2697ff9baa016a9e12ff192097b3be5177731211aaa10145474731be2f109806ca5ee8debe1a056e81f171bcc55a6ff8345e692c0f86e5b48e01b996cadc001622fb5e363b421a056e81f171bcc55a6ff8345e692c0f86e5b48e01b996cadc001622fb5e363b421b9010000000000000000000000000000000000000000000000000000000000000000000000000000000000000000000000000000000000000000000000000000000000000000000000000000000000000000000000000000000000000000000000000000000000000000000000000000000000000000000000000000000000000000000000000000000000000000000000000000000000000000000000000000000000000000000000000000000000000000000000000000000000000000000000000000000000000000000000000000000000000000000000000000000000000000000000000000000000000000000000000000000000000000000000000000000000830200008083989680808203b642a056e81f171bcc55a6ff8345e692c0f86e5b48e01b996cadc001622fb5e363b421880102030405060708c0c0",
        "lastblockhash" : "0x37766334ec6f3179ea7e41c9cd9f26ca2debed01f5e4d2ea8c7a543e48c5036b",
        "network" : "Constantinople",
        "postState" : {
            "0x1000000000000000000000000000000000000000" : {
                "balance" : "0x01",
                "code" : "",
                "nonce" : "0x00",
                "storage" : {
                }
            },
            "0x2adc25665018aa1fe0e6bc666dac8fc2697ff9ba" : {
                "balance" : "0x1bc16d674eca16c6",
                "code" : "",
                "nonce" : "0x00",
                "storage" : {
                }
            },
            "0xa94f5374fce5edbc8e2a8697c15331677e6ebf0b" : {
                "balance" : "0xe8d4a2f93a",
                "code" : "",
                "nonce" : "0x01",
                "storage" : {
                }
            },
            "0xb94f5374fce5edbc8e2a8697c15331677e6ebf0b" : {
                "balance" : "0xe8d4a51000",
                "code" : "0x60606040526000357c010000000000000000000000000000000000000000000000000000000090048063c04062261461003c57610037565b610002565b346100025761004e6004805050610050565b005b600060405160c9806101d3833901809050604051809103906000f080156100025790508073ffffffffffffffffffffffffffffffffffffffff166369bda7aa604051817c0100000000000000000000000000000000000000000000000000000000028152600401809050600060405180830381600087803b156100025760325a03f115610002575050508073ffffffffffffffffffffffffffffffffffffffff16633ac6dff3604051817c0100000000000000000000000000000000000000000000000000000000028152600401809050600060405180830381600087803b156100025760325a03f115610002575050508073ffffffffffffffffffffffffffffffffffffffff16636f118b2b600060405160200152604051817c0100000000000000000000000000000000000000000000000000000000028152600401809050602060405180830381600087803b156100025760325a03f115610002575050506040518051906020015060016000508190555060016000600050819055505b5056606060405260b98060106000396000f360606040526000357c0100000000000000000000000000000000000000000000000000000000900480633ac6dff314604d57806369bda7aa14605e5780636f118b2b14606f576049565b6002565b34600257605c60048050506094565b005b34600257606d600480505060a2565b005b34600257607e600480505060a8565b6040518082815260200191505060405180910390f35b600c6000600050819055505b565b6011ff5b565b6000600060005054905060b6565b9056",
                "nonce" : "0x01",
                "storage" : {
                    "0x00" : "0x01",
                    "0x01" : "0x0c"
                }
            }
        },
        "pre" : {
            "0x1000000000000000000000000000000000000000" : {
                "balance" : "0x01",
                "code" : "",
                "nonce" : "0x00",
                "storage" : {
                }
            },
            "0xa94f5374fce5edbc8e2a8697c15331677e6ebf0b" : {
                "balance" : "0xe8d4a51000",
                "code" : "",
                "nonce" : "0x00",
                "storage" : {
                }
            },
            "0xb94f5374fce5edbc8e2a8697c15331677e6ebf0b" : {
                "balance" : "0xe8d4a51000",
                "code" : "0x60606040526000357c010000000000000000000000000000000000000000000000000000000090048063c04062261461003c57610037565b610002565b346100025761004e6004805050610050565b005b600060405160c9806101d3833901809050604051809103906000f080156100025790508073ffffffffffffffffffffffffffffffffffffffff166369bda7aa604051817c0100000000000000000000000000000000000000000000000000000000028152600401809050600060405180830381600087803b156100025760325a03f115610002575050508073ffffffffffffffffffffffffffffffffffffffff16633ac6dff3604051817c0100000000000000000000000000000000000000000000000000000000028152600401809050600060405180830381600087803b156100025760325a03f115610002575050508073ffffffffffffffffffffffffffffffffffffffff16636f118b2b600060405160200152604051817c0100000000000000000000000000000000000000000000000000000000028152600401809050602060405180830381600087803b156100025760325a03f115610002575050506040518051906020015060016000508190555060016000600050819055505b5056606060405260b98060106000396000f360606040526000357c0100000000000000000000000000000000000000000000000000000000900480633ac6dff314604d57806369bda7aa14605e5780636f118b2b14606f576049565b6002565b34600257605c60048050506094565b005b34600257606d600480505060a2565b005b34600257607e600480505060a8565b6040518082815260200191505060405180910390f35b600c6000600050819055505b565b6011ff5b565b6000600060005054905060b6565b9056",
                "nonce" : "0x00",
                "storage" : {
                }
            }
        },
        "sealEngine" : "NoProof"
    }
}