{
    "RawCallCodeGasValueTransfer_d0g0v0_Byzantium" : {
        "_info" : {
            "comment" : "",
            "filledwith" : "testeth 1.5.0.dev2-52+commit.d419e0a2",
            "lllcversion" : "Version: 0.4.26-develop.2018.9.19+commit.785cbf40.Linux.g++",
            "source" : "src/BlockchainTestsFiller/GeneralStateTests/stEIP150singleCodeGasPrices/RawCallCodeGasValueTransfer_d0g0v0Filler.json",
            "sourceHash" : "aaa68f14a27daf1d362f3de455ed88629c1f576fd14d36c50e8ed40e0315b225"
        },
        "blocks" : [
            {
                "blockHeader" : {
                    "bloom" : "0x00000000000000000000000000000000000000000000000000000000000000000000000000000000000000000000000000000000000000000000000000000000000000000000000000000000000000000000000000000000000000000000000000000000000000000000000000000000000000000000000000000000000000000000000000000000000000000000000000000000000000000000000000000000000000000000000000000000000000000000000000000000000000000000000000000000000000000000000000000000000000000000000000000000000000000000000000000000000000000000000000000000000000000000000000000000",
                    "coinbase" : "0x2adc25665018aa1fe0e6bc666dac8fc2697ff9ba",
                    "difficulty" : "0x020000",
                    "extraData" : "",
                    "gasLimit" : "0x989680",
                    "gasUsed" : "0x015976",
                    "hash" : "0xa19bbad98b10cf8d0d2ab46d25b689410e015e1f1ae5abefbe14bc32bf388a54",
                    "mixHash" : "0x0000000000000000000000000000000000000000000000000000000000000000",
                    "nonce" : "0x0000000000000000",
                    "number" : "0x01",
                    "parentHash" : "0xe294fe38c5597c491d2b3c2a36fa3a9cf5171cafeaa1cf9e3e3474693fbde933",
                    "receiptTrie" : "0x84c3e8bbe2c4a65187ca201df5fafe44303d910bb0ebfa8a336c6c9f6e1681b7",
                    "stateRoot" : "0x66cde166ce0a54e04d417c89cde649e569ad52005956ba14464dc43272870dd0",
                    "timestamp" : "0x03e8",
                    "transactionsTrie" : "0x1384d4af33ac6b019131e808ca5f18a8845fa6b185c9939f71fe44c7fd34e468",
                    "uncleHash" : "0x1dcc4de8dec75d7aab85b567b6ccd41ad312451b948a7413f0a142fd40d49347"
                },
                "rlp" : "0xf90260f901f8a0e294fe38c5597c491d2b3c2a36fa3a9cf5171cafeaa1cf9e3e3474693fbde933a01dcc4de8dec75d7aab85b567b6ccd41ad312451b948a7413f0a142fd40d49347942adc25665018aa1fe0e6bc666dac8fc2697ff9baa066cde166ce0a54e04d417c89cde649e569ad52005956ba14464dc43272870dd0a01384d4af33ac6b019131e808ca5f18a8845fa6b185c9939f71fe44c7fd34e468a084c3e8bbe2c4a65187ca201df5fafe44303d910bb0ebfa8a336c6c9f6e1681b7b9010000000000000000000000000000000000000000000000000000000000000000000000000000000000000000000000000000000000000000000000000000000000000000000000000000000000000000000000000000000000000000000000000000000000000000000000000000000000000000000000000000000000000000000000000000000000000000000000000000000000000000000000000000000000000000000000000000000000000000000000000000000000000000000000000000000000000000000000000000000000000000000000000000000000000000000000000000000000000000000000000000000000000000000000000000000000830200000183989680830159768203e880a00000000000000000000000000000000000000000000000000000000000000000880000000000000000f862f86080018307a12094b94f5374fce5edbc8e2a8697c15331677e6ebf0b0a801ba0b1159810e8fb83901e6b2cfb738fcb6e551c98aa64736c6330fbc349de7cb81ea04a8eadc208134504d2abb1b5845f8b6bcafb3fd9cc53bd055f10c68a42ecd24bc0",
                "transactions" : [
                    {
                        "data" : "0x",
                        "gasLimit" : "0x07a120",
                        "gasPrice" : "0x01",
                        "nonce" : "0x00",
                        "r" : "0xb1159810e8fb83901e6b2cfb738fcb6e551c98aa64736c6330fbc349de7cb81e",
                        "s" : "0x4a8eadc208134504d2abb1b5845f8b6bcafb3fd9cc53bd055f10c68a42ecd24b",
                        "to" : "0xb94f5374fce5edbc8e2a8697c15331677e6ebf0b",
                        "v" : "0x1b",
                        "value" : "0x0a"
                    }
                ],
                "uncleHeaders" : [
                ]
            }
        ],
        "genesisBlockHeader" : {
            "bloom" : "0x00000000000000000000000000000000000000000000000000000000000000000000000000000000000000000000000000000000000000000000000000000000000000000000000000000000000000000000000000000000000000000000000000000000000000000000000000000000000000000000000000000000000000000000000000000000000000000000000000000000000000000000000000000000000000000000000000000000000000000000000000000000000000000000000000000000000000000000000000000000000000000000000000000000000000000000000000000000000000000000000000000000000000000000000000000000",
            "coinbase" : "0x2adc25665018aa1fe0e6bc666dac8fc2697ff9ba",
            "difficulty" : "0x020000",
            "extraData" : "0x42",
            "gasLimit" : "0x989680",
            "gasUsed" : "0x00",
            "hash" : "0xe294fe38c5597c491d2b3c2a36fa3a9cf5171cafeaa1cf9e3e3474693fbde933",
            "mixHash" : "0x56e81f171bcc55a6ff8345e692c0f86e5b48e01b996cadc001622fb5e363b421",
            "nonce" : "0x0102030405060708",
            "number" : "0x00",
            "parentHash" : "0x0000000000000000000000000000000000000000000000000000000000000000",
            "receiptTrie" : "0x56e81f171bcc55a6ff8345e692c0f86e5b48e01b996cadc001622fb5e363b421",
            "stateRoot" : "0x4f7118a2d2a84a6d9435eb2ba879c606848a3316276676a73a3078f336188363",
            "timestamp" : "0x03b6",
            "transactionsTrie" : "0x56e81f171bcc55a6ff8345e692c0f86e5b48e01b996cadc001622fb5e363b421",
            "uncleHash" : "0x1dcc4de8dec75d7aab85b567b6ccd41ad312451b948a7413f0a142fd40d49347"
        },
        "genesisRLP" : "0xf901faf901f5a00000000000000000000000000000000000000000000000000000000000000000a01dcc4de8dec75d7aab85b567b6ccd41ad312451b948a7413f0a142fd40d49347942adc25665018aa1fe0e6bc666dac8fc2697ff9baa04f7118a2d2a84a6d9435eb2ba879c606848a3316276676a73a3078f336188363a056e81f171bcc55a6ff8345e692c0f86e5b48e01b996cadc001622fb5e363b421a056e81f171bcc55a6ff8345e692c0f86e5b48e01b996cadc001622fb5e363b421b9010000000000000000000000000000000000000000000000000000000000000000000000000000000000000000000000000000000000000000000000000000000000000000000000000000000000000000000000000000000000000000000000000000000000000000000000000000000000000000000000000000000000000000000000000000000000000000000000000000000000000000000000000000000000000000000000000000000000000000000000000000000000000000000000000000000000000000000000000000000000000000000000000000000000000000000000000000000000000000000000000000000000000000000000000000000000830200008083989680808203b642a056e81f171bcc55a6ff8345e692c0f86e5b48e01b996cadc001622fb5e363b421880102030405060708c0c0",
        "lastblockhash" : "0xa19bbad98b10cf8d0d2ab46d25b689410e015e1f1ae5abefbe14bc32bf388a54",
        "network" : "Byzantium",
        "postState" : {
            "0x094f5374fce5edbc8e2a8697c15331677e6ebf0b" : {
                "balance" : "0x00",
                "code" : "0x5a600255",
                "nonce" : "0x00",
                "storage" : {
                }
            },
            "0x2adc25665018aa1fe0e6bc666dac8fc2697ff9ba" : {
                "balance" : "0x29a2241af62d5976",
                "code" : "",
                "nonce" : "0x00",
                "storage" : {
                }
            },
            "0xa94f5374fce5edbc8e2a8697c15331677e6ebf0b" : {
                "balance" : "0xe8d4a3b680",
                "code" : "",
                "nonce" : "0x01",
                "storage" : {
                }
            },
            "0xb94f5374fce5edbc8e2a8697c15331677e6ebf0b" : {
                "balance" : "0x0a",
                "code" : "0x5a6000556000600060006000600a73094f5374fce5edbc8e2a8697c15331677e6ebf0b617530f2505a600155",
                "nonce" : "0x00",
                "storage" : {
                    "0x00" : "0x074f16",
                    "0x01" : "0x0695cd",
                    "0x02" : "0x7e2a"
                }
            }
        },
        "pre" : {
            "0x094f5374fce5edbc8e2a8697c15331677e6ebf0b" : {
                "balance" : "0x00",
                "code" : "0x5a600255",
                "nonce" : "0x00",
                "storage" : {
                }
            },
            "0xa94f5374fce5edbc8e2a8697c15331677e6ebf0b" : {
                "balance" : "0xe8d4a51000",
                "code" : "",
                "nonce" : "0x00",
                "storage" : {
                }
            },
            "0xb94f5374fce5edbc8e2a8697c15331677e6ebf0b" : {
                "balance" : "0x00",
                "code" : "0x5a6000556000600060006000600a73094f5374fce5edbc8e2a8697c15331677e6ebf0b617530f2505a600155",
                "nonce" : "0x00",
                "storage" : {
                }
            }
        },
        "sealEngine" : "NoProof"
    },
    "RawCallCodeGasValueTransfer_d0g0v0_Constantinople" : {
        "_info" : {
            "comment" : "",
            "filledwith" : "testeth 1.5.0.dev2-52+commit.d419e0a2",
            "lllcversion" : "Version: 0.4.26-develop.2018.9.19+commit.785cbf40.Linux.g++",
            "source" : "src/BlockchainTestsFiller/GeneralStateTests/stEIP150singleCodeGasPrices/RawCallCodeGasValueTransfer_d0g0v0Filler.json",
            "sourceHash" : "aaa68f14a27daf1d362f3de455ed88629c1f576fd14d36c50e8ed40e0315b225"
        },
        "blocks" : [
            {
                "blockHeader" : {
                    "bloom" : "0x00000000000000000000000000000000000000000000000000000000000000000000000000000000000000000000000000000000000000000000000000000000000000000000000000000000000000000000000000000000000000000000000000000000000000000000000000000000000000000000000000000000000000000000000000000000000000000000000000000000000000000000000000000000000000000000000000000000000000000000000000000000000000000000000000000000000000000000000000000000000000000000000000000000000000000000000000000000000000000000000000000000000000000000000000000000",
                    "coinbase" : "0x2adc25665018aa1fe0e6bc666dac8fc2697ff9ba",
                    "difficulty" : "0x020000",
                    "extraData" : "",
                    "gasLimit" : "0x989680",
                    "gasUsed" : "0x015976",
                    "hash" : "0x1bbdbbbeb124516fe6bfc51275f4419175686a5462f342d2693cefc2de5d2a4c",
                    "mixHash" : "0x0000000000000000000000000000000000000000000000000000000000000000",
                    "nonce" : "0x0000000000000000",
                    "number" : "0x01",
                    "parentHash" : "0xe294fe38c5597c491d2b3c2a36fa3a9cf5171cafeaa1cf9e3e3474693fbde933",
                    "receiptTrie" : "0x84c3e8bbe2c4a65187ca201df5fafe44303d910bb0ebfa8a336c6c9f6e1681b7",
                    "stateRoot" : "0xb8e620d7e92de7db76079042a5b0f090de6bed023541e52c5b2f17fafbd5f53e",
                    "timestamp" : "0x03e8",
                    "transactionsTrie" : "0x1384d4af33ac6b019131e808ca5f18a8845fa6b185c9939f71fe44c7fd34e468",
                    "uncleHash" : "0x1dcc4de8dec75d7aab85b567b6ccd41ad312451b948a7413f0a142fd40d49347"
                },
                "rlp" : "0xf90260f901f8a0e294fe38c5597c491d2b3c2a36fa3a9cf5171cafeaa1cf9e3e3474693fbde933a01dcc4de8dec75d7aab85b567b6ccd41ad312451b948a7413f0a142fd40d49347942adc25665018aa1fe0e6bc666dac8fc2697ff9baa0b8e620d7e92de7db76079042a5b0f090de6bed023541e52c5b2f17fafbd5f53ea01384d4af33ac6b019131e808ca5f18a8845fa6b185c9939f71fe44c7fd34e468a084c3e8bbe2c4a65187ca201df5fafe44303d910bb0ebfa8a336c6c9f6e1681b7b9010000000000000000000000000000000000000000000000000000000000000000000000000000000000000000000000000000000000000000000000000000000000000000000000000000000000000000000000000000000000000000000000000000000000000000000000000000000000000000000000000000000000000000000000000000000000000000000000000000000000000000000000000000000000000000000000000000000000000000000000000000000000000000000000000000000000000000000000000000000000000000000000000000000000000000000000000000000000000000000000000000000000000000000000000000000000830200000183989680830159768203e880a00000000000000000000000000000000000000000000000000000000000000000880000000000000000f862f86080018307a12094b94f5374fce5edbc8e2a8697c15331677e6ebf0b0a801ba0b1159810e8fb83901e6b2cfb738fcb6e551c98aa64736c6330fbc349de7cb81ea04a8eadc208134504d2abb1b5845f8b6bcafb3fd9cc53bd055f10c68a42ecd24bc0",
                "transactions" : [
                    {
                        "data" : "0x",
                        "gasLimit" : "0x07a120",
                        "gasPrice" : "0x01",
                        "nonce" : "0x00",
                        "r" : "0xb1159810e8fb83901e6b2cfb738fcb6e551c98aa64736c6330fbc349de7cb81e",
                        "s" : "0x4a8eadc208134504d2abb1b5845f8b6bcafb3fd9cc53bd055f10c68a42ecd24b",
                        "to" : "0xb94f5374fce5edbc8e2a8697c15331677e6ebf0b",
                        "v" : "0x1b",
                        "value" : "0x0a"
                    }
                ],
                "uncleHeaders" : [
                ]
            }
        ],
        "genesisBlockHeader" : {
            "bloom" : "0x00000000000000000000000000000000000000000000000000000000000000000000000000000000000000000000000000000000000000000000000000000000000000000000000000000000000000000000000000000000000000000000000000000000000000000000000000000000000000000000000000000000000000000000000000000000000000000000000000000000000000000000000000000000000000000000000000000000000000000000000000000000000000000000000000000000000000000000000000000000000000000000000000000000000000000000000000000000000000000000000000000000000000000000000000000000",
            "coinbase" : "0x2adc25665018aa1fe0e6bc666dac8fc2697ff9ba",
            "difficulty" : "0x020000",
            "extraData" : "0x42",
            "gasLimit" : "0x989680",
            "gasUsed" : "0x00",
            "hash" : "0xe294fe38c5597c491d2b3c2a36fa3a9cf5171cafeaa1cf9e3e3474693fbde933",
            "mixHash" : "0x56e81f171bcc55a6ff8345e692c0f86e5b48e01b996cadc001622fb5e363b421",
            "nonce" : "0x0102030405060708",
            "number" : "0x00",
            "parentHash" : "0x0000000000000000000000000000000000000000000000000000000000000000",
            "receiptTrie" : "0x56e81f171bcc55a6ff8345e692c0f86e5b48e01b996cadc001622fb5e363b421",
            "stateRoot" : "0x4f7118a2d2a84a6d9435eb2ba879c606848a3316276676a73a3078f336188363",
            "timestamp" : "0x03b6",
            "transactionsTrie" : "0x56e81f171bcc55a6ff8345e692c0f86e5b48e01b996cadc001622fb5e363b421",
            "uncleHash" : "0x1dcc4de8dec75d7aab85b567b6ccd41ad312451b948a7413f0a142fd40d49347"
        },
        "genesisRLP" : "0xf901faf901f5a00000000000000000000000000000000000000000000000000000000000000000a01dcc4de8dec75d7aab85b567b6ccd41ad312451b948a7413f0a142fd40d49347942adc25665018aa1fe0e6bc666dac8fc2697ff9baa04f7118a2d2a84a6d9435eb2ba879c606848a3316276676a73a3078f336188363a056e81f171bcc55a6ff8345e692c0f86e5b48e01b996cadc001622fb5e363b421a056e81f171bcc55a6ff8345e692c0f86e5b48e01b996cadc001622fb5e363b421b9010000000000000000000000000000000000000000000000000000000000000000000000000000000000000000000000000000000000000000000000000000000000000000000000000000000000000000000000000000000000000000000000000000000000000000000000000000000000000000000000000000000000000000000000000000000000000000000000000000000000000000000000000000000000000000000000000000000000000000000000000000000000000000000000000000000000000000000000000000000000000000000000000000000000000000000000000000000000000000000000000000000000000000000000000000000000830200008083989680808203b642a056e81f171bcc55a6ff8345e692c0f86e5b48e01b996cadc001622fb5e363b421880102030405060708c0c0",
        "lastblockhash" : "0x1bbdbbbeb124516fe6bfc51275f4419175686a5462f342d2693cefc2de5d2a4c",
        "network" : "Constantinople",
        "postState" : {
            "0x094f5374fce5edbc8e2a8697c15331677e6ebf0b" : {
                "balance" : "0x00",
                "code" : "0x5a600255",
                "nonce" : "0x00",
                "storage" : {
                }
            },
            "0x2adc25665018aa1fe0e6bc666dac8fc2697ff9ba" : {
                "balance" : "0x1bc16d674ec95976",
                "code" : "",
                "nonce" : "0x00",
                "storage" : {
                }
            },
            "0xa94f5374fce5edbc8e2a8697c15331677e6ebf0b" : {
                "balance" : "0xe8d4a3b680",
                "code" : "",
                "nonce" : "0x01",
                "storage" : {
                }
            },
            "0xb94f5374fce5edbc8e2a8697c15331677e6ebf0b" : {
                "balance" : "0x0a",
                "code" : "0x5a6000556000600060006000600a73094f5374fce5edbc8e2a8697c15331677e6ebf0b617530f2505a600155",
                "nonce" : "0x00",
                "storage" : {
                    "0x00" : "0x074f16",
                    "0x01" : "0x0695cd",
                    "0x02" : "0x7e2a"
                }
            }
        },
        "pre" : {
            "0x094f5374fce5edbc8e2a8697c15331677e6ebf0b" : {
                "balance" : "0x00",
                "code" : "0x5a600255",
                "nonce" : "0x00",
                "storage" : {
                }
            },
            "0xa94f5374fce5edbc8e2a8697c15331677e6ebf0b" : {
                "balance" : "0xe8d4a51000",
                "code" : "",
                "nonce" : "0x00",
                "storage" : {
                }
            },
            "0xb94f5374fce5edbc8e2a8697c15331677e6ebf0b" : {
                "balance" : "0x00",
                "code" : "0x5a6000556000600060006000600a73094f5374fce5edbc8e2a8697c15331677e6ebf0b617530f2505a600155",
                "nonce" : "0x00",
                "storage" : {
                }
            }
        },
        "sealEngine" : "NoProof"
    }
}