{
    "RevertOpcodeCalls_d0g0v0_Byzantium" : {
        "_info" : {
            "comment" : "",
            "filledwith" : "testeth 1.5.0.dev2-52+commit.d419e0a2",
            "lllcversion" : "Version: 0.4.26-develop.2018.9.19+commit.785cbf40.Linux.g++",
            "source" : "src/BlockchainTestsFiller/GeneralStateTests/stRevertTest/RevertOpcodeCalls_d0g0v0Filler.json",
            "sourceHash" : "23ef63ebcbe1388df5342a30619370fe269326108c0a256f26ef7967c50381a6"
        },
        "blocks" : [
            {
                "blockHeader" : {
                    "bloom" : "0x00000000000000000000000000000000000000000000000000000000000000000000000000000000000000000000000000000000000000000000000000000000000000000000000000000000000000000000000000000000000000000000000000000000000000000000000000000000000000000000000000000000000000000000000000000000000000000000000000000000000000000000000000000000000000000000000000000000000000000000000000000000000000000000000000000000000000000000000000000000000000000000000000000000000000000000000000000000000000000000000000000000000000000000000000000000",
                    "coinbase" : "0x2adc25665018aa1fe0e6bc666dac8fc2697ff9ba",
                    "difficulty" : "0x020000",
                    "extraData" : "",
                    "gasLimit" : "0x989680",
                    "gasUsed" : "0x015af0",
                    "hash" : "0x8b72584c97577b1300d8120541a67ccb052ba7ec6621dce61cf085ce6b1ede9e",
                    "mixHash" : "0x0000000000000000000000000000000000000000000000000000000000000000",
                    "nonce" : "0x0000000000000000",
                    "number" : "0x01",
                    "parentHash" : "0x38977e1e79184382e6a717a34e28ded6ea1405d42aed9bbaeb1c18a3e6e9d9e6",
                    "receiptTrie" : "0x33436383cb56a7f5a4188f48d3121be555242415757fd3ff68f3f6f210d23605",
                    "stateRoot" : "0xf1f256baa7b85b9741c2c2c4e5f8655c21b552ba7e5e374dc0512606f08cd6e4",
                    "timestamp" : "0x03e8",
                    "transactionsTrie" : "0x95a173afb725eb242baebef6b9ccac3a2b2e0e055ecf19618a55dcb992df0a42",
                    "uncleHash" : "0x1dcc4de8dec75d7aab85b567b6ccd41ad312451b948a7413f0a142fd40d49347"
                },
                "rlp" : "0xf90280f901f8a038977e1e79184382e6a717a34e28ded6ea1405d42aed9bbaeb1c18a3e6e9d9e6a01dcc4de8dec75d7aab85b567b6ccd41ad312451b948a7413f0a142fd40d49347942adc25665018aa1fe0e6bc666dac8fc2697ff9baa0f1f256baa7b85b9741c2c2c4e5f8655c21b552ba7e5e374dc0512606f08cd6e4a095a173afb725eb242baebef6b9ccac3a2b2e0e055ecf19618a55dcb992df0a42a033436383cb56a7f5a4188f48d3121be555242415757fd3ff68f3f6f210d23605b901000000000000000000000000000000000000000000000000000000000000000000000000000000000000000000000000000000000000000000000000000000000000000000000000000000000000000000000000000000000000000000000000000000000000000000000000000000000000000000000000000000000000000000000000000000000000000000000000000000000000000000000000000000000000000000000000000000000000000000000000000000000000000000000000000000000000000000000000000000000000000000000000000000000000000000000000000000000000000000000000000000000000000000000000000000000083020000018398968083015af08203e880a00000000000000000000000000000000000000000000000000000000000000000880000000000000000f882f8808001830704e094094f5374fce5edbc8e2a8697c15331677e6ebf0b80a0000000000000000000000000b0005374fce5edbc8e2a8697c15331677e6ebf0b1ba0b8ccd0980dd709091c7ecf93d8a8259e64799d1619bd529282f859340c86574da022964acdfddee066282dfc1bc65e119006220266edbe5b436e0292d168aaa2afc0",
                "transactions" : [
                    {
                        "data" : "0x000000000000000000000000b0005374fce5edbc8e2a8697c15331677e6ebf0b",
                        "gasLimit" : "0x0704e0",
                        "gasPrice" : "0x01",
                        "nonce" : "0x00",
                        "r" : "0xb8ccd0980dd709091c7ecf93d8a8259e64799d1619bd529282f859340c86574d",
                        "s" : "0x22964acdfddee066282dfc1bc65e119006220266edbe5b436e0292d168aaa2af",
                        "to" : "0x094f5374fce5edbc8e2a8697c15331677e6ebf0b",
                        "v" : "0x1b",
                        "value" : "0x00"
                    }
                ],
                "uncleHeaders" : [
                ]
            }
        ],
        "genesisBlockHeader" : {
            "bloom" : "0x00000000000000000000000000000000000000000000000000000000000000000000000000000000000000000000000000000000000000000000000000000000000000000000000000000000000000000000000000000000000000000000000000000000000000000000000000000000000000000000000000000000000000000000000000000000000000000000000000000000000000000000000000000000000000000000000000000000000000000000000000000000000000000000000000000000000000000000000000000000000000000000000000000000000000000000000000000000000000000000000000000000000000000000000000000000",
            "coinbase" : "0x2adc25665018aa1fe0e6bc666dac8fc2697ff9ba",
            "difficulty" : "0x020000",
            "extraData" : "0x42",
            "gasLimit" : "0x989680",
            "gasUsed" : "0x00",
            "hash" : "0x38977e1e79184382e6a717a34e28ded6ea1405d42aed9bbaeb1c18a3e6e9d9e6",
            "mixHash" : "0x56e81f171bcc55a6ff8345e692c0f86e5b48e01b996cadc001622fb5e363b421",
            "nonce" : "0x0102030405060708",
            "number" : "0x00",
            "parentHash" : "0x0000000000000000000000000000000000000000000000000000000000000000",
            "receiptTrie" : "0x56e81f171bcc55a6ff8345e692c0f86e5b48e01b996cadc001622fb5e363b421",
            "stateRoot" : "0xdddf7b46a2741e763850a901213dbe74efaa7e111b32ab61c0c8f0296dad52e3",
            "timestamp" : "0x03b6",
            "transactionsTrie" : "0x56e81f171bcc55a6ff8345e692c0f86e5b48e01b996cadc001622fb5e363b421",
            "uncleHash" : "0x1dcc4de8dec75d7aab85b567b6ccd41ad312451b948a7413f0a142fd40d49347"
        },
        "genesisRLP" : "0xf901faf901f5a00000000000000000000000000000000000000000000000000000000000000000a01dcc4de8dec75d7aab85b567b6ccd41ad312451b948a7413f0a142fd40d49347942adc25665018aa1fe0e6bc666dac8fc2697ff9baa0dddf7b46a2741e763850a901213dbe74efaa7e111b32ab61c0c8f0296dad52e3a056e81f171bcc55a6ff8345e692c0f86e5b48e01b996cadc001622fb5e363b421a056e81f171bcc55a6ff8345e692c0f86e5b48e01b996cadc001622fb5e363b421b9010000000000000000000000000000000000000000000000000000000000000000000000000000000000000000000000000000000000000000000000000000000000000000000000000000000000000000000000000000000000000000000000000000000000000000000000000000000000000000000000000000000000000000000000000000000000000000000000000000000000000000000000000000000000000000000000000000000000000000000000000000000000000000000000000000000000000000000000000000000000000000000000000000000000000000000000000000000000000000000000000000000000000000000000000000000000830200008083989680808203b642a056e81f171bcc55a6ff8345e692c0f86e5b48e01b996cadc001622fb5e363b421880102030405060708c0c0",
        "lastblockhash" : "0x8b72584c97577b1300d8120541a67ccb052ba7ec6621dce61cf085ce6b1ede9e",
        "network" : "Byzantium",
        "postState" : {
            "0x094f5374fce5edbc8e2a8697c15331677e6ebf0b" : {
                "balance" : "0x01",
                "code" : "0x600060006000600060006000356203f7a0f1600a55",
                "nonce" : "0x00",
                "storage" : {
                    "0x0a" : "0x01"
                }
            },
            "0x2adc25665018aa1fe0e6bc666dac8fc2697ff9ba" : {
                "balance" : "0x29a2241af62d5af0",
                "code" : "",
                "nonce" : "0x00",
                "storage" : {
                }
            },
            "0xa94f5374fce5edbc8e2a8697c15331677e6ebf0b" : {
                "balance" : "0xe8d4a3b510",
                "code" : "",
                "nonce" : "0x01",
                "storage" : {
                }
            },
            "0xb0005374fce5edbc8e2a8697c15331677e6ebf0b" : {
                "balance" : "0x01",
                "code" : "0x6000600060006000600073c94f5374fce5edbc8e2a8697c15331677e6ebf0b61c350f1600055600e600255",
                "nonce" : "0x00",
                "storage" : {
                    "0x02" : "0x0e"
                }
            },
            "0xb1005374fce5edbc8e2a8697c15331677e6ebf0b" : {
                "balance" : "0x01",
                "code" : "0x6000600060006000600073c94f5374fce5edbc8e2a8697c15331677e6ebf0b61c350f2600055600e600255",
                "nonce" : "0x00",
                "storage" : {
                }
            },
            "0xb2005374fce5edbc8e2a8697c15331677e6ebf0b" : {
                "balance" : "0x01",
                "code" : "0x600060006000600073c94f5374fce5edbc8e2a8697c15331677e6ebf0b61c350f4600055600e600255",
                "nonce" : "0x00",
                "storage" : {
                }
            },
            "0xb3005374fce5edbc8e2a8697c15331677e6ebf0b" : {
                "balance" : "0x01",
                "code" : "0x6000600060006000600073b3305374fce5edbc8e2a8697c15331677e6ebf0b620186a0f1600055600e600255",
                "nonce" : "0x00",
                "storage" : {
                }
            },
            "0xb3305374fce5edbc8e2a8697c15331677e6ebf0b" : {
                "balance" : "0x01",
                "code" : "0x6000600060006000600073c94f5374fce5edbc8e2a8697c15331677e6ebf0b61c350f1600455600e600555",
                "nonce" : "0x00",
                "storage" : {
                }
            },
            "0xc94f5374fce5edbc8e2a8697c15331677e6ebf0b" : {
                "balance" : "0x01",
                "code" : "0x600c60015560016000fd600d600355",
                "nonce" : "0x00",
                "storage" : {
                }
            }
        },
        "pre" : {
            "0x094f5374fce5edbc8e2a8697c15331677e6ebf0b" : {
                "balance" : "0x01",
                "code" : "0x600060006000600060006000356203f7a0f1600a55",
                "nonce" : "0x00",
                "storage" : {
                }
            },
            "0xa94f5374fce5edbc8e2a8697c15331677e6ebf0b" : {
                "balance" : "0xe8d4a51000",
                "code" : "",
                "nonce" : "0x00",
                "storage" : {
                }
            },
            "0xb0005374fce5edbc8e2a8697c15331677e6ebf0b" : {
                "balance" : "0x01",
                "code" : "0x6000600060006000600073c94f5374fce5edbc8e2a8697c15331677e6ebf0b61c350f1600055600e600255",
                "nonce" : "0x00",
                "storage" : {
                }
            },
            "0xb1005374fce5edbc8e2a8697c15331677e6ebf0b" : {
                "balance" : "0x01",
                "code" : "0x6000600060006000600073c94f5374fce5edbc8e2a8697c15331677e6ebf0b61c350f2600055600e600255",
                "nonce" : "0x00",
                "storage" : {
                }
            },
            "0xb2005374fce5edbc8e2a8697c15331677e6ebf0b" : {
                "balance" : "0x01",
                "code" : "0x600060006000600073c94f5374fce5edbc8e2a8697c15331677e6ebf0b61c350f4600055600e600255",
                "nonce" : "0x00",
                "storage" : {
                }
            },
            "0xb3005374fce5edbc8e2a8697c15331677e6ebf0b" : {
                "balance" : "0x01",
                "code" : "0x6000600060006000600073b3305374fce5edbc8e2a8697c15331677e6ebf0b620186a0f1600055600e600255",
                "nonce" : "0x00",
                "storage" : {
                }
            },
            "0xb3305374fce5edbc8e2a8697c15331677e6ebf0b" : {
                "balance" : "0x01",
                "code" : "0x6000600060006000600073c94f5374fce5edbc8e2a8697c15331677e6ebf0b61c350f1600455600e600555",
                "nonce" : "0x00",
                "storage" : {
                }
            },
            "0xc94f5374fce5edbc8e2a8697c15331677e6ebf0b" : {
                "balance" : "0x01",
                "code" : "0x600c60015560016000fd600d600355",
                "nonce" : "0x00",
                "storage" : {
                }
            }
        },
        "sealEngine" : "NoProof"
    },
    "RevertOpcodeCalls_d0g0v0_Constantinople" : {
        "_info" : {
            "comment" : "",
            "filledwith" : "testeth 1.5.0.dev2-52+commit.d419e0a2",
            "lllcversion" : "Version: 0.4.26-develop.2018.9.19+commit.785cbf40.Linux.g++",
            "source" : "src/BlockchainTestsFiller/GeneralStateTests/stRevertTest/RevertOpcodeCalls_d0g0v0Filler.json",
            "sourceHash" : "23ef63ebcbe1388df5342a30619370fe269326108c0a256f26ef7967c50381a6"
        },
        "blocks" : [
            {
                "blockHeader" : {
                    "bloom" : "0x00000000000000000000000000000000000000000000000000000000000000000000000000000000000000000000000000000000000000000000000000000000000000000000000000000000000000000000000000000000000000000000000000000000000000000000000000000000000000000000000000000000000000000000000000000000000000000000000000000000000000000000000000000000000000000000000000000000000000000000000000000000000000000000000000000000000000000000000000000000000000000000000000000000000000000000000000000000000000000000000000000000000000000000000000000000",
                    "coinbase" : "0x2adc25665018aa1fe0e6bc666dac8fc2697ff9ba",
                    "difficulty" : "0x020000",
                    "extraData" : "",
                    "gasLimit" : "0x989680",
                    "gasUsed" : "0x014830",
                    "hash" : "0xaefcd72aded6b2d6953bf5ffe8f95a75069d2ab38c9f6cdcbf55128fd979641a",
                    "mixHash" : "0x0000000000000000000000000000000000000000000000000000000000000000",
                    "nonce" : "0x0000000000000000",
                    "number" : "0x01",
                    "parentHash" : "0x38977e1e79184382e6a717a34e28ded6ea1405d42aed9bbaeb1c18a3e6e9d9e6",
                    "receiptTrie" : "0x3f260cdf5a77ce51428a7fa3d4dd3ceaa752c736a55c9817f57087856ccf1236",
                    "stateRoot" : "0x71a08593640d41c88db41465369617d4d31f885bc81766122307b5202be745fd",
                    "timestamp" : "0x03e8",
                    "transactionsTrie" : "0x95a173afb725eb242baebef6b9ccac3a2b2e0e055ecf19618a55dcb992df0a42",
                    "uncleHash" : "0x1dcc4de8dec75d7aab85b567b6ccd41ad312451b948a7413f0a142fd40d49347"
                },
                "rlp" : "0xf90280f901f8a038977e1e79184382e6a717a34e28ded6ea1405d42aed9bbaeb1c18a3e6e9d9e6a01dcc4de8dec75d7aab85b567b6ccd41ad312451b948a7413f0a142fd40d49347942adc25665018aa1fe0e6bc666dac8fc2697ff9baa071a08593640d41c88db41465369617d4d31f885bc81766122307b5202be745fda095a173afb725eb242baebef6b9ccac3a2b2e0e055ecf19618a55dcb992df0a42a03f260cdf5a77ce51428a7fa3d4dd3ceaa752c736a55c9817f57087856ccf1236b9010000000000000000000000000000000000000000000000000000000000000000000000000000000000000000000000000000000000000000000000000000000000000000000000000000000000000000000000000000000000000000000000000000000000000000000000000000000000000000000000000000000000000000000000000000000000000000000000000000000000000000000000000000000000000000000000000000000000000000000000000000000000000000000000000000000000000000000000000000000000000000000000000000000000000000000000000000000000000000000000000000000000000000000000000000000000830200000183989680830148308203e880a00000000000000000000000000000000000000000000000000000000000000000880000000000000000f882f8808001830704e094094f5374fce5edbc8e2a8697c15331677e6ebf0b80a0000000000000000000000000b0005374fce5edbc8e2a8697c15331677e6ebf0b1ba0b8ccd0980dd709091c7ecf93d8a8259e64799d1619bd529282f859340c86574da022964acdfddee066282dfc1bc65e119006220266edbe5b436e0292d168aaa2afc0",
                "transactions" : [
                    {
                        "data" : "0x000000000000000000000000b0005374fce5edbc8e2a8697c15331677e6ebf0b",
                        "gasLimit" : "0x0704e0",
                        "gasPrice" : "0x01",
                        "nonce" : "0x00",
                        "r" : "0xb8ccd0980dd709091c7ecf93d8a8259e64799d1619bd529282f859340c86574d",
                        "s" : "0x22964acdfddee066282dfc1bc65e119006220266edbe5b436e0292d168aaa2af",
                        "to" : "0x094f5374fce5edbc8e2a8697c15331677e6ebf0b",
                        "v" : "0x1b",
                        "value" : "0x00"
                    }
                ],
                "uncleHeaders" : [
                ]
            }
        ],
        "genesisBlockHeader" : {
            "bloom" : "0x00000000000000000000000000000000000000000000000000000000000000000000000000000000000000000000000000000000000000000000000000000000000000000000000000000000000000000000000000000000000000000000000000000000000000000000000000000000000000000000000000000000000000000000000000000000000000000000000000000000000000000000000000000000000000000000000000000000000000000000000000000000000000000000000000000000000000000000000000000000000000000000000000000000000000000000000000000000000000000000000000000000000000000000000000000000",
            "coinbase" : "0x2adc25665018aa1fe0e6bc666dac8fc2697ff9ba",
            "difficulty" : "0x020000",
            "extraData" : "0x42",
            "gasLimit" : "0x989680",
            "gasUsed" : "0x00",
            "hash" : "0x38977e1e79184382e6a717a34e28ded6ea1405d42aed9bbaeb1c18a3e6e9d9e6",
            "mixHash" : "0x56e81f171bcc55a6ff8345e692c0f86e5b48e01b996cadc001622fb5e363b421",
            "nonce" : "0x0102030405060708",
            "number" : "0x00",
            "parentHash" : "0x0000000000000000000000000000000000000000000000000000000000000000",
            "receiptTrie" : "0x56e81f171bcc55a6ff8345e692c0f86e5b48e01b996cadc001622fb5e363b421",
            "stateRoot" : "0xdddf7b46a2741e763850a901213dbe74efaa7e111b32ab61c0c8f0296dad52e3",
            "timestamp" : "0x03b6",
            "transactionsTrie" : "0x56e81f171bcc55a6ff8345e692c0f86e5b48e01b996cadc001622fb5e363b421",
            "uncleHash" : "0x1dcc4de8dec75d7aab85b567b6ccd41ad312451b948a7413f0a142fd40d49347"
        },
        "genesisRLP" : "0xf901faf901f5a00000000000000000000000000000000000000000000000000000000000000000a01dcc4de8dec75d7aab85b567b6ccd41ad312451b948a7413f0a142fd40d49347942adc25665018aa1fe0e6bc666dac8fc2697ff9baa0dddf7b46a2741e763850a901213dbe74efaa7e111b32ab61c0c8f0296dad52e3a056e81f171bcc55a6ff8345e692c0f86e5b48e01b996cadc001622fb5e363b421a056e81f171bcc55a6ff8345e692c0f86e5b48e01b996cadc001622fb5e363b421b9010000000000000000000000000000000000000000000000000000000000000000000000000000000000000000000000000000000000000000000000000000000000000000000000000000000000000000000000000000000000000000000000000000000000000000000000000000000000000000000000000000000000000000000000000000000000000000000000000000000000000000000000000000000000000000000000000000000000000000000000000000000000000000000000000000000000000000000000000000000000000000000000000000000000000000000000000000000000000000000000000000000000000000000000000000000000830200008083989680808203b642a056e81f171bcc55a6ff8345e692c0f86e5b48e01b996cadc001622fb5e363b421880102030405060708c0c0",
        "lastblockhash" : "0xaefcd72aded6b2d6953bf5ffe8f95a75069d2ab38c9f6cdcbf55128fd979641a",
        "network" : "Constantinople",
        "postState" : {
            "0x094f5374fce5edbc8e2a8697c15331677e6ebf0b" : {
                "balance" : "0x01",
                "code" : "0x600060006000600060006000356203f7a0f1600a55",
                "nonce" : "0x00",
                "storage" : {
                    "0x0a" : "0x01"
                }
            },
            "0x2adc25665018aa1fe0e6bc666dac8fc2697ff9ba" : {
                "balance" : "0x1bc16d674ec94830",
                "code" : "",
                "nonce" : "0x00",
                "storage" : {
                }
            },
            "0xa94f5374fce5edbc8e2a8697c15331677e6ebf0b" : {
                "balance" : "0xe8d4a3c7d0",
                "code" : "",
                "nonce" : "0x01",
                "storage" : {
                }
            },
            "0xb0005374fce5edbc8e2a8697c15331677e6ebf0b" : {
                "balance" : "0x01",
                "code" : "0x6000600060006000600073c94f5374fce5edbc8e2a8697c15331677e6ebf0b61c350f1600055600e600255",
                "nonce" : "0x00",
                "storage" : {
                    "0x02" : "0x0e"
                }
            },
            "0xb1005374fce5edbc8e2a8697c15331677e6ebf0b" : {
                "balance" : "0x01",
                "code" : "0x6000600060006000600073c94f5374fce5edbc8e2a8697c15331677e6ebf0b61c350f2600055600e600255",
                "nonce" : "0x00",
                "storage" : {
                }
            },
            "0xb2005374fce5edbc8e2a8697c15331677e6ebf0b" : {
                "balance" : "0x01",
                "code" : "0x600060006000600073c94f5374fce5edbc8e2a8697c15331677e6ebf0b61c350f4600055600e600255",
                "nonce" : "0x00",
                "storage" : {
                }
            },
            "0xb3005374fce5edbc8e2a8697c15331677e6ebf0b" : {
                "balance" : "0x01",
                "code" : "0x6000600060006000600073b3305374fce5edbc8e2a8697c15331677e6ebf0b620186a0f1600055600e600255",
                "nonce" : "0x00",
                "storage" : {
                }
            },
            "0xb3305374fce5edbc8e2a8697c15331677e6ebf0b" : {
                "balance" : "0x01",
                "code" : "0x6000600060006000600073c94f5374fce5edbc8e2a8697c15331677e6ebf0b61c350f1600455600e600555",
                "nonce" : "0x00",
                "storage" : {
                }
            },
            "0xc94f5374fce5edbc8e2a8697c15331677e6ebf0b" : {
                "balance" : "0x01",
                "code" : "0x600c60015560016000fd600d600355",
                "nonce" : "0x00",
                "storage" : {
                }
            }
        },
        "pre" : {
            "0x094f5374fce5edbc8e2a8697c15331677e6ebf0b" : {
                "balance" : "0x01",
                "code" : "0x600060006000600060006000356203f7a0f1600a55",
                "nonce" : "0x00",
                "storage" : {
                }
            },
            "0xa94f5374fce5edbc8e2a8697c15331677e6ebf0b" : {
                "balance" : "0xe8d4a51000",
                "code" : "",
                "nonce" : "0x00",
                "storage" : {
                }
            },
            "0xb0005374fce5edbc8e2a8697c15331677e6ebf0b" : {
                "balance" : "0x01",
                "code" : "0x6000600060006000600073c94f5374fce5edbc8e2a8697c15331677e6ebf0b61c350f1600055600e600255",
                "nonce" : "0x00",
                "storage" : {
                }
            },
            "0xb1005374fce5edbc8e2a8697c15331677e6ebf0b" : {
                "balance" : "0x01",
                "code" : "0x6000600060006000600073c94f5374fce5edbc8e2a8697c15331677e6ebf0b61c350f2600055600e600255",
                "nonce" : "0x00",
                "storage" : {
                }
            },
            "0xb2005374fce5edbc8e2a8697c15331677e6ebf0b" : {
                "balance" : "0x01",
                "code" : "0x600060006000600073c94f5374fce5edbc8e2a8697c15331677e6ebf0b61c350f4600055600e600255",
                "nonce" : "0x00",
                "storage" : {
                }
            },
            "0xb3005374fce5edbc8e2a8697c15331677e6ebf0b" : {
                "balance" : "0x01",
                "code" : "0x6000600060006000600073b3305374fce5edbc8e2a8697c15331677e6ebf0b620186a0f1600055600e600255",
                "nonce" : "0x00",
                "storage" : {
                }
            },
            "0xb3305374fce5edbc8e2a8697c15331677e6ebf0b" : {
                "balance" : "0x01",
                "code" : "0x6000600060006000600073c94f5374fce5edbc8e2a8697c15331677e6ebf0b61c350f1600455600e600555",
                "nonce" : "0x00",
                "storage" : {
                }
            },
            "0xc94f5374fce5edbc8e2a8697c15331677e6ebf0b" : {
                "balance" : "0x01",
                "code" : "0x600c60015560016000fd600d600355",
                "nonce" : "0x00",
                "storage" : {
                }
            }
        },
        "sealEngine" : "NoProof"
    }
}