{
    "RevertDepthCreateOOG_d1g1v0_Byzantium" : {
        "_info" : {
            "comment" : "",
            "filledwith" : "testeth 1.5.0.dev2-52+commit.d419e0a2",
            "lllcversion" : "Version: 0.4.26-develop.2018.9.19+commit.785cbf40.Linux.g++",
            "source" : "src/BlockchainTestsFiller/GeneralStateTests/stRevertTest/RevertDepthCreateOOG_d1g1v0Filler.json",
            "sourceHash" : "d5dadd50949ee4dfae912d1c220f981d088183a0b3d26ea87a25c3a723887bb2"
        },
        "blocks" : [
            {
                "blockHeader" : {
                    "bloom" : "0x00000000000000000000000000000000000000000000000000000000000000000000000000000000000000000000000000000000000000000000000000000000000000000000000000000000000000000000000000000000000000000000000000000000000000000000000000000000000000000000000000000000000000000000000000000000000000000000000000000000000000000000000000000000000000000000000000000000000000000000000000000000000000000000000000000000000000000000000000000000000000000000000000000000000000000000000000000000000000000000000000000000000000000000000000000000",
                    "coinbase" : "0x2adc25665018aa1fe0e6bc666dac8fc2697ff9ba",
                    "difficulty" : "0x020000",
                    "extraData" : "",
                    "gasLimit" : "0x989680",
                    "gasUsed" : "0x0259e2",
                    "hash" : "0x98b1c0a82dcf50778c2422be8a415cd4775e54e717bfb2436fdfa87b14119620",
                    "mixHash" : "0x0000000000000000000000000000000000000000000000000000000000000000",
                    "nonce" : "0x0000000000000000",
                    "number" : "0x01",
                    "parentHash" : "0x8743d6698accee1630990d042b3ca26d8e4f8b159f79a80423f97b9bd0f7e0d0",
                    "receiptTrie" : "0x1e4134e4cb2f1fe1fd6582225bcf81c6a06f48432112f70c794cc859d39fa735",
                    "stateRoot" : "0x72b81459e1110f7dc733ed60d4e36c086b2e9d30918ca2dcb94cdc03528d9860",
                    "timestamp" : "0x03e8",
                    "transactionsTrie" : "0x5bd7c5e4bbfe38bf34547d64dc228171037602f027519a1dfb5e49645648cb7f",
                    "uncleHash" : "0x1dcc4de8dec75d7aab85b567b6ccd41ad312451b948a7413f0a142fd40d49347"
                },
                "rlp" : "0xf90280f901f8a08743d6698accee1630990d042b3ca26d8e4f8b159f79a80423f97b9bd0f7e0d0a01dcc4de8dec75d7aab85b567b6ccd41ad312451b948a7413f0a142fd40d49347942adc25665018aa1fe0e6bc666dac8fc2697ff9baa072b81459e1110f7dc733ed60d4e36c086b2e9d30918ca2dcb94cdc03528d9860a05bd7c5e4bbfe38bf34547d64dc228171037602f027519a1dfb5e49645648cb7fa01e4134e4cb2f1fe1fd6582225bcf81c6a06f48432112f70c794cc859d39fa735b9010000000000000000000000000000000000000000000000000000000000000000000000000000000000000000000000000000000000000000000000000000000000000000000000000000000000000000000000000000000000000000000000000000000000000000000000000000000000000000000000000000000000000000000000000000000000000000000000000000000000000000000000000000000000000000000000000000000000000000000000000000000000000000000000000000000000000000000000000000000000000000000000000000000000000000000000000000000000000000000000000000000000000000000000000000000000830200000183989680830259e28203e880a00000000000000000000000000000000000000000000000000000000000000000880000000000000000f882f88080018302710094a00000000000000000000000000000000000000001a0000000000000000000000000000000000000000000000000000000000001ea601ca06abcc24a73e8c086ceac2e7390723203706e53aa49f5fb02fca5a7030a98d1d8a00767a5bd2c4b3fac4eaf3bcb4a831ee717ec34e1b763df99cf11d4c298a0e9dfc0",
                "transactions" : [
                    {
                        "data" : "0x000000000000000000000000000000000000000000000000000000000001ea60",
                        "gasLimit" : "0x027100",
                        "gasPrice" : "0x01",
                        "nonce" : "0x00",
                        "r" : "0x6abcc24a73e8c086ceac2e7390723203706e53aa49f5fb02fca5a7030a98d1d8",
                        "s" : "0x0767a5bd2c4b3fac4eaf3bcb4a831ee717ec34e1b763df99cf11d4c298a0e9df",
                        "to" : "0xa000000000000000000000000000000000000000",
                        "v" : "0x1c",
                        "value" : "0x01"
                    }
                ],
                "uncleHeaders" : [
                ]
            }
        ],
        "genesisBlockHeader" : {
            "bloom" : "0x00000000000000000000000000000000000000000000000000000000000000000000000000000000000000000000000000000000000000000000000000000000000000000000000000000000000000000000000000000000000000000000000000000000000000000000000000000000000000000000000000000000000000000000000000000000000000000000000000000000000000000000000000000000000000000000000000000000000000000000000000000000000000000000000000000000000000000000000000000000000000000000000000000000000000000000000000000000000000000000000000000000000000000000000000000000",
            "coinbase" : "0x2adc25665018aa1fe0e6bc666dac8fc2697ff9ba",
            "difficulty" : "0x020000",
            "extraData" : "0x42",
            "gasLimit" : "0x989680",
            "gasUsed" : "0x00",
            "hash" : "0x8743d6698accee1630990d042b3ca26d8e4f8b159f79a80423f97b9bd0f7e0d0",
            "mixHash" : "0x56e81f171bcc55a6ff8345e692c0f86e5b48e01b996cadc001622fb5e363b421",
            "nonce" : "0x0102030405060708",
            "number" : "0x00",
            "parentHash" : "0x0000000000000000000000000000000000000000000000000000000000000000",
            "receiptTrie" : "0x56e81f171bcc55a6ff8345e692c0f86e5b48e01b996cadc001622fb5e363b421",
            "stateRoot" : "0x5eb464647e12f6457b3ffea1459c38cb1eb63c4472470ff8ff49adb0563692d6",
            "timestamp" : "0x03b6",
            "transactionsTrie" : "0x56e81f171bcc55a6ff8345e692c0f86e5b48e01b996cadc001622fb5e363b421",
            "uncleHash" : "0x1dcc4de8dec75d7aab85b567b6ccd41ad312451b948a7413f0a142fd40d49347"
        },
        "genesisRLP" : "0xf901faf901f5a00000000000000000000000000000000000000000000000000000000000000000a01dcc4de8dec75d7aab85b567b6ccd41ad312451b948a7413f0a142fd40d49347942adc25665018aa1fe0e6bc666dac8fc2697ff9baa05eb464647e12f6457b3ffea1459c38cb1eb63c4472470ff8ff49adb0563692d6a056e81f171bcc55a6ff8345e692c0f86e5b48e01b996cadc001622fb5e363b421a056e81f171bcc55a6ff8345e692c0f86e5b48e01b996cadc001622fb5e363b421b9010000000000000000000000000000000000000000000000000000000000000000000000000000000000000000000000000000000000000000000000000000000000000000000000000000000000000000000000000000000000000000000000000000000000000000000000000000000000000000000000000000000000000000000000000000000000000000000000000000000000000000000000000000000000000000000000000000000000000000000000000000000000000000000000000000000000000000000000000000000000000000000000000000000000000000000000000000000000000000000000000000000000000000000000000000000000830200008083989680808203b642a056e81f171bcc55a6ff8345e692c0f86e5b48e01b996cadc001622fb5e363b421880102030405060708c0c0",
        "lastblockhash" : "0x98b1c0a82dcf50778c2422be8a415cd4775e54e717bfb2436fdfa87b14119620",
        "network" : "Byzantium",
        "postState" : {
            "0x2adc25665018aa1fe0e6bc666dac8fc2697ff9ba" : {
                "balance" : "0x29a2241af62e59e2",
                "code" : "",
                "nonce" : "0x00",
                "storage" : {
                }
            },
            "0x3e180b1862f9d158abb5e519a6d8605540c23682" : {
                "balance" : "0x00",
                "code" : "",
                "nonce" : "0x01",
                "storage" : {
                }
            },
            "0xa000000000000000000000000000000000000000" : {
                "balance" : "0x06",
                "code" : "0x60016000556000600060006000600073b000000000000000000000000000000000000000600035f1600155600c600455",
                "nonce" : "0x36",
                "storage" : {
                    "0x00" : "0x01",
                    "0x01" : "0x01",
                    "0x04" : "0x0c"
                }
            },
            "0xa94f5374fce5edbc8e2a8697c15331677e6ebf0b" : {
                "balance" : "0xe8d4a2b61d",
                "code" : "",
                "nonce" : "0x01",
                "storage" : {
                }
            },
            "0xb000000000000000000000000000000000000000" : {
                "balance" : "0x00",
                "code" : "0x6008600255600060006000f050600c600355",
                "nonce" : "0x01",
                "storage" : {
                    "0x02" : "0x08",
                    "0x03" : "0x0c"
                }
            }
        },
        "pre" : {
            "0xa000000000000000000000000000000000000000" : {
                "balance" : "0x05",
                "code" : "0x60016000556000600060006000600073b000000000000000000000000000000000000000600035f1600155600c600455",
                "nonce" : "0x36",
                "storage" : {
                }
            },
            "0xa94f5374fce5edbc8e2a8697c15331677e6ebf0b" : {
                "balance" : "0xe8d4a51000",
                "code" : "",
                "nonce" : "0x00",
                "storage" : {
                }
            },
            "0xb000000000000000000000000000000000000000" : {
                "balance" : "0x00",
                "code" : "0x6008600255600060006000f050600c600355",
                "nonce" : "0x00",
                "storage" : {
                }
            }
        },
        "sealEngine" : "NoProof"
    },
    "RevertDepthCreateOOG_d1g1v0_Constantinople" : {
        "_info" : {
            "comment" : "",
            "filledwith" : "testeth 1.5.0.dev2-52+commit.d419e0a2",
            "lllcversion" : "Version: 0.4.26-develop.2018.9.19+commit.785cbf40.Linux.g++",
            "source" : "src/BlockchainTestsFiller/GeneralStateTests/stRevertTest/RevertDepthCreateOOG_d1g1v0Filler.json",
            "sourceHash" : "d5dadd50949ee4dfae912d1c220f981d088183a0b3d26ea87a25c3a723887bb2"
        },
        "blocks" : [
            {
                "blockHeader" : {
                    "bloom" : "0x00000000000000000000000000000000000000000000000000000000000000000000000000000000000000000000000000000000000000000000000000000000000000000000000000000000000000000000000000000000000000000000000000000000000000000000000000000000000000000000000000000000000000000000000000000000000000000000000000000000000000000000000000000000000000000000000000000000000000000000000000000000000000000000000000000000000000000000000000000000000000000000000000000000000000000000000000000000000000000000000000000000000000000000000000000000",
                    "coinbase" : "0x2adc25665018aa1fe0e6bc666dac8fc2697ff9ba",
                    "difficulty" : "0x020000",
                    "extraData" : "",
                    "gasLimit" : "0x989680",
                    "gasUsed" : "0x0259e2",
                    "hash" : "0x4b0e6684131d19890fb2fc062720ca94089aebd7e39c7236aeba0c061bf5007f",
                    "mixHash" : "0x0000000000000000000000000000000000000000000000000000000000000000",
                    "nonce" : "0x0000000000000000",
                    "number" : "0x01",
                    "parentHash" : "0x8743d6698accee1630990d042b3ca26d8e4f8b159f79a80423f97b9bd0f7e0d0",
                    "receiptTrie" : "0x1e4134e4cb2f1fe1fd6582225bcf81c6a06f48432112f70c794cc859d39fa735",
                    "stateRoot" : "0xb990252516e94f5dd6b6e26d419d9214d92fa30df9c4d2e7a8ef2f20acb19a74",
                    "timestamp" : "0x03e8",
                    "transactionsTrie" : "0x5bd7c5e4bbfe38bf34547d64dc228171037602f027519a1dfb5e49645648cb7f",
                    "uncleHash" : "0x1dcc4de8dec75d7aab85b567b6ccd41ad312451b948a7413f0a142fd40d49347"
                },
                "rlp" : "0xf90280f901f8a08743d6698accee1630990d042b3ca26d8e4f8b159f79a80423f97b9bd0f7e0d0a01dcc4de8dec75d7aab85b567b6ccd41ad312451b948a7413f0a142fd40d49347942adc25665018aa1fe0e6bc666dac8fc2697ff9baa0b990252516e94f5dd6b6e26d419d9214d92fa30df9c4d2e7a8ef2f20acb19a74a05bd7c5e4bbfe38bf34547d64dc228171037602f027519a1dfb5e49645648cb7fa01e4134e4cb2f1fe1fd6582225bcf81c6a06f48432112f70c794cc859d39fa735b9010000000000000000000000000000000000000000000000000000000000000000000000000000000000000000000000000000000000000000000000000000000000000000000000000000000000000000000000000000000000000000000000000000000000000000000000000000000000000000000000000000000000000000000000000000000000000000000000000000000000000000000000000000000000000000000000000000000000000000000000000000000000000000000000000000000000000000000000000000000000000000000000000000000000000000000000000000000000000000000000000000000000000000000000000000000000830200000183989680830259e28203e880a00000000000000000000000000000000000000000000000000000000000000000880000000000000000f882f88080018302710094a00000000000000000000000000000000000000001a0000000000000000000000000000000000000000000000000000000000001ea601ca06abcc24a73e8c086ceac2e7390723203706e53aa49f5fb02fca5a7030a98d1d8a00767a5bd2c4b3fac4eaf3bcb4a831ee717ec34e1b763df99cf11d4c298a0e9dfc0",
                "transactions" : [
                    {
                        "data" : "0x000000000000000000000000000000000000000000000000000000000001ea60",
                        "gasLimit" : "0x027100",
                        "gasPrice" : "0x01",
                        "nonce" : "0x00",
                        "r" : "0x6abcc24a73e8c086ceac2e7390723203706e53aa49f5fb02fca5a7030a98d1d8",
                        "s" : "0x0767a5bd2c4b3fac4eaf3bcb4a831ee717ec34e1b763df99cf11d4c298a0e9df",
                        "to" : "0xa000000000000000000000000000000000000000",
                        "v" : "0x1c",
                        "value" : "0x01"
                    }
                ],
                "uncleHeaders" : [
                ]
            }
        ],
        "genesisBlockHeader" : {
            "bloom" : "0x00000000000000000000000000000000000000000000000000000000000000000000000000000000000000000000000000000000000000000000000000000000000000000000000000000000000000000000000000000000000000000000000000000000000000000000000000000000000000000000000000000000000000000000000000000000000000000000000000000000000000000000000000000000000000000000000000000000000000000000000000000000000000000000000000000000000000000000000000000000000000000000000000000000000000000000000000000000000000000000000000000000000000000000000000000000",
            "coinbase" : "0x2adc25665018aa1fe0e6bc666dac8fc2697ff9ba",
            "difficulty" : "0x020000",
            "extraData" : "0x42",
            "gasLimit" : "0x989680",
            "gasUsed" : "0x00",
            "hash" : "0x8743d6698accee1630990d042b3ca26d8e4f8b159f79a80423f97b9bd0f7e0d0",
            "mixHash" : "0x56e81f171bcc55a6ff8345e692c0f86e5b48e01b996cadc001622fb5e363b421",
            "nonce" : "0x0102030405060708",
            "number" : "0x00",
            "parentHash" : "0x0000000000000000000000000000000000000000000000000000000000000000",
            "receiptTrie" : "0x56e81f171bcc55a6ff8345e692c0f86e5b48e01b996cadc001622fb5e363b421",
            "stateRoot" : "0x5eb464647e12f6457b3ffea1459c38cb1eb63c4472470ff8ff49adb0563692d6",
            "timestamp" : "0x03b6",
            "transactionsTrie" : "0x56e81f171bcc55a6ff8345e692c0f86e5b48e01b996cadc001622fb5e363b421",
            "uncleHash" : "0x1dcc4de8dec75d7aab85b567b6ccd41ad312451b948a7413f0a142fd40d49347"
        },
        "genesisRLP" : "0xf901faf901f5a00000000000000000000000000000000000000000000000000000000000000000a01dcc4de8dec75d7aab85b567b6ccd41ad312451b948a7413f0a142fd40d49347942adc25665018aa1fe0e6bc666dac8fc2697ff9baa05eb464647e12f6457b3ffea1459c38cb1eb63c4472470ff8ff49adb0563692d6a056e81f171bcc55a6ff8345e692c0f86e5b48e01b996cadc001622fb5e363b421a056e81f171bcc55a6ff8345e692c0f86e5b48e01b996cadc001622fb5e363b421b9010000000000000000000000000000000000000000000000000000000000000000000000000000000000000000000000000000000000000000000000000000000000000000000000000000000000000000000000000000000000000000000000000000000000000000000000000000000000000000000000000000000000000000000000000000000000000000000000000000000000000000000000000000000000000000000000000000000000000000000000000000000000000000000000000000000000000000000000000000000000000000000000000000000000000000000000000000000000000000000000000000000000000000000000000000000000830200008083989680808203b642a056e81f171bcc55a6ff8345e692c0f86e5b48e01b996cadc001622fb5e363b421880102030405060708c0c0",
        "lastblockhash" : "0x4b0e6684131d19890fb2fc062720ca94089aebd7e39c7236aeba0c061bf5007f",
        "network" : "Constantinople",
        "postState" : {
            "0x2adc25665018aa1fe0e6bc666dac8fc2697ff9ba" : {
                "balance" : "0x1bc16d674eca59e2",
                "code" : "",
                "nonce" : "0x00",
                "storage" : {
                }
            },
            "0x3e180b1862f9d158abb5e519a6d8605540c23682" : {
                "balance" : "0x00",
                "code" : "",
                "nonce" : "0x01",
                "storage" : {
                }
            },
            "0xa000000000000000000000000000000000000000" : {
                "balance" : "0x06",
                "code" : "0x60016000556000600060006000600073b000000000000000000000000000000000000000600035f1600155600c600455",
                "nonce" : "0x36",
                "storage" : {
                    "0x00" : "0x01",
                    "0x01" : "0x01",
                    "0x04" : "0x0c"
                }
            },
            "0xa94f5374fce5edbc8e2a8697c15331677e6ebf0b" : {
                "balance" : "0xe8d4a2b61d",
                "code" : "",
                "nonce" : "0x01",
                "storage" : {
                }
            },
            "0xb000000000000000000000000000000000000000" : {
                "balance" : "0x00",
                "code" : "0x6008600255600060006000f050600c600355",
                "nonce" : "0x01",
                "storage" : {
                    "0x02" : "0x08",
                    "0x03" : "0x0c"
                }
            }
        },
        "pre" : {
            "0xa000000000000000000000000000000000000000" : {
                "balance" : "0x05",
                "code" : "0x60016000556000600060006000600073b000000000000000000000000000000000000000600035f1600155600c600455",
                "nonce" : "0x36",
                "storage" : {
                }
            },
            "0xa94f5374fce5edbc8e2a8697c15331677e6ebf0b" : {
                "balance" : "0xe8d4a51000",
                "code" : "",
                "nonce" : "0x00",
                "storage" : {
                }
            },
            "0xb000000000000000000000000000000000000000" : {
                "balance" : "0x00",
                "code" : "0x6008600255600060006000f050600c600355",
                "nonce" : "0x00",
                "storage" : {
                }
            }
        },
        "sealEngine" : "NoProof"
    }
}