{
    "BlockExtraData25" : {
        "_info" : {
            "comment" : "",
            "filledwith" : "testeth 1.5.0.dev2-66+commit.25781972",
            "lllcversion" : "Version: 0.4.26-develop.2018.9.19+commit.785cbf40.Linux.g++",
            "source" : "src/BlockchainTestsFiller/bcForgedTest/bcForkBlockTestCopier.json",
            "sourceHash" : "2cf6d333e81bfc431270c406639b3a24c59ff8d69007cfd8a4636a15bffb950e"
        },
        "blocks" : [
            {
                "rlp" : "0xf90663f905fca055e75bec293d5d5f38213bded3d27435ca91cee285c1f76a658ddccdccd08d00a01dcc4de8dec75d7aab85b567b6ccd41ad312451b948a7413f0a142fd40d49347948888f1f195afa192cfee860698584c030f4c9db1a0ef1552a40b7165c3cd773806b9e0c165b75356e0314bf0706f279c729f51e017a09ee6c6d3ba44b01327c41171dd5316e04f0f71f8286960fe8408e06fe156438fa0bc37d79753ad738a6dac4921e57392f145d8887476de3f783dfa7edae9283e52b90100000000000000000000000000000000000000000000000000000000000000000000000000000000000000000000000000000000000000000000000000000000000000000000000000000000000000000000000000000000000000000000000000000000000000000000000000000000000000000000000000000000000000000000000000000000000000000000000000000000000000000000000000000000000000000000000000000000000000000000000000000000000000000000000000000000000000000000000000000000000000000000000000000000000000000000000000000000000000000000000000000000000000000000000000000000008302000001832fefd88252088455200109b904010102030405060708091011121314151617181920212223242510000000000000000000200000000000000000003000000000000000000040000000000000000000500000000000000000006000000000000000000070000000000000000000800000000000000000009000000000000000000010000000000000000000100000000000000000002000000000000000000030000000000000000000400000000000000000005000000000000000000060000000000000000000700000000000000000008000000000000000000090000000000000000000100000000000000000001000000000000000000020000000000000000000300000000000000000004000000000000000000050000000000000000000600000000000000000007000000000000000000080000000000000000000900000000000000000001000000000000000000010000000000000000000200000000000000000003000000000000000000040000000000000000000500000000000000000006000000000000000000070000000000000000000800000000000000000009000000000000000000010000000000000000000100000000000000000002000000000000000000030000000000000000000400000000000000000005000000000000000000060000000000000000000700000000000000000008000000000000000000090000000000000000000100000000000000000001000000000000000000020000000000000000000300000000000000000004000000000000000000050000000000000000000600000000000000000007000000000000000000080000000000000000000900000000000000000001000000000000000000010000000000000000000200000000000000000003000000000000000000040000000000000000000500000000000000000006000000000000000000070000000000000000000800000000000000000009000000000000000000010000000000000000000100000000000000000002000000000000000000030000000000000000000400000000000000000005000000000000000000060000000000000000000700000000000000000008000000000000000000090000000000000000000100000000000000000001000000000000000000020000000000000000000300000000000000000004000000000000000000050000000000000000000600000000000000000007000000000000000000080000000000000000000900000000000000000001000000000000000000010000000000000000000200000000000000000003000000000000000000040000000000000000000500000000000000000006000000000000000000070000000000000000000800000000000000000009000000000000000000010000000000000000000a0a0fdabfa4034aea18f6b722643f1611f33a4da71804367cec161946f5308ceae8803c6884fb3570f4af861f85f800a82c35094095e7baea6a6c7c4c2dfeb977efac326af552d870a801ba0e172fae6bbd140fdce64cb80776b0a70488646c1bce1caf94dfba74975d14414a03b55ce283b425c4c37219148f4b057fd67018096f5feef8dc7afafdfc91df442c0"
            }
        ],
        "genesisBlockHeader" : {
            "bloom" : "0x00000000000000000000000000000000000000000000000000000000000000000000000000000000000000000000000000000000000000000000000000000000000000000000000000000000000000000000000000000000000000000000000000000000000000000000000000000000000000000000000000000000000000000000000000000000000000000000000000000000000000000000000000000000000000000000000000000000000000000000000000000000000000000000000000000000000000000000000000000000000000000000000000000000000000000000000000000000000000000000000000000000000000000000000000000000",
            "coinbase" : "0x8888f1f195afa192cfee860698584c030f4c9db1",
            "difficulty" : "0x20000",
            "extraData" : "0x42",
            "gasLimit" : "0x2fefd8",
            "gasUsed" : "0x00",
            "hash" : "0x55e75bec293d5d5f38213bded3d27435ca91cee285c1f76a658ddccdccd08d00",
            "mixHash" : "0x2afb8dc82d0d45cce72967ed9c00892fb808bb92e9ff22fe1c51a6b842c783e5",
            "nonce" : "0xf9d04b2fcc151a74",
            "number" : "0x00",
            "parentHash" : "0x0000000000000000000000000000000000000000000000000000000000000000",
            "receiptTrie" : "0x56e81f171bcc55a6ff8345e692c0f86e5b48e01b996cadc001622fb5e363b421",
            "stateRoot" : "0xcafd881ab193703b83816c49ff6c2bf6ba6f464a1be560c42106128c8dbc35e7",
            "timestamp" : "0x54c98c81",
            "transactionsTrie" : "0x56e81f171bcc55a6ff8345e692c0f86e5b48e01b996cadc001622fb5e363b421",
            "uncleHash" : "0x1dcc4de8dec75d7aab85b567b6ccd41ad312451b948a7413f0a142fd40d49347"
        },
        "genesisRLP" : "0xf901fcf901f7a00000000000000000000000000000000000000000000000000000000000000000a01dcc4de8dec75d7aab85b567b6ccd41ad312451b948a7413f0a142fd40d49347948888f1f195afa192cfee860698584c030f4c9db1a0cafd881ab193703b83816c49ff6c2bf6ba6f464a1be560c42106128c8dbc35e7a056e81f171bcc55a6ff8345e692c0f86e5b48e01b996cadc001622fb5e363b421a056e81f171bcc55a6ff8345e692c0f86e5b48e01b996cadc001622fb5e363b421b90100000000000000000000000000000000000000000000000000000000000000000000000000000000000000000000000000000000000000000000000000000000000000000000000000000000000000000000000000000000000000000000000000000000000000000000000000000000000000000000000000000000000000000000000000000000000000000000000000000000000000000000000000000000000000000000000000000000000000000000000000000000000000000000000000000000000000000000000000000000000000000000000000000000000000000000000000000000000000000000000000000000000000000000000000000000008302000080832fefd8808454c98c8142a02afb8dc82d0d45cce72967ed9c00892fb808bb92e9ff22fe1c51a6b842c783e588f9d04b2fcc151a74c0c0",
        "lastblockhash" : "0x55e75bec293d5d5f38213bded3d27435ca91cee285c1f76a658ddccdccd08d00",
        "network" : "Frontier",
        "postState" : {
            "0xa94f5374fce5edbc8e2a8697c15331677e6ebf0b" : {
                "balance" : "0x2540be400",
                "code" : "0x",
                "nonce" : "0x00",
                "storage" : {
                }
            }
        },
        "pre" : {
            "0xa94f5374fce5edbc8e2a8697c15331677e6ebf0b" : {
                "balance" : "0x2540be400",
                "code" : "0x",
                "nonce" : "0x00",
                "storage" : {
                }
            }
        }
    }
}