{
    "randomStatetest591BC_Byzantium" : {
        "_info" : {
            "comment" : "",
            "filledwith" : "testeth 1.5.0.dev2-72+commit.ff0ca2db",
            "lllcversion" : "Version: 0.5.0-develop.2018.10.10+commit.06200b4b.Linux.g++",
            "source" : "src/BlockchainTestsFiller/bcRandomBlockhashTest/randomStatetest591BCFiller.json",
            "sourceHash" : "e53d104a74582838898aed7cc6a05d9dbd458d4aedbf30916f7e07ee0859a425"
        },
        "blocks" : [
            {
                "blockHeader" : {
                    "bloom" : "0x00000000000000000000000000000000000000000000000000000000000000000000000000000000000000000000000000000000000000000000000000000000000000000000000000000000000000000000000000000000000000000000000000000000000000000000000000000000000000000000000000000000000000000000000000000000000000000000000000000000000000000000000000000000000000000000000000000000000000000000000000000000000000000000000000000000000000000000000000000000000000000000000000000000000000000000000000000000000000000000000000000000000000000000000000000000",
                    "coinbase" : "0x945304eb96065b2a98b57a48a06ae28d285a71b5",
                    "difficulty" : "0x020000",
                    "extraData" : "",
                    "gasLimit" : "0x7fffffffffffffff",
                    "gasUsed" : "0xa21a",
                    "hash" : "0x6c5d43612dfb8444857c52a2bec8ba3cdaa8b2e11d12213ea7785df888594647",
                    "mixHash" : "0x0000000000000000000000000000000000000000000000000000000000000000",
                    "nonce" : "0x0000000000000000",
                    "number" : "0x01",
                    "parentHash" : "0x00787d131b22e43f1d6cefa95a3905b1bf24171cda03b68fd9da2eff50b6502e",
                    "receiptTrie" : "0x858500082c477d41c3f7e9da9412ab5082fcbb069c16fdc6668e6b5abd8b7879",
                    "stateRoot" : "0x9514ccd9a357762e7888851c58f06ecb265e11e5f6b362818aff8448cfb72d02",
                    "timestamp" : "0x03e8",
                    "transactionsTrie" : "0xea2c23140f9304ac644ed2168d38810b255563a317f85d94b1417efe60e9c67f",
                    "uncleHash" : "0x1dcc4de8dec75d7aab85b567b6ccd41ad312451b948a7413f0a142fd40d49347"
                },
                "rlp" : "0xf90267f901fca000787d131b22e43f1d6cefa95a3905b1bf24171cda03b68fd9da2eff50b6502ea01dcc4de8dec75d7aab85b567b6ccd41ad312451b948a7413f0a142fd40d4934794945304eb96065b2a98b57a48a06ae28d285a71b5a09514ccd9a357762e7888851c58f06ecb265e11e5f6b362818aff8448cfb72d02a0ea2c23140f9304ac644ed2168d38810b255563a317f85d94b1417efe60e9c67fa0858500082c477d41c3f7e9da9412ab5082fcbb069c16fdc6668e6b5abd8b7879b90100000000000000000000000000000000000000000000000000000000000000000000000000000000000000000000000000000000000000000000000000000000000000000000000000000000000000000000000000000000000000000000000000000000000000000000000000000000000000000000000000000000000000000000000000000000000000000000000000000000000000000000000000000000000000000000000000000000000000000000000000000000000000000000000000000000000000000000000000000000000000000000000000000000000000000000000000000000000000000000000000000000000000000000000000000000008302000001887fffffffffffffff82a21a8203e880a00000000000000000000000000000000000000000000000000000000000000000880000000000000000f865f863800183061a8094095e7baea6a6c7c4c2dfeb977efac326af552d87830186a0421ba0cd95e27b278d4519277b0d2675dc5a4ba134a179c9161b08907df9f1f8309765a078634240a51c2e3d932e8dd4cf5befb3ced234cde11c6d2a23fd47d2e96bfdffc0",
                "transactions" : [
                    {
                        "data" : "0x42",
                        "gasLimit" : "0x061a80",
                        "gasPrice" : "0x01",
                        "nonce" : "0x00",
                        "r" : "0xcd95e27b278d4519277b0d2675dc5a4ba134a179c9161b08907df9f1f8309765",
                        "s" : "0x78634240a51c2e3d932e8dd4cf5befb3ced234cde11c6d2a23fd47d2e96bfdff",
                        "to" : "0x095e7baea6a6c7c4c2dfeb977efac326af552d87",
                        "v" : "0x1b",
                        "value" : "0x0186a0"
                    }
                ],
                "uncleHeaders" : [
                ]
            }
        ],
        "genesisBlockHeader" : {
            "bloom" : "0x00000000000000000000000000000000000000000000000000000000000000000000000000000000000000000000000000000000000000000000000000000000000000000000000000000000000000000000000000000000000000000000000000000000000000000000000000000000000000000000000000000000000000000000000000000000000000000000000000000000000000000000000000000000000000000000000000000000000000000000000000000000000000000000000000000000000000000000000000000000000000000000000000000000000000000000000000000000000000000000000000000000000000000000000000000000",
            "coinbase" : "0x945304eb96065b2a98b57a48a06ae28d285a71b5",
            "difficulty" : "0x020000",
            "extraData" : "0x42",
            "gasLimit" : "0x7fffffffffffffff",
            "gasUsed" : "0x00",
            "hash" : "0x00787d131b22e43f1d6cefa95a3905b1bf24171cda03b68fd9da2eff50b6502e",
            "mixHash" : "0x56e81f171bcc55a6ff8345e692c0f86e5b48e01b996cadc001622fb5e363b421",
            "nonce" : "0x0102030405060708",
            "number" : "0x00",
            "parentHash" : "0x0000000000000000000000000000000000000000000000000000000000000000",
            "receiptTrie" : "0x56e81f171bcc55a6ff8345e692c0f86e5b48e01b996cadc001622fb5e363b421",
            "stateRoot" : "0x8829a0e8b2ab725f5b3389d995bad79a5e256efeab20b9865cbd30960d159168",
            "timestamp" : "0x03b6",
            "transactionsTrie" : "0x56e81f171bcc55a6ff8345e692c0f86e5b48e01b996cadc001622fb5e363b421",
            "uncleHash" : "0x1dcc4de8dec75d7aab85b567b6ccd41ad312451b948a7413f0a142fd40d49347"
        },
        "genesisRLP" : "0xf901fff901faa00000000000000000000000000000000000000000000000000000000000000000a01dcc4de8dec75d7aab85b567b6ccd41ad312451b948a7413f0a142fd40d4934794945304eb96065b2a98b57a48a06ae28d285a71b5a08829a0e8b2ab725f5b3389d995bad79a5e256efeab20b9865cbd30960d159168a056e81f171bcc55a6ff8345e692c0f86e5b48e01b996cadc001622fb5e363b421a056e81f171bcc55a6ff8345e692c0f86e5b48e01b996cadc001622fb5e363b421b90100000000000000000000000000000000000000000000000000000000000000000000000000000000000000000000000000000000000000000000000000000000000000000000000000000000000000000000000000000000000000000000000000000000000000000000000000000000000000000000000000000000000000000000000000000000000000000000000000000000000000000000000000000000000000000000000000000000000000000000000000000000000000000000000000000000000000000000000000000000000000000000000000000000000000000000000000000000000000000000000000000000000000000000000000000000008302000080887fffffffffffffff808203b642a056e81f171bcc55a6ff8345e692c0f86e5b48e01b996cadc001622fb5e363b421880102030405060708c0c0",
        "lastblockhash" : "0x6c5d43612dfb8444857c52a2bec8ba3cdaa8b2e11d12213ea7785df888594647",
        "network" : "Byzantium",
        "postState" : {
            "0x095e7baea6a6c7c4c2dfeb977efac326af552d87" : {
                "balance" : "0x0de0b6b3a76586a0",
                "code" : "0x4444424131424055",
                "nonce" : "0x00",
                "storage" : {
                    "0x00" : "0x2e"
                }
            },
            "0x945304eb96065b2a98b57a48a06ae28d285a71b5" : {
                "balance" : "0x29a2241af62ca248",
                "code" : "0x6000355415600957005b60203560003555",
                "nonce" : "0x00",
                "storage" : {
                }
            },
            "0xa94f5374fce5edbc8e2a8697c15331677e6ebf0b" : {
                "balance" : "0x0de0b6b3a761d746",
                "code" : "",
                "nonce" : "0x01",
                "storage" : {
                }
            }
        },
        "pre" : {
            "0x095e7baea6a6c7c4c2dfeb977efac326af552d87" : {
                "balance" : "0x0de0b6b3a7640000",
                "code" : "0x4444424131424055",
                "nonce" : "0x00",
                "storage" : {
                }
            },
            "0x945304eb96065b2a98b57a48a06ae28d285a71b5" : {
                "balance" : "0x2e",
                "code" : "0x6000355415600957005b60203560003555",
                "nonce" : "0x00",
                "storage" : {
                }
            },
            "0xa94f5374fce5edbc8e2a8697c15331677e6ebf0b" : {
                "balance" : "0x0de0b6b3a7640000",
                "code" : "",
                "nonce" : "0x00",
                "storage" : {
                }
            }
        },
        "sealEngine" : "NoProof"
    },
    "randomStatetest591BC_Constantinople" : {
        "_info" : {
            "comment" : "",
            "filledwith" : "testeth 1.5.0.dev2-72+commit.ff0ca2db",
            "lllcversion" : "Version: 0.5.0-develop.2018.10.10+commit.06200b4b.Linux.g++",
            "source" : "src/BlockchainTestsFiller/bcRandomBlockhashTest/randomStatetest591BCFiller.json",
            "sourceHash" : "e53d104a74582838898aed7cc6a05d9dbd458d4aedbf30916f7e07ee0859a425"
        },
        "blocks" : [
            {
                "blockHeader" : {
                    "bloom" : "0x00000000000000000000000000000000000000000000000000000000000000000000000000000000000000000000000000000000000000000000000000000000000000000000000000000000000000000000000000000000000000000000000000000000000000000000000000000000000000000000000000000000000000000000000000000000000000000000000000000000000000000000000000000000000000000000000000000000000000000000000000000000000000000000000000000000000000000000000000000000000000000000000000000000000000000000000000000000000000000000000000000000000000000000000000000000",
                    "coinbase" : "0x945304eb96065b2a98b57a48a06ae28d285a71b5",
                    "difficulty" : "0x020000",
                    "extraData" : "",
                    "gasLimit" : "0x7fffffffffffffff",
                    "gasUsed" : "0xa21a",
                    "hash" : "0xe22792471781117ed27415a4c0baaeff9d9b6b662dbce43ed43996dc297022ec",
                    "mixHash" : "0x0000000000000000000000000000000000000000000000000000000000000000",
                    "nonce" : "0x0000000000000000",
                    "number" : "0x01",
                    "parentHash" : "0x00787d131b22e43f1d6cefa95a3905b1bf24171cda03b68fd9da2eff50b6502e",
                    "receiptTrie" : "0x858500082c477d41c3f7e9da9412ab5082fcbb069c16fdc6668e6b5abd8b7879",
                    "stateRoot" : "0x69c8b38c951522760bd6d2040e3561a6c0e6e7ed354d00dc72ec5bafca3644ac",
                    "timestamp" : "0x03e8",
                    "transactionsTrie" : "0xea2c23140f9304ac644ed2168d38810b255563a317f85d94b1417efe60e9c67f",
                    "uncleHash" : "0x1dcc4de8dec75d7aab85b567b6ccd41ad312451b948a7413f0a142fd40d49347"
                },
                "rlp" : "0xf90267f901fca000787d131b22e43f1d6cefa95a3905b1bf24171cda03b68fd9da2eff50b6502ea01dcc4de8dec75d7aab85b567b6ccd41ad312451b948a7413f0a142fd40d4934794945304eb96065b2a98b57a48a06ae28d285a71b5a069c8b38c951522760bd6d2040e3561a6c0e6e7ed354d00dc72ec5bafca3644aca0ea2c23140f9304ac644ed2168d38810b255563a317f85d94b1417efe60e9c67fa0858500082c477d41c3f7e9da9412ab5082fcbb069c16fdc6668e6b5abd8b7879b90100000000000000000000000000000000000000000000000000000000000000000000000000000000000000000000000000000000000000000000000000000000000000000000000000000000000000000000000000000000000000000000000000000000000000000000000000000000000000000000000000000000000000000000000000000000000000000000000000000000000000000000000000000000000000000000000000000000000000000000000000000000000000000000000000000000000000000000000000000000000000000000000000000000000000000000000000000000000000000000000000000000000000000000000000000000008302000001887fffffffffffffff82a21a8203e880a00000000000000000000000000000000000000000000000000000000000000000880000000000000000f865f863800183061a8094095e7baea6a6c7c4c2dfeb977efac326af552d87830186a0421ba0cd95e27b278d4519277b0d2675dc5a4ba134a179c9161b08907df9f1f8309765a078634240a51c2e3d932e8dd4cf5befb3ced234cde11c6d2a23fd47d2e96bfdffc0",
                "transactions" : [
                    {
                        "data" : "0x42",
                        "gasLimit" : "0x061a80",
                        "gasPrice" : "0x01",
                        "nonce" : "0x00",
                        "r" : "0xcd95e27b278d4519277b0d2675dc5a4ba134a179c9161b08907df9f1f8309765",
                        "s" : "0x78634240a51c2e3d932e8dd4cf5befb3ced234cde11c6d2a23fd47d2e96bfdff",
                        "to" : "0x095e7baea6a6c7c4c2dfeb977efac326af552d87",
                        "v" : "0x1b",
                        "value" : "0x0186a0"
                    }
                ],
                "uncleHeaders" : [
                ]
            }
        ],
        "genesisBlockHeader" : {
            "bloom" : "0x00000000000000000000000000000000000000000000000000000000000000000000000000000000000000000000000000000000000000000000000000000000000000000000000000000000000000000000000000000000000000000000000000000000000000000000000000000000000000000000000000000000000000000000000000000000000000000000000000000000000000000000000000000000000000000000000000000000000000000000000000000000000000000000000000000000000000000000000000000000000000000000000000000000000000000000000000000000000000000000000000000000000000000000000000000000",
            "coinbase" : "0x945304eb96065b2a98b57a48a06ae28d285a71b5",
            "difficulty" : "0x020000",
            "extraData" : "0x42",
            "gasLimit" : "0x7fffffffffffffff",
            "gasUsed" : "0x00",
            "hash" : "0x00787d131b22e43f1d6cefa95a3905b1bf24171cda03b68fd9da2eff50b6502e",
            "mixHash" : "0x56e81f171bcc55a6ff8345e692c0f86e5b48e01b996cadc001622fb5e363b421",
            "nonce" : "0x0102030405060708",
            "number" : "0x00",
            "parentHash" : "0x0000000000000000000000000000000000000000000000000000000000000000",
            "receiptTrie" : "0x56e81f171bcc55a6ff8345e692c0f86e5b48e01b996cadc001622fb5e363b421",
            "stateRoot" : "0x8829a0e8b2ab725f5b3389d995bad79a5e256efeab20b9865cbd30960d159168",
            "timestamp" : "0x03b6",
            "transactionsTrie" : "0x56e81f171bcc55a6ff8345e692c0f86e5b48e01b996cadc001622fb5e363b421",
            "uncleHash" : "0x1dcc4de8dec75d7aab85b567b6ccd41ad312451b948a7413f0a142fd40d49347"
        },
        "genesisRLP" : "0xf901fff901faa00000000000000000000000000000000000000000000000000000000000000000a01dcc4de8dec75d7aab85b567b6ccd41ad312451b948a7413f0a142fd40d4934794945304eb96065b2a98b57a48a06ae28d285a71b5a08829a0e8b2ab725f5b3389d995bad79a5e256efeab20b9865cbd30960d159168a056e81f171bcc55a6ff8345e692c0f86e5b48e01b996cadc001622fb5e363b421a056e81f171bcc55a6ff8345e692c0f86e5b48e01b996cadc001622fb5e363b421b90100000000000000000000000000000000000000000000000000000000000000000000000000000000000000000000000000000000000000000000000000000000000000000000000000000000000000000000000000000000000000000000000000000000000000000000000000000000000000000000000000000000000000000000000000000000000000000000000000000000000000000000000000000000000000000000000000000000000000000000000000000000000000000000000000000000000000000000000000000000000000000000000000000000000000000000000000000000000000000000000000000000000000000000000000000000008302000080887fffffffffffffff808203b642a056e81f171bcc55a6ff8345e692c0f86e5b48e01b996cadc001622fb5e363b421880102030405060708c0c0",
        "lastblockhash" : "0xe22792471781117ed27415a4c0baaeff9d9b6b662dbce43ed43996dc297022ec",
        "network" : "Constantinople",
        "postState" : {
            "0x095e7baea6a6c7c4c2dfeb977efac326af552d87" : {
                "balance" : "0x0de0b6b3a76586a0",
                "code" : "0x4444424131424055",
                "nonce" : "0x00",
                "storage" : {
                    "0x00" : "0x2e"
                }
            },
            "0x945304eb96065b2a98b57a48a06ae28d285a71b5" : {
                "balance" : "0x1bc16d674ec8a248",
                "code" : "0x6000355415600957005b60203560003555",
                "nonce" : "0x00",
                "storage" : {
                }
            },
            "0xa94f5374fce5edbc8e2a8697c15331677e6ebf0b" : {
                "balance" : "0x0de0b6b3a761d746",
                "code" : "",
                "nonce" : "0x01",
                "storage" : {
                }
            }
        },
        "pre" : {
            "0x095e7baea6a6c7c4c2dfeb977efac326af552d87" : {
                "balance" : "0x0de0b6b3a7640000",
                "code" : "0x4444424131424055",
                "nonce" : "0x00",
                "storage" : {
                }
            },
            "0x945304eb96065b2a98b57a48a06ae28d285a71b5" : {
                "balance" : "0x2e",
                "code" : "0x6000355415600957005b60203560003555",
                "nonce" : "0x00",
                "storage" : {
                }
            },
            "0xa94f5374fce5edbc8e2a8697c15331677e6ebf0b" : {
                "balance" : "0x0de0b6b3a7640000",
                "code" : "",
                "nonce" : "0x00",
                "storage" : {
                }
            }
        },
        "sealEngine" : "NoProof"
    }
}