{
    "StackDepthLimitSEC_d0g0v0_Byzantium" : {
        "_info" : {
            "comment" : "",
            "filledwith" : "testeth 1.5.0.dev2-52+commit.d419e0a2",
            "lllcversion" : "Version: 0.4.26-develop.2018.9.19+commit.785cbf40.Linux.g++",
            "source" : "src/BlockchainTestsFiller/GeneralStateTests/stSpecialTest/StackDepthLimitSEC_d0g0v0Filler.json",
            "sourceHash" : "29e1ea034a2a92fb64e9d2c1b9604d1198afd3b1efa1e2897528c19f5365f7c0"
        },
        "blocks" : [
            {
                "blockHeader" : {
                    "bloom" : "0x00000000000000000000000000000000000000000000000000000000000000000000000000000000000000000000000000000000000000000000000000000000000000000000000000000000000000000000000000000000000000000000000000000000000000000000000000000000000000000000000000000000000000000000000000000000000000000000000000000000000000000000000000000000000000000000000000000000000000000000000000000000000000000000000000000000000000000000000000000000000000000000000000000000000000000000000000000000000000000000000000000000000000000000000000000000",
                    "coinbase" : "0x2adc25665018aa1fe0e6bc666dac8fc2697ff9ba",
                    "difficulty" : "0x020000",
                    "extraData" : "",
                    "gasLimit" : "0x0f4240",
                    "gasUsed" : "0xe6e8",
                    "hash" : "0xc19c473723528101d14f01f34cf67c8642c835650099d28aac73780e955bdde3",
                    "mixHash" : "0x0000000000000000000000000000000000000000000000000000000000000000",
                    "nonce" : "0x0000000000000000",
                    "number" : "0x01",
                    "parentHash" : "0x5d873fd1d25cd580bd19755c2bb445e1cfc95d0f951eaaee9745f62833d805ea",
                    "receiptTrie" : "0x33840cb6b1388290f5261f62db27524769b83bd7cfb5ba9ee97b88080cd4d6c7",
                    "stateRoot" : "0x55f903c0b4ec948be07714b1dc36e16a92bae9dfdd28cb9d1c5199bfc2c4df30",
                    "timestamp" : "0x03e8",
                    "transactionsTrie" : "0x7af7ff34e7d0a8b77a04fb7e3b69b3772b7fd1d8c1dcabff11039cae0672732c",
                    "uncleHash" : "0x1dcc4de8dec75d7aab85b567b6ccd41ad312451b948a7413f0a142fd40d49347"
                },
                "rlp" : "0xf90280f901f7a05d873fd1d25cd580bd19755c2bb445e1cfc95d0f951eaaee9745f62833d805eaa01dcc4de8dec75d7aab85b567b6ccd41ad312451b948a7413f0a142fd40d49347942adc25665018aa1fe0e6bc666dac8fc2697ff9baa055f903c0b4ec948be07714b1dc36e16a92bae9dfdd28cb9d1c5199bfc2c4df30a07af7ff34e7d0a8b77a04fb7e3b69b3772b7fd1d8c1dcabff11039cae0672732ca033840cb6b1388290f5261f62db27524769b83bd7cfb5ba9ee97b88080cd4d6c7b90100000000000000000000000000000000000000000000000000000000000000000000000000000000000000000000000000000000000000000000000000000000000000000000000000000000000000000000000000000000000000000000000000000000000000000000000000000000000000000000000000000000000000000000000000000000000000000000000000000000000000000000000000000000000000000000000000000000000000000000000000000000000000000000000000000000000000000000000000000000000000000000000000000000000000000000000000000000000000000000000000000000000000000000000000000000008302000001830f424082e6e88203e880a00000000000000000000000000000000000000000000000000000000000000000880000000000000000f883f8818001830f4240800ab5305032503350600460006000396000515060046000600037600051506f600060006000600060003060405a03f160005260106010f31ba077fd122f22775b2a472c013825e36bb717bdde2c259e4da7634e3e3f405e9d42a0257245ae942b235c1972173abc056dde77fa599abbdea3cb62672544020e429cc0",
                "transactions" : [
                    {
                        "data" : "0x305032503350600460006000396000515060046000600037600051506f600060006000600060003060405a03f160005260106010f3",
                        "gasLimit" : "0x0f4240",
                        "gasPrice" : "0x01",
                        "nonce" : "0x00",
                        "r" : "0x77fd122f22775b2a472c013825e36bb717bdde2c259e4da7634e3e3f405e9d42",
                        "s" : "0x257245ae942b235c1972173abc056dde77fa599abbdea3cb62672544020e429c",
                        "to" : "",
                        "v" : "0x1b",
                        "value" : "0x0a"
                    }
                ],
                "uncleHeaders" : [
                ]
            }
        ],
        "genesisBlockHeader" : {
            "bloom" : "0x00000000000000000000000000000000000000000000000000000000000000000000000000000000000000000000000000000000000000000000000000000000000000000000000000000000000000000000000000000000000000000000000000000000000000000000000000000000000000000000000000000000000000000000000000000000000000000000000000000000000000000000000000000000000000000000000000000000000000000000000000000000000000000000000000000000000000000000000000000000000000000000000000000000000000000000000000000000000000000000000000000000000000000000000000000000",
            "coinbase" : "0x2adc25665018aa1fe0e6bc666dac8fc2697ff9ba",
            "difficulty" : "0x020000",
            "extraData" : "0x42",
            "gasLimit" : "0x0f4240",
            "gasUsed" : "0x00",
            "hash" : "0x5d873fd1d25cd580bd19755c2bb445e1cfc95d0f951eaaee9745f62833d805ea",
            "mixHash" : "0x56e81f171bcc55a6ff8345e692c0f86e5b48e01b996cadc001622fb5e363b421",
            "nonce" : "0x0102030405060708",
            "number" : "0x00",
            "parentHash" : "0x0000000000000000000000000000000000000000000000000000000000000000",
            "receiptTrie" : "0x56e81f171bcc55a6ff8345e692c0f86e5b48e01b996cadc001622fb5e363b421",
            "stateRoot" : "0x9d354f9b5ba851a35eced279ef377111387197581429cfcc7f744ef89a30b5d4",
            "timestamp" : "0x03b6",
            "transactionsTrie" : "0x56e81f171bcc55a6ff8345e692c0f86e5b48e01b996cadc001622fb5e363b421",
            "uncleHash" : "0x1dcc4de8dec75d7aab85b567b6ccd41ad312451b948a7413f0a142fd40d49347"
        },
        "genesisRLP" : "0xf901faf901f5a00000000000000000000000000000000000000000000000000000000000000000a01dcc4de8dec75d7aab85b567b6ccd41ad312451b948a7413f0a142fd40d49347942adc25665018aa1fe0e6bc666dac8fc2697ff9baa09d354f9b5ba851a35eced279ef377111387197581429cfcc7f744ef89a30b5d4a056e81f171bcc55a6ff8345e692c0f86e5b48e01b996cadc001622fb5e363b421a056e81f171bcc55a6ff8345e692c0f86e5b48e01b996cadc001622fb5e363b421b90100000000000000000000000000000000000000000000000000000000000000000000000000000000000000000000000000000000000000000000000000000000000000000000000000000000000000000000000000000000000000000000000000000000000000000000000000000000000000000000000000000000000000000000000000000000000000000000000000000000000000000000000000000000000000000000000000000000000000000000000000000000000000000000000000000000000000000000000000000000000000000000000000000000000000000000000000000000000000000000000000000000000000000000000000000000008302000080830f4240808203b642a056e81f171bcc55a6ff8345e692c0f86e5b48e01b996cadc001622fb5e363b421880102030405060708c0c0",
        "lastblockhash" : "0xc19c473723528101d14f01f34cf67c8642c835650099d28aac73780e955bdde3",
        "network" : "Byzantium",
        "postState" : {
            "0x2adc25665018aa1fe0e6bc666dac8fc2697ff9ba" : {
                "balance" : "0x29a2241af62ce6e8",
                "code" : "",
                "nonce" : "0x00",
                "storage" : {
                }
            },
            "0x6295ee1b4f6dd65047762f924ecd367c17eabf8f" : {
                "balance" : "0x0a",
                "code" : "0x600060006000600060003060405a03f1",
                "nonce" : "0x01",
                "storage" : {
                }
            },
            "0xa94f5374fce5edbc8e2a8697c15331677e6ebf0b" : {
                "balance" : "0x05f4fa0e",
                "code" : "",
                "nonce" : "0x01",
                "storage" : {
                }
            }
        },
        "pre" : {
            "0xa94f5374fce5edbc8e2a8697c15331677e6ebf0b" : {
                "balance" : "0x05f5e100",
                "code" : "",
                "nonce" : "0x00",
                "storage" : {
                }
            }
        },
        "sealEngine" : "NoProof"
    },
    "StackDepthLimitSEC_d0g0v0_Constantinople" : {
        "_info" : {
            "comment" : "",
            "filledwith" : "testeth 1.5.0.dev2-52+commit.d419e0a2",
            "lllcversion" : "Version: 0.4.26-develop.2018.9.19+commit.785cbf40.Linux.g++",
            "source" : "src/BlockchainTestsFiller/GeneralStateTests/stSpecialTest/StackDepthLimitSEC_d0g0v0Filler.json",
            "sourceHash" : "29e1ea034a2a92fb64e9d2c1b9604d1198afd3b1efa1e2897528c19f5365f7c0"
        },
        "blocks" : [
            {
                "blockHeader" : {
                    "bloom" : "0x00000000000000000000000000000000000000000000000000000000000000000000000000000000000000000000000000000000000000000000000000000000000000000000000000000000000000000000000000000000000000000000000000000000000000000000000000000000000000000000000000000000000000000000000000000000000000000000000000000000000000000000000000000000000000000000000000000000000000000000000000000000000000000000000000000000000000000000000000000000000000000000000000000000000000000000000000000000000000000000000000000000000000000000000000000000",
                    "coinbase" : "0x2adc25665018aa1fe0e6bc666dac8fc2697ff9ba",
                    "difficulty" : "0x020000",
                    "extraData" : "",
                    "gasLimit" : "0x0f4240",
                    "gasUsed" : "0xe6e8",
                    "hash" : "0x2398e3b241ee336653e88125485658fc1001a39ec6352d346401781188cabbb9",
                    "mixHash" : "0x0000000000000000000000000000000000000000000000000000000000000000",
                    "nonce" : "0x0000000000000000",
                    "number" : "0x01",
                    "parentHash" : "0x5d873fd1d25cd580bd19755c2bb445e1cfc95d0f951eaaee9745f62833d805ea",
                    "receiptTrie" : "0x33840cb6b1388290f5261f62db27524769b83bd7cfb5ba9ee97b88080cd4d6c7",
                    "stateRoot" : "0xfee431d59a7c1ef6056788c155dd5413b5f4b2a1d8db1ced5a1a173f09661b83",
                    "timestamp" : "0x03e8",
                    "transactionsTrie" : "0x7af7ff34e7d0a8b77a04fb7e3b69b3772b7fd1d8c1dcabff11039cae0672732c",
                    "uncleHash" : "0x1dcc4de8dec75d7aab85b567b6ccd41ad312451b948a7413f0a142fd40d49347"
                },
                "rlp" : "0xf90280f901f7a05d873fd1d25cd580bd19755c2bb445e1cfc95d0f951eaaee9745f62833d805eaa01dcc4de8dec75d7aab85b567b6ccd41ad312451b948a7413f0a142fd40d49347942adc25665018aa1fe0e6bc666dac8fc2697ff9baa0fee431d59a7c1ef6056788c155dd5413b5f4b2a1d8db1ced5a1a173f09661b83a07af7ff34e7d0a8b77a04fb7e3b69b3772b7fd1d8c1dcabff11039cae0672732ca033840cb6b1388290f5261f62db27524769b83bd7cfb5ba9ee97b88080cd4d6c7b90100000000000000000000000000000000000000000000000000000000000000000000000000000000000000000000000000000000000000000000000000000000000000000000000000000000000000000000000000000000000000000000000000000000000000000000000000000000000000000000000000000000000000000000000000000000000000000000000000000000000000000000000000000000000000000000000000000000000000000000000000000000000000000000000000000000000000000000000000000000000000000000000000000000000000000000000000000000000000000000000000000000000000000000000000000000008302000001830f424082e6e88203e880a00000000000000000000000000000000000000000000000000000000000000000880000000000000000f883f8818001830f4240800ab5305032503350600460006000396000515060046000600037600051506f600060006000600060003060405a03f160005260106010f31ba077fd122f22775b2a472c013825e36bb717bdde2c259e4da7634e3e3f405e9d42a0257245ae942b235c1972173abc056dde77fa599abbdea3cb62672544020e429cc0",
                "transactions" : [
                    {
                        "data" : "0x305032503350600460006000396000515060046000600037600051506f600060006000600060003060405a03f160005260106010f3",
                        "gasLimit" : "0x0f4240",
                        "gasPrice" : "0x01",
                        "nonce" : "0x00",
                        "r" : "0x77fd122f22775b2a472c013825e36bb717bdde2c259e4da7634e3e3f405e9d42",
                        "s" : "0x257245ae942b235c1972173abc056dde77fa599abbdea3cb62672544020e429c",
                        "to" : "",
                        "v" : "0x1b",
                        "value" : "0x0a"
                    }
                ],
                "uncleHeaders" : [
                ]
            }
        ],
        "genesisBlockHeader" : {
            "bloom" : "0x00000000000000000000000000000000000000000000000000000000000000000000000000000000000000000000000000000000000000000000000000000000000000000000000000000000000000000000000000000000000000000000000000000000000000000000000000000000000000000000000000000000000000000000000000000000000000000000000000000000000000000000000000000000000000000000000000000000000000000000000000000000000000000000000000000000000000000000000000000000000000000000000000000000000000000000000000000000000000000000000000000000000000000000000000000000",
            "coinbase" : "0x2adc25665018aa1fe0e6bc666dac8fc2697ff9ba",
            "difficulty" : "0x020000",
            "extraData" : "0x42",
            "gasLimit" : "0x0f4240",
            "gasUsed" : "0x00",
            "hash" : "0x5d873fd1d25cd580bd19755c2bb445e1cfc95d0f951eaaee9745f62833d805ea",
            "mixHash" : "0x56e81f171bcc55a6ff8345e692c0f86e5b48e01b996cadc001622fb5e363b421",
            "nonce" : "0x0102030405060708",
            "number" : "0x00",
            "parentHash" : "0x0000000000000000000000000000000000000000000000000000000000000000",
            "receiptTrie" : "0x56e81f171bcc55a6ff8345e692c0f86e5b48e01b996cadc001622fb5e363b421",
            "stateRoot" : "0x9d354f9b5ba851a35eced279ef377111387197581429cfcc7f744ef89a30b5d4",
            "timestamp" : "0x03b6",
            "transactionsTrie" : "0x56e81f171bcc55a6ff8345e692c0f86e5b48e01b996cadc001622fb5e363b421",
            "uncleHash" : "0x1dcc4de8dec75d7aab85b567b6ccd41ad312451b948a7413f0a142fd40d49347"
        },
        "genesisRLP" : "0xf901faf901f5a00000000000000000000000000000000000000000000000000000000000000000a01dcc4de8dec75d7aab85b567b6ccd41ad312451b948a7413f0a142fd40d49347942adc25665018aa1fe0e6bc666dac8fc2697ff9baa09d354f9b5ba851a35eced279ef377111387197581429cfcc7f744ef89a30b5d4a056e81f171bcc55a6ff8345e692c0f86e5b48e01b996cadc001622fb5e363b421a056e81f171bcc55a6ff8345e692c0f86e5b48e01b996cadc001622fb5e363b421b90100000000000000000000000000000000000000000000000000000000000000000000000000000000000000000000000000000000000000000000000000000000000000000000000000000000000000000000000000000000000000000000000000000000000000000000000000000000000000000000000000000000000000000000000000000000000000000000000000000000000000000000000000000000000000000000000000000000000000000000000000000000000000000000000000000000000000000000000000000000000000000000000000000000000000000000000000000000000000000000000000000000000000000000000000000000008302000080830f4240808203b642a056e81f171bcc55a6ff8345e692c0f86e5b48e01b996cadc001622fb5e363b421880102030405060708c0c0",
        "lastblockhash" : "0x2398e3b241ee336653e88125485658fc1001a39ec6352d346401781188cabbb9",
        "network" : "Constantinople",
        "postState" : {
            "0x2adc25665018aa1fe0e6bc666dac8fc2697ff9ba" : {
                "balance" : "0x1bc16d674ec8e6e8",
                "code" : "",
                "nonce" : "0x00",
                "storage" : {
                }
            },
            "0x6295ee1b4f6dd65047762f924ecd367c17eabf8f" : {
                "balance" : "0x0a",
                "code" : "0x600060006000600060003060405a03f1",
                "nonce" : "0x01",
                "storage" : {
                }
            },
            "0xa94f5374fce5edbc8e2a8697c15331677e6ebf0b" : {
                "balance" : "0x05f4fa0e",
                "code" : "",
                "nonce" : "0x01",
                "storage" : {
                }
            }
        },
        "pre" : {
            "0xa94f5374fce5edbc8e2a8697c15331677e6ebf0b" : {
                "balance" : "0x05f5e100",
                "code" : "",
                "nonce" : "0x00",
                "storage" : {
                }
            }
        },
        "sealEngine" : "NoProof"
    }
}