{
    "refund_multimpleSuicide_d0g0v0_Byzantium" : {
        "_info" : {
            "comment" : "",
            "filledwith" : "testeth 1.5.0.dev2-52+commit.d419e0a2",
            "lllcversion" : "Version: 0.4.26-develop.2018.9.19+commit.785cbf40.Linux.g++",
            "source" : "src/BlockchainTestsFiller/GeneralStateTests/stRefundTest/refund_multimpleSuicide_d0g0v0Filler.json",
            "sourceHash" : "5250a181479731781836a28391b93bca4171a07b6abebc74bdb9410f0ab64c1f"
        },
        "blocks" : [
            {
                "blockHeader" : {
                    "bloom" : "0x00000000000000000000000000000000000000000000000000000000000000000000000000000000000000000000000000000000000000000000000000000000000000000000000000000000000000000000000000000000000000000000000000000000000000000000000000000000000000000000000000000000000000000000000000000000000000000000000000000000000000000000000000000000000000000000000000000000000000000000000000000000000000000000000000000000000000000000000000000000000000000000000000000000000000000000000000000000000000000000000000000000000000000000000000000000",
                    "coinbase" : "0x2adc25665018aa1fe0e6bc666dac8fc2697ff9ba",
                    "difficulty" : "0x020000",
                    "extraData" : "",
                    "gasLimit" : "0x0f4240",
                    "gasUsed" : "0x4154",
                    "hash" : "0x3a19eae18b4bdced896e6362b6a3abcd6c3f45278dd175f345aac0582eeb2868",
                    "mixHash" : "0x0000000000000000000000000000000000000000000000000000000000000000",
                    "nonce" : "0x0000000000000000",
                    "number" : "0x01",
                    "parentHash" : "0x26ad69931fd400937498df4bfdf791fda8414567de3dff004e20eeb9ea6fce4b",
                    "receiptTrie" : "0x2ab355f6ada4631292453b5e8b436026295531df25a4ca97b2b94d31c34d0c3c",
                    "stateRoot" : "0x427b5a104020b205a84df021ca742cfd21a80a8a24b24a78a41068de2c220c55",
                    "timestamp" : "0x03e8",
                    "transactionsTrie" : "0x4f1914c634a076b49e3ed15bd3dea65f200e5325bad014d9ac1fd1d355777c10",
                    "uncleHash" : "0x1dcc4de8dec75d7aab85b567b6ccd41ad312451b948a7413f0a142fd40d49347"
                },
                "rlp" : "0xf90263f901f7a026ad69931fd400937498df4bfdf791fda8414567de3dff004e20eeb9ea6fce4ba01dcc4de8dec75d7aab85b567b6ccd41ad312451b948a7413f0a142fd40d49347942adc25665018aa1fe0e6bc666dac8fc2697ff9baa0427b5a104020b205a84df021ca742cfd21a80a8a24b24a78a41068de2c220c55a04f1914c634a076b49e3ed15bd3dea65f200e5325bad014d9ac1fd1d355777c10a02ab355f6ada4631292453b5e8b436026295531df25a4ca97b2b94d31c34d0c3cb90100000000000000000000000000000000000000000000000000000000000000000000000000000000000000000000000000000000000000000000000000000000000000000000000000000000000000000000000000000000000000000000000000000000000000000000000000000000000000000000000000000000000000000000000000000000000000000000000000000000000000000000000000000000000000000000000000000000000000000000000000000000000000000000000000000000000000000000000000000000000000000000000000000000000000000000000000000000000000000000000000000000000000000000000000000000008302000001830f42408241548203e880a00000000000000000000000000000000000000000000000000000000000000000880000000000000000f866f8648001830493e09410000000000000000000000000000000000000018084c04062261ba06c7a67f0afeb37026a7b6d1e029cb15887fed2b363cd5ee95c56a6cb1ae1f525a02fea0a6c8ddf75b659dedafa27f2e5854537b18b77e219352ec0079b678ab40fc0",
                "transactions" : [
                    {
                        "data" : "0xc0406226",
                        "gasLimit" : "0x0493e0",
                        "gasPrice" : "0x01",
                        "nonce" : "0x00",
                        "r" : "0x6c7a67f0afeb37026a7b6d1e029cb15887fed2b363cd5ee95c56a6cb1ae1f525",
                        "s" : "0x2fea0a6c8ddf75b659dedafa27f2e5854537b18b77e219352ec0079b678ab40f",
                        "to" : "0x1000000000000000000000000000000000000001",
                        "v" : "0x1b",
                        "value" : "0x00"
                    }
                ],
                "uncleHeaders" : [
                ]
            }
        ],
        "genesisBlockHeader" : {
            "bloom" : "0x00000000000000000000000000000000000000000000000000000000000000000000000000000000000000000000000000000000000000000000000000000000000000000000000000000000000000000000000000000000000000000000000000000000000000000000000000000000000000000000000000000000000000000000000000000000000000000000000000000000000000000000000000000000000000000000000000000000000000000000000000000000000000000000000000000000000000000000000000000000000000000000000000000000000000000000000000000000000000000000000000000000000000000000000000000000",
            "coinbase" : "0x2adc25665018aa1fe0e6bc666dac8fc2697ff9ba",
            "difficulty" : "0x020000",
            "extraData" : "0x42",
            "gasLimit" : "0x0f4240",
            "gasUsed" : "0x00",
            "hash" : "0x26ad69931fd400937498df4bfdf791fda8414567de3dff004e20eeb9ea6fce4b",
            "mixHash" : "0x56e81f171bcc55a6ff8345e692c0f86e5b48e01b996cadc001622fb5e363b421",
            "nonce" : "0x0102030405060708",
            "number" : "0x00",
            "parentHash" : "0x0000000000000000000000000000000000000000000000000000000000000000",
            "receiptTrie" : "0x56e81f171bcc55a6ff8345e692c0f86e5b48e01b996cadc001622fb5e363b421",
            "stateRoot" : "0x3de4c88ce71baf0bf8c4b23828faf822f30a1b43a22485fb23fea9ca19765f90",
            "timestamp" : "0x03b6",
            "transactionsTrie" : "0x56e81f171bcc55a6ff8345e692c0f86e5b48e01b996cadc001622fb5e363b421",
            "uncleHash" : "0x1dcc4de8dec75d7aab85b567b6ccd41ad312451b948a7413f0a142fd40d49347"
        },
        "genesisRLP" : "0xf901faf901f5a00000000000000000000000000000000000000000000000000000000000000000a01dcc4de8dec75d7aab85b567b6ccd41ad312451b948a7413f0a142fd40d49347942adc25665018aa1fe0e6bc666dac8fc2697ff9baa03de4c88ce71baf0bf8c4b23828faf822f30a1b43a22485fb23fea9ca19765f90a056e81f171bcc55a6ff8345e692c0f86e5b48e01b996cadc001622fb5e363b421a056e81f171bcc55a6ff8345e692c0f86e5b48e01b996cadc001622fb5e363b421b90100000000000000000000000000000000000000000000000000000000000000000000000000000000000000000000000000000000000000000000000000000000000000000000000000000000000000000000000000000000000000000000000000000000000000000000000000000000000000000000000000000000000000000000000000000000000000000000000000000000000000000000000000000000000000000000000000000000000000000000000000000000000000000000000000000000000000000000000000000000000000000000000000000000000000000000000000000000000000000000000000000000000000000000000000000000008302000080830f4240808203b642a056e81f171bcc55a6ff8345e692c0f86e5b48e01b996cadc001622fb5e363b421880102030405060708c0c0",
        "lastblockhash" : "0x3a19eae18b4bdced896e6362b6a3abcd6c3f45278dd175f345aac0582eeb2868",
        "network" : "Byzantium",
        "postState" : {
            "0x2adc25665018aa1fe0e6bc666dac8fc2697ff9ba" : {
                "balance" : "0x29a2241af62c4154",
                "code" : "",
                "nonce" : "0x00",
                "storage" : {
                }
            },
            "0xa94f5374fce5edbc8e2a8697c15331677e6ebf0b" : {
                "balance" : "0x04528c",
                "code" : "",
                "nonce" : "0x01",
                "storage" : {
                }
            }
        },
        "pre" : {
            "0x1000000000000000000000000000000000000001" : {
                "balance" : "0x0de0b6b3a7640000",
                "code" : "0x606060405260e060020a600035046309e587a58114610031578063c04062261461004d578063dd4f1f2a1461005a575b005b61002f3373ffffffffffffffffffffffffffffffffffffffff16ff5b6100f5600061010961005e565b61002f5b60003090508073ffffffffffffffffffffffffffffffffffffffff166309e587a56040518160e060020a0281526004018090506000604051808303816000876161da5a03f1156100025750604080517f09e587a500000000000000000000000000000000000000000000000000000000815290516004828101926000929190829003018183876161da5a03f1156100025750505050565b604080519115158252519081900360200190f35b5060019056",
                "nonce" : "0x00",
                "storage" : {
                }
            },
            "0xa94f5374fce5edbc8e2a8697c15331677e6ebf0b" : {
                "balance" : "0x0493e0",
                "code" : "",
                "nonce" : "0x00",
                "storage" : {
                }
            }
        },
        "sealEngine" : "NoProof"
    },
    "refund_multimpleSuicide_d0g0v0_Constantinople" : {
        "_info" : {
            "comment" : "",
            "filledwith" : "testeth 1.5.0.dev2-52+commit.d419e0a2",
            "lllcversion" : "Version: 0.4.26-develop.2018.9.19+commit.785cbf40.Linux.g++",
            "source" : "src/BlockchainTestsFiller/GeneralStateTests/stRefundTest/refund_multimpleSuicide_d0g0v0Filler.json",
            "sourceHash" : "5250a181479731781836a28391b93bca4171a07b6abebc74bdb9410f0ab64c1f"
        },
        "blocks" : [
            {
                "blockHeader" : {
                    "bloom" : "0x00000000000000000000000000000000000000000000000000000000000000000000000000000000000000000000000000000000000000000000000000000000000000000000000000000000000000000000000000000000000000000000000000000000000000000000000000000000000000000000000000000000000000000000000000000000000000000000000000000000000000000000000000000000000000000000000000000000000000000000000000000000000000000000000000000000000000000000000000000000000000000000000000000000000000000000000000000000000000000000000000000000000000000000000000000000",
                    "coinbase" : "0x2adc25665018aa1fe0e6bc666dac8fc2697ff9ba",
                    "difficulty" : "0x020000",
                    "extraData" : "",
                    "gasLimit" : "0x0f4240",
                    "gasUsed" : "0x4154",
                    "hash" : "0xb9e1c000e4208f9181b94031e09a101fdf479f7abc99424afe2d137ca2802f47",
                    "mixHash" : "0x0000000000000000000000000000000000000000000000000000000000000000",
                    "nonce" : "0x0000000000000000",
                    "number" : "0x01",
                    "parentHash" : "0x26ad69931fd400937498df4bfdf791fda8414567de3dff004e20eeb9ea6fce4b",
                    "receiptTrie" : "0x2ab355f6ada4631292453b5e8b436026295531df25a4ca97b2b94d31c34d0c3c",
                    "stateRoot" : "0x2f249910bb4d1dd72462cd07309d7b2fb4a449c324d02e69e39ad7b08364062b",
                    "timestamp" : "0x03e8",
                    "transactionsTrie" : "0x4f1914c634a076b49e3ed15bd3dea65f200e5325bad014d9ac1fd1d355777c10",
                    "uncleHash" : "0x1dcc4de8dec75d7aab85b567b6ccd41ad312451b948a7413f0a142fd40d49347"
                },
                "rlp" : "0xf90263f901f7a026ad69931fd400937498df4bfdf791fda8414567de3dff004e20eeb9ea6fce4ba01dcc4de8dec75d7aab85b567b6ccd41ad312451b948a7413f0a142fd40d49347942adc25665018aa1fe0e6bc666dac8fc2697ff9baa02f249910bb4d1dd72462cd07309d7b2fb4a449c324d02e69e39ad7b08364062ba04f1914c634a076b49e3ed15bd3dea65f200e5325bad014d9ac1fd1d355777c10a02ab355f6ada4631292453b5e8b436026295531df25a4ca97b2b94d31c34d0c3cb90100000000000000000000000000000000000000000000000000000000000000000000000000000000000000000000000000000000000000000000000000000000000000000000000000000000000000000000000000000000000000000000000000000000000000000000000000000000000000000000000000000000000000000000000000000000000000000000000000000000000000000000000000000000000000000000000000000000000000000000000000000000000000000000000000000000000000000000000000000000000000000000000000000000000000000000000000000000000000000000000000000000000000000000000000000000008302000001830f42408241548203e880a00000000000000000000000000000000000000000000000000000000000000000880000000000000000f866f8648001830493e09410000000000000000000000000000000000000018084c04062261ba06c7a67f0afeb37026a7b6d1e029cb15887fed2b363cd5ee95c56a6cb1ae1f525a02fea0a6c8ddf75b659dedafa27f2e5854537b18b77e219352ec0079b678ab40fc0",
                "transactions" : [
                    {
                        "data" : "0xc0406226",
                        "gasLimit" : "0x0493e0",
                        "gasPrice" : "0x01",
                        "nonce" : "0x00",
                        "r" : "0x6c7a67f0afeb37026a7b6d1e029cb15887fed2b363cd5ee95c56a6cb1ae1f525",
                        "s" : "0x2fea0a6c8ddf75b659dedafa27f2e5854537b18b77e219352ec0079b678ab40f",
                        "to" : "0x1000000000000000000000000000000000000001",
                        "v" : "0x1b",
                        "value" : "0x00"
                    }
                ],
                "uncleHeaders" : [
                ]
            }
        ],
        "genesisBlockHeader" : {
            "bloom" : "0x00000000000000000000000000000000000000000000000000000000000000000000000000000000000000000000000000000000000000000000000000000000000000000000000000000000000000000000000000000000000000000000000000000000000000000000000000000000000000000000000000000000000000000000000000000000000000000000000000000000000000000000000000000000000000000000000000000000000000000000000000000000000000000000000000000000000000000000000000000000000000000000000000000000000000000000000000000000000000000000000000000000000000000000000000000000",
            "coinbase" : "0x2adc25665018aa1fe0e6bc666dac8fc2697ff9ba",
            "difficulty" : "0x020000",
            "extraData" : "0x42",
            "gasLimit" : "0x0f4240",
            "gasUsed" : "0x00",
            "hash" : "0x26ad69931fd400937498df4bfdf791fda8414567de3dff004e20eeb9ea6fce4b",
            "mixHash" : "0x56e81f171bcc55a6ff8345e692c0f86e5b48e01b996cadc001622fb5e363b421",
            "nonce" : "0x0102030405060708",
            "number" : "0x00",
            "parentHash" : "0x0000000000000000000000000000000000000000000000000000000000000000",
            "receiptTrie" : "0x56e81f171bcc55a6ff8345e692c0f86e5b48e01b996cadc001622fb5e363b421",
            "stateRoot" : "0x3de4c88ce71baf0bf8c4b23828faf822f30a1b43a22485fb23fea9ca19765f90",
            "timestamp" : "0x03b6",
            "transactionsTrie" : "0x56e81f171bcc55a6ff8345e692c0f86e5b48e01b996cadc001622fb5e363b421",
            "uncleHash" : "0x1dcc4de8dec75d7aab85b567b6ccd41ad312451b948a7413f0a142fd40d49347"
        },
        "genesisRLP" : "0xf901faf901f5a00000000000000000000000000000000000000000000000000000000000000000a01dcc4de8dec75d7aab85b567b6ccd41ad312451b948a7413f0a142fd40d49347942adc25665018aa1fe0e6bc666dac8fc2697ff9baa03de4c88ce71baf0bf8c4b23828faf822f30a1b43a22485fb23fea9ca19765f90a056e81f171bcc55a6ff8345e692c0f86e5b48e01b996cadc001622fb5e363b421a056e81f171bcc55a6ff8345e692c0f86e5b48e01b996cadc001622fb5e363b421b90100000000000000000000000000000000000000000000000000000000000000000000000000000000000000000000000000000000000000000000000000000000000000000000000000000000000000000000000000000000000000000000000000000000000000000000000000000000000000000000000000000000000000000000000000000000000000000000000000000000000000000000000000000000000000000000000000000000000000000000000000000000000000000000000000000000000000000000000000000000000000000000000000000000000000000000000000000000000000000000000000000000000000000000000000000000008302000080830f4240808203b642a056e81f171bcc55a6ff8345e692c0f86e5b48e01b996cadc001622fb5e363b421880102030405060708c0c0",
        "lastblockhash" : "0xb9e1c000e4208f9181b94031e09a101fdf479f7abc99424afe2d137ca2802f47",
        "network" : "Constantinople",
        "postState" : {
            "0x2adc25665018aa1fe0e6bc666dac8fc2697ff9ba" : {
                "balance" : "0x1bc16d674ec84154",
                "code" : "",
                "nonce" : "0x00",
                "storage" : {
                }
            },
            "0xa94f5374fce5edbc8e2a8697c15331677e6ebf0b" : {
                "balance" : "0x04528c",
                "code" : "",
                "nonce" : "0x01",
                "storage" : {
                }
            }
        },
        "pre" : {
            "0x1000000000000000000000000000000000000001" : {
                "balance" : "0x0de0b6b3a7640000",
                "code" : "0x606060405260e060020a600035046309e587a58114610031578063c04062261461004d578063dd4f1f2a1461005a575b005b61002f3373ffffffffffffffffffffffffffffffffffffffff16ff5b6100f5600061010961005e565b61002f5b60003090508073ffffffffffffffffffffffffffffffffffffffff166309e587a56040518160e060020a0281526004018090506000604051808303816000876161da5a03f1156100025750604080517f09e587a500000000000000000000000000000000000000000000000000000000815290516004828101926000929190829003018183876161da5a03f1156100025750505050565b604080519115158252519081900360200190f35b5060019056",
                "nonce" : "0x00",
                "storage" : {
                }
            },
            "0xa94f5374fce5edbc8e2a8697c15331677e6ebf0b" : {
                "balance" : "0x0493e0",
                "code" : "",
                "nonce" : "0x00",
                "storage" : {
                }
            }
        },
        "sealEngine" : "NoProof"
    }
}