{
    "CalltoReturn2_d0g0v0_Byzantium" : {
        "_info" : {
            "comment" : "",
            "filledwith" : "testeth 1.5.0.dev2-52+commit.d419e0a2",
            "lllcversion" : "Version: 0.4.26-develop.2018.9.19+commit.785cbf40.Linux.g++",
            "source" : "src/BlockchainTestsFiller/GeneralStateTests/stSystemOperationsTest/CalltoReturn2_d0g0v0Filler.json",
            "sourceHash" : "ec025371d175d78c84b46f8f2fc44bfc7c0808e06e6d8f941566042ea73b6cbe"
        },
        "blocks" : [
            {
                "blockHeader" : {
                    "bloom" : "0x00000000000000000000000000000000000000000000000000000000000000000000000000000000000000000000000000000000000000000000000000000000000000000000000000000000000000000000000000000000000000000000000000000000000000000000000000000000000000000000000000000000000000000000000000000000000000000000000000000000000000000000000000000000000000000000000000000000000000000000000000000000000000000000000000000000000000000000000000000000000000000000000000000000000000000000000000000000000000000000000000000000000000000000000000000000",
                    "coinbase" : "0x2adc25665018aa1fe0e6bc666dac8fc2697ff9ba",
                    "difficulty" : "0x020000",
                    "extraData" : "",
                    "gasLimit" : "0x989680",
                    "gasUsed" : "0x9f2c",
                    "hash" : "0x9a1deceda444e7b35a4aace42f251a38bec22e74073680eaecc347d423262182",
                    "mixHash" : "0x0000000000000000000000000000000000000000000000000000000000000000",
                    "nonce" : "0x0000000000000000",
                    "number" : "0x01",
                    "parentHash" : "0x4fdb546333c62bd2397ca21a000b293a7e4e30c39e6fb423eb5e4c249c9ba5e3",
                    "receiptTrie" : "0x80cc47ef43e324d5e47c1b9486d2dcabf160815af769603eb7a0f999367d91f2",
                    "stateRoot" : "0x3764dd852856e107a9e4442423a05531d05a7bf2b578cab9fe4be2866473fa9b",
                    "timestamp" : "0x03e8",
                    "transactionsTrie" : "0x4c5d9bb466add019c254559eb55e402a66b7a663b97d86eeb12deae7631cbd0b",
                    "uncleHash" : "0x1dcc4de8dec75d7aab85b567b6ccd41ad312451b948a7413f0a142fd40d49347"
                },
                "rlp" : "0xf90262f901f7a04fdb546333c62bd2397ca21a000b293a7e4e30c39e6fb423eb5e4c249c9ba5e3a01dcc4de8dec75d7aab85b567b6ccd41ad312451b948a7413f0a142fd40d49347942adc25665018aa1fe0e6bc666dac8fc2697ff9baa03764dd852856e107a9e4442423a05531d05a7bf2b578cab9fe4be2866473fa9ba04c5d9bb466add019c254559eb55e402a66b7a663b97d86eeb12deae7631cbd0ba080cc47ef43e324d5e47c1b9486d2dcabf160815af769603eb7a0f999367d91f2b9010000000000000000000000000000000000000000000000000000000000000000000000000000000000000000000000000000000000000000000000000000000000000000000000000000000000000000000000000000000000000000000000000000000000000000000000000000000000000000000000000000000000000000000000000000000000000000000000000000000000000000000000000000000000000000000000000000000000000000000000000000000000000000000000000000000000000000000000000000000000000000000000000000000000000000000000000000000000000000000000000000000000000000000000000000000000830200000183989680829f2c8203e880a00000000000000000000000000000000000000000000000000000000000000000880000000000000000f865f8638001830493e094095e7baea6a6c7c4c2dfeb977efac326af552d87830186a0801ca0b7b326b8747eeaff9ae985a58e503e301493c7ab2856c9b20784c4f037922ecaa053780225776bc2a5f72cc94db55b70f378ffb5e0fb4354ab276437f7be3e6ec1c0",
                "transactions" : [
                    {
                        "data" : "0x",
                        "gasLimit" : "0x0493e0",
                        "gasPrice" : "0x01",
                        "nonce" : "0x00",
                        "r" : "0xb7b326b8747eeaff9ae985a58e503e301493c7ab2856c9b20784c4f037922eca",
                        "s" : "0x53780225776bc2a5f72cc94db55b70f378ffb5e0fb4354ab276437f7be3e6ec1",
                        "to" : "0x095e7baea6a6c7c4c2dfeb977efac326af552d87",
                        "v" : "0x1c",
                        "value" : "0x0186a0"
                    }
                ],
                "uncleHeaders" : [
                ]
            }
        ],
        "genesisBlockHeader" : {
            "bloom" : "0x00000000000000000000000000000000000000000000000000000000000000000000000000000000000000000000000000000000000000000000000000000000000000000000000000000000000000000000000000000000000000000000000000000000000000000000000000000000000000000000000000000000000000000000000000000000000000000000000000000000000000000000000000000000000000000000000000000000000000000000000000000000000000000000000000000000000000000000000000000000000000000000000000000000000000000000000000000000000000000000000000000000000000000000000000000000",
            "coinbase" : "0x2adc25665018aa1fe0e6bc666dac8fc2697ff9ba",
            "difficulty" : "0x020000",
            "extraData" : "0x42",
            "gasLimit" : "0x989680",
            "gasUsed" : "0x00",
            "hash" : "0x4fdb546333c62bd2397ca21a000b293a7e4e30c39e6fb423eb5e4c249c9ba5e3",
            "mixHash" : "0x56e81f171bcc55a6ff8345e692c0f86e5b48e01b996cadc001622fb5e363b421",
            "nonce" : "0x0102030405060708",
            "number" : "0x00",
            "parentHash" : "0x0000000000000000000000000000000000000000000000000000000000000000",
            "receiptTrie" : "0x56e81f171bcc55a6ff8345e692c0f86e5b48e01b996cadc001622fb5e363b421",
            "stateRoot" : "0x3d23e46cdefbf8c9b914359330e938f8b92d7737f948ae3892abf78e3a7daa8a",
            "timestamp" : "0x03b6",
            "transactionsTrie" : "0x56e81f171bcc55a6ff8345e692c0f86e5b48e01b996cadc001622fb5e363b421",
            "uncleHash" : "0x1dcc4de8dec75d7aab85b567b6ccd41ad312451b948a7413f0a142fd40d49347"
        },
        "genesisRLP" : "0xf901faf901f5a00000000000000000000000000000000000000000000000000000000000000000a01dcc4de8dec75d7aab85b567b6ccd41ad312451b948a7413f0a142fd40d49347942adc25665018aa1fe0e6bc666dac8fc2697ff9baa03d23e46cdefbf8c9b914359330e938f8b92d7737f948ae3892abf78e3a7daa8aa056e81f171bcc55a6ff8345e692c0f86e5b48e01b996cadc001622fb5e363b421a056e81f171bcc55a6ff8345e692c0f86e5b48e01b996cadc001622fb5e363b421b9010000000000000000000000000000000000000000000000000000000000000000000000000000000000000000000000000000000000000000000000000000000000000000000000000000000000000000000000000000000000000000000000000000000000000000000000000000000000000000000000000000000000000000000000000000000000000000000000000000000000000000000000000000000000000000000000000000000000000000000000000000000000000000000000000000000000000000000000000000000000000000000000000000000000000000000000000000000000000000000000000000000000000000000000000000000000830200008083989680808203b642a056e81f171bcc55a6ff8345e692c0f86e5b48e01b996cadc001622fb5e363b421880102030405060708c0c0",
        "lastblockhash" : "0x9a1deceda444e7b35a4aace42f251a38bec22e74073680eaecc347d423262182",
        "network" : "Byzantium",
        "postState" : {
            "0x095e7baea6a6c7c4c2dfeb977efac326af552d87" : {
                "balance" : "0x0de0b6b3a76586a0",
                "code" : "0x7fffffffffffffffffffffffffffffffffffffffffffffffffffffffffffffffff6000527faaffffffffffffffffffffffffffffffffffffffffffffffffffffffffffffaa6020526002600060406000601773945304eb96065b2a98b57a48a06ae28d285a71b5611388f1600055",
                "nonce" : "0x00",
                "storage" : {
                }
            },
            "0x2adc25665018aa1fe0e6bc666dac8fc2697ff9ba" : {
                "balance" : "0x29a2241af62c9f2c",
                "code" : "",
                "nonce" : "0x00",
                "storage" : {
                }
            },
            "0x945304eb96065b2a98b57a48a06ae28d285a71b5" : {
                "balance" : "0x17",
                "code" : "0x6001600155603760005360026000f2",
                "nonce" : "0x00",
                "storage" : {
                }
            },
            "0xa94f5374fce5edbc8e2a8697c15331677e6ebf0b" : {
                "balance" : "0x0de0b6b3a761da34",
                "code" : "",
                "nonce" : "0x01",
                "storage" : {
                }
            }
        },
        "pre" : {
            "0x095e7baea6a6c7c4c2dfeb977efac326af552d87" : {
                "balance" : "0x0de0b6b3a7640000",
                "code" : "0x7fffffffffffffffffffffffffffffffffffffffffffffffffffffffffffffffff6000527faaffffffffffffffffffffffffffffffffffffffffffffffffffffffffffffaa6020526002600060406000601773945304eb96065b2a98b57a48a06ae28d285a71b5611388f1600055",
                "nonce" : "0x00",
                "storage" : {
                }
            },
            "0x945304eb96065b2a98b57a48a06ae28d285a71b5" : {
                "balance" : "0x17",
                "code" : "0x6001600155603760005360026000f2",
                "nonce" : "0x00",
                "storage" : {
                }
            },
            "0xa94f5374fce5edbc8e2a8697c15331677e6ebf0b" : {
                "balance" : "0x0de0b6b3a7640000",
                "code" : "",
                "nonce" : "0x00",
                "storage" : {
                }
            }
        },
        "sealEngine" : "NoProof"
    },
    "CalltoReturn2_d0g0v0_Constantinople" : {
        "_info" : {
            "comment" : "",
            "filledwith" : "testeth 1.5.0.dev2-52+commit.d419e0a2",
            "lllcversion" : "Version: 0.4.26-develop.2018.9.19+commit.785cbf40.Linux.g++",
            "source" : "src/BlockchainTestsFiller/GeneralStateTests/stSystemOperationsTest/CalltoReturn2_d0g0v0Filler.json",
            "sourceHash" : "ec025371d175d78c84b46f8f2fc44bfc7c0808e06e6d8f941566042ea73b6cbe"
        },
        "blocks" : [
            {
                "blockHeader" : {
                    "bloom" : "0x00000000000000000000000000000000000000000000000000000000000000000000000000000000000000000000000000000000000000000000000000000000000000000000000000000000000000000000000000000000000000000000000000000000000000000000000000000000000000000000000000000000000000000000000000000000000000000000000000000000000000000000000000000000000000000000000000000000000000000000000000000000000000000000000000000000000000000000000000000000000000000000000000000000000000000000000000000000000000000000000000000000000000000000000000000000",
                    "coinbase" : "0x2adc25665018aa1fe0e6bc666dac8fc2697ff9ba",
                    "difficulty" : "0x020000",
                    "extraData" : "",
                    "gasLimit" : "0x989680",
                    "gasUsed" : "0x8c6c",
                    "hash" : "0xf7dad7f4fb729772488ed6df0142662d20399a145d0a086360a7652e3f2e951e",
                    "mixHash" : "0x0000000000000000000000000000000000000000000000000000000000000000",
                    "nonce" : "0x0000000000000000",
                    "number" : "0x01",
                    "parentHash" : "0x4fdb546333c62bd2397ca21a000b293a7e4e30c39e6fb423eb5e4c249c9ba5e3",
                    "receiptTrie" : "0xcbb186ae7cb71a1c659541f801b53bbe434bd5853fbe0a75134cb70f9828d6fe",
                    "stateRoot" : "0x65e219dfc0a766ae4743905e4657bf0bd924ce0b43cd27a24d95e6947aded5cb",
                    "timestamp" : "0x03e8",
                    "transactionsTrie" : "0x4c5d9bb466add019c254559eb55e402a66b7a663b97d86eeb12deae7631cbd0b",
                    "uncleHash" : "0x1dcc4de8dec75d7aab85b567b6ccd41ad312451b948a7413f0a142fd40d49347"
                },
                "rlp" : "0xf90262f901f7a04fdb546333c62bd2397ca21a000b293a7e4e30c39e6fb423eb5e4c249c9ba5e3a01dcc4de8dec75d7aab85b567b6ccd41ad312451b948a7413f0a142fd40d49347942adc25665018aa1fe0e6bc666dac8fc2697ff9baa065e219dfc0a766ae4743905e4657bf0bd924ce0b43cd27a24d95e6947aded5cba04c5d9bb466add019c254559eb55e402a66b7a663b97d86eeb12deae7631cbd0ba0cbb186ae7cb71a1c659541f801b53bbe434bd5853fbe0a75134cb70f9828d6feb9010000000000000000000000000000000000000000000000000000000000000000000000000000000000000000000000000000000000000000000000000000000000000000000000000000000000000000000000000000000000000000000000000000000000000000000000000000000000000000000000000000000000000000000000000000000000000000000000000000000000000000000000000000000000000000000000000000000000000000000000000000000000000000000000000000000000000000000000000000000000000000000000000000000000000000000000000000000000000000000000000000000000000000000000000000000000830200000183989680828c6c8203e880a00000000000000000000000000000000000000000000000000000000000000000880000000000000000f865f8638001830493e094095e7baea6a6c7c4c2dfeb977efac326af552d87830186a0801ca0b7b326b8747eeaff9ae985a58e503e301493c7ab2856c9b20784c4f037922ecaa053780225776bc2a5f72cc94db55b70f378ffb5e0fb4354ab276437f7be3e6ec1c0",
                "transactions" : [
                    {
                        "data" : "0x",
                        "gasLimit" : "0x0493e0",
                        "gasPrice" : "0x01",
                        "nonce" : "0x00",
                        "r" : "0xb7b326b8747eeaff9ae985a58e503e301493c7ab2856c9b20784c4f037922eca",
                        "s" : "0x53780225776bc2a5f72cc94db55b70f378ffb5e0fb4354ab276437f7be3e6ec1",
                        "to" : "0x095e7baea6a6c7c4c2dfeb977efac326af552d87",
                        "v" : "0x1c",
                        "value" : "0x0186a0"
                    }
                ],
                "uncleHeaders" : [
                ]
            }
        ],
        "genesisBlockHeader" : {
            "bloom" : "0x00000000000000000000000000000000000000000000000000000000000000000000000000000000000000000000000000000000000000000000000000000000000000000000000000000000000000000000000000000000000000000000000000000000000000000000000000000000000000000000000000000000000000000000000000000000000000000000000000000000000000000000000000000000000000000000000000000000000000000000000000000000000000000000000000000000000000000000000000000000000000000000000000000000000000000000000000000000000000000000000000000000000000000000000000000000",
            "coinbase" : "0x2adc25665018aa1fe0e6bc666dac8fc2697ff9ba",
            "difficulty" : "0x020000",
            "extraData" : "0x42",
            "gasLimit" : "0x989680",
            "gasUsed" : "0x00",
            "hash" : "0x4fdb546333c62bd2397ca21a000b293a7e4e30c39e6fb423eb5e4c249c9ba5e3",
            "mixHash" : "0x56e81f171bcc55a6ff8345e692c0f86e5b48e01b996cadc001622fb5e363b421",
            "nonce" : "0x0102030405060708",
            "number" : "0x00",
            "parentHash" : "0x0000000000000000000000000000000000000000000000000000000000000000",
            "receiptTrie" : "0x56e81f171bcc55a6ff8345e692c0f86e5b48e01b996cadc001622fb5e363b421",
            "stateRoot" : "0x3d23e46cdefbf8c9b914359330e938f8b92d7737f948ae3892abf78e3a7daa8a",
            "timestamp" : "0x03b6",
            "transactionsTrie" : "0x56e81f171bcc55a6ff8345e692c0f86e5b48e01b996cadc001622fb5e363b421",
            "uncleHash" : "0x1dcc4de8dec75d7aab85b567b6ccd41ad312451b948a7413f0a142fd40d49347"
        },
        "genesisRLP" : "0xf901faf901f5a00000000000000000000000000000000000000000000000000000000000000000a01dcc4de8dec75d7aab85b567b6ccd41ad312451b948a7413f0a142fd40d49347942adc25665018aa1fe0e6bc666dac8fc2697ff9baa03d23e46cdefbf8c9b914359330e938f8b92d7737f948ae3892abf78e3a7daa8aa056e81f171bcc55a6ff8345e692c0f86e5b48e01b996cadc001622fb5e363b421a056e81f171bcc55a6ff8345e692c0f86e5b48e01b996cadc001622fb5e363b421b9010000000000000000000000000000000000000000000000000000000000000000000000000000000000000000000000000000000000000000000000000000000000000000000000000000000000000000000000000000000000000000000000000000000000000000000000000000000000000000000000000000000000000000000000000000000000000000000000000000000000000000000000000000000000000000000000000000000000000000000000000000000000000000000000000000000000000000000000000000000000000000000000000000000000000000000000000000000000000000000000000000000000000000000000000000000000830200008083989680808203b642a056e81f171bcc55a6ff8345e692c0f86e5b48e01b996cadc001622fb5e363b421880102030405060708c0c0",
        "lastblockhash" : "0xf7dad7f4fb729772488ed6df0142662d20399a145d0a086360a7652e3f2e951e",
        "network" : "Constantinople",
        "postState" : {
            "0x095e7baea6a6c7c4c2dfeb977efac326af552d87" : {
                "balance" : "0x0de0b6b3a76586a0",
                "code" : "0x7fffffffffffffffffffffffffffffffffffffffffffffffffffffffffffffffff6000527faaffffffffffffffffffffffffffffffffffffffffffffffffffffffffffffaa6020526002600060406000601773945304eb96065b2a98b57a48a06ae28d285a71b5611388f1600055",
                "nonce" : "0x00",
                "storage" : {
                }
            },
            "0x2adc25665018aa1fe0e6bc666dac8fc2697ff9ba" : {
                "balance" : "0x1bc16d674ec88c6c",
                "code" : "",
                "nonce" : "0x00",
                "storage" : {
                }
            },
            "0x945304eb96065b2a98b57a48a06ae28d285a71b5" : {
                "balance" : "0x17",
                "code" : "0x6001600155603760005360026000f2",
                "nonce" : "0x00",
                "storage" : {
                }
            },
            "0xa94f5374fce5edbc8e2a8697c15331677e6ebf0b" : {
                "balance" : "0x0de0b6b3a761ecf4",
                "code" : "",
                "nonce" : "0x01",
                "storage" : {
                }
            }
        },
        "pre" : {
            "0x095e7baea6a6c7c4c2dfeb977efac326af552d87" : {
                "balance" : "0x0de0b6b3a7640000",
                "code" : "0x7fffffffffffffffffffffffffffffffffffffffffffffffffffffffffffffffff6000527faaffffffffffffffffffffffffffffffffffffffffffffffffffffffffffffaa6020526002600060406000601773945304eb96065b2a98b57a48a06ae28d285a71b5611388f1600055",
                "nonce" : "0x00",
                "storage" : {
                }
            },
            "0x945304eb96065b2a98b57a48a06ae28d285a71b5" : {
                "balance" : "0x17",
                "code" : "0x6001600155603760005360026000f2",
                "nonce" : "0x00",
                "storage" : {
                }
            },
            "0xa94f5374fce5edbc8e2a8697c15331677e6ebf0b" : {
                "balance" : "0x0de0b6b3a7640000",
                "code" : "",
                "nonce" : "0x00",
                "storage" : {
                }
            }
        },
        "sealEngine" : "NoProof"
    }
}