{
    "multimpleBalanceInstruction_Byzantium" : {
        "_info" : {
            "comment" : "",
            "filledwith" : "testeth 1.5.0.dev2-72+commit.ff0ca2db",
            "lllcversion" : "Version: 0.5.0-develop.2018.10.10+commit.06200b4b.Linux.g++",
            "source" : "src/BlockchainTestsFiller/bcStateTests/multimpleBalanceInstructionFiller.json",
            "sourceHash" : "a711fe55d8f9af2b2bc444f74330b8861dbdc2747aff86b399be7fd58cf15872"
        },
        "blocks" : [
            {
                "blockHeader" : {
                    "bloom" : "0x00000000000000000000000000000000000000000000000000000000000000000000000000000000000000000000000000000000000000000000000000000000000000000000000000000000000000000000000000000000000000000000000000000000000000000000000000000000000000000000000000000000000000000000000000000000000000000000000000000000000000000000000000000000000000000000000000000000000000000000000000000000000000000000000000000000000000000000000000000000000000000000000000000000000000000000000000000000000000000000000000000000000000000000000000000000",
                    "coinbase" : "0x8888f1f195afa192cfee860698584c030f4c9db1",
                    "difficulty" : "0x020000",
                    "extraData" : "",
                    "gasLimit" : "0x2fefba",
                    "gasUsed" : "0x016b66",
                    "hash" : "0xf1ea3414315b9d3c1ef68a52d4e3aef629010ce30c7a98e01ec7fc255dcdd171",
                    "mixHash" : "0x0000000000000000000000000000000000000000000000000000000000000000",
                    "nonce" : "0x0000000000000000",
                    "number" : "0x01",
                    "parentHash" : "0xe38bef3dadb98e856ea82c7e9813b76a6ec8d9cf60694dd65d800a1669c1a1fd",
                    "receiptTrie" : "0x4b33fa3c9c50b7b9a4500f5c0b1e71ab43362abc81c2cf31fd2b54acf7d750d8",
                    "stateRoot" : "0x6e6be3f633fe0399cb17a9d8238b988a39bd9ab3e0ac0820f4df705a1ee37536",
                    "timestamp" : "0x5bc07ce1",
                    "transactionsTrie" : "0x6fb77a9ddaa64a8e161b643d05533a4093f2be900ad06279b1b56b3bcee3b979",
                    "uncleHash" : "0x1dcc4de8dec75d7aab85b567b6ccd41ad312451b948a7413f0a142fd40d49347"
                },
                "rlp" : "0xf90262f901faa0e38bef3dadb98e856ea82c7e9813b76a6ec8d9cf60694dd65d800a1669c1a1fda01dcc4de8dec75d7aab85b567b6ccd41ad312451b948a7413f0a142fd40d49347948888f1f195afa192cfee860698584c030f4c9db1a06e6be3f633fe0399cb17a9d8238b988a39bd9ab3e0ac0820f4df705a1ee37536a06fb77a9ddaa64a8e161b643d05533a4093f2be900ad06279b1b56b3bcee3b979a04b33fa3c9c50b7b9a4500f5c0b1e71ab43362abc81c2cf31fd2b54acf7d750d8b90100000000000000000000000000000000000000000000000000000000000000000000000000000000000000000000000000000000000000000000000000000000000000000000000000000000000000000000000000000000000000000000000000000000000000000000000000000000000000000000000000000000000000000000000000000000000000000000000000000000000000000000000000000000000000000000000000000000000000000000000000000000000000000000000000000000000000000000000000000000000000000000000000000000000000000000000000000000000000000000000000000000000000000000000000000000008302000001832fefba83016b66845bc07ce180a00000000000000000000000000000000000000000000000000000000000000000880000000000000000f862f860800a830249f094095e7baea6a6c7c4c2dfeb977efac326af552d870a801ba0d42a045ac77a6d4676dd5fbc5104ed7471b6cef2465cfefaa52919b340f942a9a06e4d319aea79e45cde79d337e6edf849ceac505cab65dd41a572cab132d4dccac0",
                "transactions" : [
                    {
                        "data" : "0x",
                        "gasLimit" : "0x0249f0",
                        "gasPrice" : "0x0a",
                        "nonce" : "0x00",
                        "r" : "0xd42a045ac77a6d4676dd5fbc5104ed7471b6cef2465cfefaa52919b340f942a9",
                        "s" : "0x6e4d319aea79e45cde79d337e6edf849ceac505cab65dd41a572cab132d4dcca",
                        "to" : "0x095e7baea6a6c7c4c2dfeb977efac326af552d87",
                        "v" : "0x1b",
                        "value" : "0x0a"
                    }
                ],
                "uncleHeaders" : [
                ]
            },
            {
                "blockHeader" : {
                    "bloom" : "0x00000000000000000000000000000000000000000000000000000000000000000000000000000000000000000000000000000000000000000000000000000000000000000000000000000000000000000000000000000000000000000000000000000000000000000000000000000000000000000000000000000000000000000000000000000000000000000000000000000000000000000000000000000000000000000000000000000000000000000000000000000000000000000000000000000000000000000000000000000000000000000000000000000000000000000000000000000000000000000000000000000000000000000000000000000000",
                    "coinbase" : "0x8888f1f195afa192cfee860698584c030f4c9db1",
                    "difficulty" : "0x020040",
                    "extraData" : "",
                    "gasLimit" : "0x2fefba",
                    "gasUsed" : "0x02304c",
                    "hash" : "0xda401c8b1f2e2bb43423217ba908f30a9f16f34366a2ace6d6f56d34e4c1e917",
                    "mixHash" : "0x0000000000000000000000000000000000000000000000000000000000000000",
                    "nonce" : "0x0000000000000000",
                    "number" : "0x02",
                    "parentHash" : "0xf1ea3414315b9d3c1ef68a52d4e3aef629010ce30c7a98e01ec7fc255dcdd171",
                    "receiptTrie" : "0x9af1b05f3b250eb2110d221b758ef528310519c529c911a0127da79cff0c5793",
                    "stateRoot" : "0x0553d7350e6e6c0b9b06e287352e8c39db15c58b544791eb923c5ebf66d893d9",
                    "timestamp" : "0x5bc07ce2",
                    "transactionsTrie" : "0x0ec2a6fb4e8b6e9423d61e1f2f5144d628c59cfc0bcc98fe1f8d8fd4a6f6f35b",
                    "uncleHash" : "0x1dcc4de8dec75d7aab85b567b6ccd41ad312451b948a7413f0a142fd40d49347"
                },
                "rlp" : "0xf90264f901faa0f1ea3414315b9d3c1ef68a52d4e3aef629010ce30c7a98e01ec7fc255dcdd171a01dcc4de8dec75d7aab85b567b6ccd41ad312451b948a7413f0a142fd40d49347948888f1f195afa192cfee860698584c030f4c9db1a00553d7350e6e6c0b9b06e287352e8c39db15c58b544791eb923c5ebf66d893d9a00ec2a6fb4e8b6e9423d61e1f2f5144d628c59cfc0bcc98fe1f8d8fd4a6f6f35ba09af1b05f3b250eb2110d221b758ef528310519c529c911a0127da79cff0c5793b90100000000000000000000000000000000000000000000000000000000000000000000000000000000000000000000000000000000000000000000000000000000000000000000000000000000000000000000000000000000000000000000000000000000000000000000000000000000000000000000000000000000000000000000000000000000000000000000000000000000000000000000000000000000000000000000000000000000000000000000000000000000000000000000000000000000000000000000000000000000000000000000000000000000000000000000000000000000000000000000000000000000000000000000000000000000008302004002832fefba8302304c845bc07ce280a00000000000000000000000000000000000000000000000000000000000000000880000000000000000f864f862010a830249f094195e7baea6a6c7c4c2dfeb977efac326af552d878203e8801ba06d01fca31ce3065aac598e12f6cee26f63f9162a0ff86ff3bbadf6099c7531dca06d33d52ce23c9fcd69179690e21de794371a38940a590f32f8570eddfd926e71c0",
                "transactions" : [
                    {
                        "data" : "0x",
                        "gasLimit" : "0x0249f0",
                        "gasPrice" : "0x0a",
                        "nonce" : "0x01",
                        "r" : "0x6d01fca31ce3065aac598e12f6cee26f63f9162a0ff86ff3bbadf6099c7531dc",
                        "s" : "0x6d33d52ce23c9fcd69179690e21de794371a38940a590f32f8570eddfd926e71",
                        "to" : "0x195e7baea6a6c7c4c2dfeb977efac326af552d87",
                        "v" : "0x1b",
                        "value" : "0x03e8"
                    }
                ],
                "uncleHeaders" : [
                ]
            }
        ],
        "genesisBlockHeader" : {
            "bloom" : "0x00000000000000000000000000000000000000000000000000000000000000000000000000000000000000000000000000000000000000000000000000000000000000000000000000000000000000000000000000000000000000000000000000000000000000000000000000000000000000000000000000000000000000000000000000000000000000000000000000000000000000000000000000000000000000000000000000000000000000000000000000000000000000000000000000000000000000000000000000000000000000000000000000000000000000000000000000000000000000000000000000000000000000000000000000000000",
            "coinbase" : "0x8888f1f195afa192cfee860698584c030f4c9db1",
            "difficulty" : "0x020000",
            "extraData" : "0x42",
            "gasLimit" : "0x2fefd8",
            "gasUsed" : "0x00",
            "hash" : "0xe38bef3dadb98e856ea82c7e9813b76a6ec8d9cf60694dd65d800a1669c1a1fd",
            "mixHash" : "0x56e81f171bcc55a6ff8345e692c0f86e5b48e01b996cadc001622fb5e363b421",
            "nonce" : "0x0102030405060708",
            "number" : "0x00",
            "parentHash" : "0x0000000000000000000000000000000000000000000000000000000000000000",
            "receiptTrie" : "0x56e81f171bcc55a6ff8345e692c0f86e5b48e01b996cadc001622fb5e363b421",
            "stateRoot" : "0xf403922bfd555a9223f68fc755564004e20d78bb42aae647e867e3b23c48beba",
            "timestamp" : "0x54c98c81",
            "transactionsTrie" : "0x56e81f171bcc55a6ff8345e692c0f86e5b48e01b996cadc001622fb5e363b421",
            "uncleHash" : "0x1dcc4de8dec75d7aab85b567b6ccd41ad312451b948a7413f0a142fd40d49347"
        },
        "genesisRLP" : "0xf901fcf901f7a00000000000000000000000000000000000000000000000000000000000000000a01dcc4de8dec75d7aab85b567b6ccd41ad312451b948a7413f0a142fd40d49347948888f1f195afa192cfee860698584c030f4c9db1a0f403922bfd555a9223f68fc755564004e20d78bb42aae647e867e3b23c48bebaa056e81f171bcc55a6ff8345e692c0f86e5b48e01b996cadc001622fb5e363b421a056e81f171bcc55a6ff8345e692c0f86e5b48e01b996cadc001622fb5e363b421b90100000000000000000000000000000000000000000000000000000000000000000000000000000000000000000000000000000000000000000000000000000000000000000000000000000000000000000000000000000000000000000000000000000000000000000000000000000000000000000000000000000000000000000000000000000000000000000000000000000000000000000000000000000000000000000000000000000000000000000000000000000000000000000000000000000000000000000000000000000000000000000000000000000000000000000000000000000000000000000000000000000000000000000000000000000000008302000080832fefd8808454c98c8142a056e81f171bcc55a6ff8345e692c0f86e5b48e01b996cadc001622fb5e363b421880102030405060708c0c0",
        "lastblockhash" : "0xda401c8b1f2e2bb43423217ba908f30a9f16f34366a2ace6d6f56d34e4c1e917",
        "network" : "Byzantium",
        "postState" : {
            "0x095e7baea6a6c7c4c2dfeb977efac326af552d87" : {
                "balance" : "0x0186aa",
                "code" : "0x73a94f5374fce5edbc8e2a8697c15331677e6ebf0b31600055738888f1f195afa192cfee860698584c030f4c9db13160015573a94f5374fce5edbc8e2a8697c15331677e6ebf0b31600255738888f1f195afa192cfee860698584c030f4c9db13160035573095e7baea6a6c7c4c2dfeb977efac326af552d8731600555",
                "nonce" : "0x00",
                "storage" : {
                    "0x00" : "0x17485b3218",
                    "0x02" : "0x17485b3218",
                    "0x05" : "0x0186aa"
                }
            },
            "0x195e7baea6a6c7c4c2dfeb977efac326af552d87" : {
                "balance" : "0x018a88",
                "code" : "0x73a94f5374fce5edbc8e2a8697c15331677e6ebf0b31600055738888f1f195afa192cfee860698584c030f4c9db13160015573a94f5374fce5edbc8e2a8697c15331677e6ebf0b31600255738888f1f195afa192cfee860698584c030f4c9db13160035573095e7baea6a6c7c4c2dfeb977efac326af552d873160045573195e7baea6a6c7c4c2dfeb977efac326af552d8731600555",
                "nonce" : "0x00",
                "storage" : {
                    "0x00" : "0x17484cfc34",
                    "0x01" : "0x29a2241af63a31fc",
                    "0x02" : "0x17484cfc34",
                    "0x03" : "0x29a2241af63a31fc",
                    "0x04" : "0x0186aa",
                    "0x05" : "0x018a88"
                }
            },
            "0x8888f1f195afa192cfee860698584c030f4c9db1" : {
                "balance" : "0x53444835ec7c14f4",
                "code" : "",
                "nonce" : "0x00",
                "storage" : {
                }
            },
            "0xa94f5374fce5edbc8e2a8697c15331677e6ebf0b" : {
                "balance" : "0x17484dfc9c",
                "code" : "",
                "nonce" : "0x02",
                "storage" : {
                }
            }
        },
        "pre" : {
            "0x095e7baea6a6c7c4c2dfeb977efac326af552d87" : {
                "balance" : "0x0186a0",
                "code" : "0x73a94f5374fce5edbc8e2a8697c15331677e6ebf0b31600055738888f1f195afa192cfee860698584c030f4c9db13160015573a94f5374fce5edbc8e2a8697c15331677e6ebf0b31600255738888f1f195afa192cfee860698584c030f4c9db13160035573095e7baea6a6c7c4c2dfeb977efac326af552d8731600555",
                "nonce" : "0x00",
                "storage" : {
                }
            },
            "0x195e7baea6a6c7c4c2dfeb977efac326af552d87" : {
                "balance" : "0x0186a0",
                "code" : "0x73a94f5374fce5edbc8e2a8697c15331677e6ebf0b31600055738888f1f195afa192cfee860698584c030f4c9db13160015573a94f5374fce5edbc8e2a8697c15331677e6ebf0b31600255738888f1f195afa192cfee860698584c030f4c9db13160035573095e7baea6a6c7c4c2dfeb977efac326af552d873160045573195e7baea6a6c7c4c2dfeb977efac326af552d8731600555",
                "nonce" : "0x00",
                "storage" : {
                }
            },
            "0xa94f5374fce5edbc8e2a8697c15331677e6ebf0b" : {
                "balance" : "0x1748721582",
                "code" : "",
                "nonce" : "0x00",
                "storage" : {
                }
            }
        },
        "sealEngine" : "NoProof"
    },
    "multimpleBalanceInstruction_Constantinople" : {
        "_info" : {
            "comment" : "",
            "filledwith" : "testeth 1.5.0.dev2-72+commit.ff0ca2db",
            "lllcversion" : "Version: 0.5.0-develop.2018.10.10+commit.06200b4b.Linux.g++",
            "source" : "src/BlockchainTestsFiller/bcStateTests/multimpleBalanceInstructionFiller.json",
            "sourceHash" : "a711fe55d8f9af2b2bc444f74330b8861dbdc2747aff86b399be7fd58cf15872"
        },
        "blocks" : [
            {
                "blockHeader" : {
                    "bloom" : "0x00000000000000000000000000000000000000000000000000000000000000000000000000000000000000000000000000000000000000000000000000000000000000000000000000000000000000000000000000000000000000000000000000000000000000000000000000000000000000000000000000000000000000000000000000000000000000000000000000000000000000000000000000000000000000000000000000000000000000000000000000000000000000000000000000000000000000000000000000000000000000000000000000000000000000000000000000000000000000000000000000000000000000000000000000000000",
                    "coinbase" : "0x8888f1f195afa192cfee860698584c030f4c9db1",
                    "difficulty" : "0x020000",
                    "extraData" : "",
                    "gasLimit" : "0x2fefba",
                    "gasUsed" : "0x0145e6",
                    "hash" : "0xa37e5b2b2130514ab9e28099c2a86d25cdee4d019efa30dc73e53bc780f01ca1",
                    "mixHash" : "0x0000000000000000000000000000000000000000000000000000000000000000",
                    "nonce" : "0x0000000000000000",
                    "number" : "0x01",
                    "parentHash" : "0xe38bef3dadb98e856ea82c7e9813b76a6ec8d9cf60694dd65d800a1669c1a1fd",
                    "receiptTrie" : "0xa232d94f65ede4a68e6389865d421e886df1005075d35904c69c1e8df124bba4",
                    "stateRoot" : "0x18546c37ae43782429d143c3301c1c9ea38dae4d4b9b35779e23d5613fff4e01",
                    "timestamp" : "0x5bc07ce1",
                    "transactionsTrie" : "0x6fb77a9ddaa64a8e161b643d05533a4093f2be900ad06279b1b56b3bcee3b979",
                    "uncleHash" : "0x1dcc4de8dec75d7aab85b567b6ccd41ad312451b948a7413f0a142fd40d49347"
                },
                "rlp" : "0xf90262f901faa0e38bef3dadb98e856ea82c7e9813b76a6ec8d9cf60694dd65d800a1669c1a1fda01dcc4de8dec75d7aab85b567b6ccd41ad312451b948a7413f0a142fd40d49347948888f1f195afa192cfee860698584c030f4c9db1a018546c37ae43782429d143c3301c1c9ea38dae4d4b9b35779e23d5613fff4e01a06fb77a9ddaa64a8e161b643d05533a4093f2be900ad06279b1b56b3bcee3b979a0a232d94f65ede4a68e6389865d421e886df1005075d35904c69c1e8df124bba4b90100000000000000000000000000000000000000000000000000000000000000000000000000000000000000000000000000000000000000000000000000000000000000000000000000000000000000000000000000000000000000000000000000000000000000000000000000000000000000000000000000000000000000000000000000000000000000000000000000000000000000000000000000000000000000000000000000000000000000000000000000000000000000000000000000000000000000000000000000000000000000000000000000000000000000000000000000000000000000000000000000000000000000000000000000000000008302000001832fefba830145e6845bc07ce180a00000000000000000000000000000000000000000000000000000000000000000880000000000000000f862f860800a830249f094095e7baea6a6c7c4c2dfeb977efac326af552d870a801ba0d42a045ac77a6d4676dd5fbc5104ed7471b6cef2465cfefaa52919b340f942a9a06e4d319aea79e45cde79d337e6edf849ceac505cab65dd41a572cab132d4dccac0",
                "transactions" : [
                    {
                        "data" : "0x",
                        "gasLimit" : "0x0249f0",
                        "gasPrice" : "0x0a",
                        "nonce" : "0x00",
                        "r" : "0xd42a045ac77a6d4676dd5fbc5104ed7471b6cef2465cfefaa52919b340f942a9",
                        "s" : "0x6e4d319aea79e45cde79d337e6edf849ceac505cab65dd41a572cab132d4dcca",
                        "to" : "0x095e7baea6a6c7c4c2dfeb977efac326af552d87",
                        "v" : "0x1b",
                        "value" : "0x0a"
                    }
                ],
                "uncleHeaders" : [
                ]
            },
            {
                "blockHeader" : {
                    "bloom" : "0x00000000000000000000000000000000000000000000000000000000000000000000000000000000000000000000000000000000000000000000000000000000000000000000000000000000000000000000000000000000000000000000000000000000000000000000000000000000000000000000000000000000000000000000000000000000000000000000000000000000000000000000000000000000000000000000000000000000000000000000000000000000000000000000000000000000000000000000000000000000000000000000000000000000000000000000000000000000000000000000000000000000000000000000000000000000",
                    "coinbase" : "0x8888f1f195afa192cfee860698584c030f4c9db1",
                    "difficulty" : "0x020040",
                    "extraData" : "",
                    "gasLimit" : "0x2fefba",
                    "gasUsed" : "0x02304c",
                    "hash" : "0x1742cb07e6a74e0e2710f85e55eb52b0623b1bb55c146f4abe68d244d46b5d6c",
                    "mixHash" : "0x0000000000000000000000000000000000000000000000000000000000000000",
                    "nonce" : "0x0000000000000000",
                    "number" : "0x02",
                    "parentHash" : "0xa37e5b2b2130514ab9e28099c2a86d25cdee4d019efa30dc73e53bc780f01ca1",
                    "receiptTrie" : "0x9af1b05f3b250eb2110d221b758ef528310519c529c911a0127da79cff0c5793",
                    "stateRoot" : "0xf6a26018689538542d1f951989173f74ed708da44fbd9317ac67bc7061905e36",
                    "timestamp" : "0x5bc07ce2",
                    "transactionsTrie" : "0x0ec2a6fb4e8b6e9423d61e1f2f5144d628c59cfc0bcc98fe1f8d8fd4a6f6f35b",
                    "uncleHash" : "0x1dcc4de8dec75d7aab85b567b6ccd41ad312451b948a7413f0a142fd40d49347"
                },
                "rlp" : "0xf90264f901faa0a37e5b2b2130514ab9e28099c2a86d25cdee4d019efa30dc73e53bc780f01ca1a01dcc4de8dec75d7aab85b567b6ccd41ad312451b948a7413f0a142fd40d49347948888f1f195afa192cfee860698584c030f4c9db1a0f6a26018689538542d1f951989173f74ed708da44fbd9317ac67bc7061905e36a00ec2a6fb4e8b6e9423d61e1f2f5144d628c59cfc0bcc98fe1f8d8fd4a6f6f35ba09af1b05f3b250eb2110d221b758ef528310519c529c911a0127da79cff0c5793b90100000000000000000000000000000000000000000000000000000000000000000000000000000000000000000000000000000000000000000000000000000000000000000000000000000000000000000000000000000000000000000000000000000000000000000000000000000000000000000000000000000000000000000000000000000000000000000000000000000000000000000000000000000000000000000000000000000000000000000000000000000000000000000000000000000000000000000000000000000000000000000000000000000000000000000000000000000000000000000000000000000000000000000000000000000000008302004002832fefba8302304c845bc07ce280a00000000000000000000000000000000000000000000000000000000000000000880000000000000000f864f862010a830249f094195e7baea6a6c7c4c2dfeb977efac326af552d878203e8801ba06d01fca31ce3065aac598e12f6cee26f63f9162a0ff86ff3bbadf6099c7531dca06d33d52ce23c9fcd69179690e21de794371a38940a590f32f8570eddfd926e71c0",
                "transactions" : [
                    {
                        "data" : "0x",
                        "gasLimit" : "0x0249f0",
                        "gasPrice" : "0x0a",
                        "nonce" : "0x01",
                        "r" : "0x6d01fca31ce3065aac598e12f6cee26f63f9162a0ff86ff3bbadf6099c7531dc",
                        "s" : "0x6d33d52ce23c9fcd69179690e21de794371a38940a590f32f8570eddfd926e71",
                        "to" : "0x195e7baea6a6c7c4c2dfeb977efac326af552d87",
                        "v" : "0x1b",
                        "value" : "0x03e8"
                    }
                ],
                "uncleHeaders" : [
                ]
            }
        ],
        "genesisBlockHeader" : {
            "bloom" : "0x00000000000000000000000000000000000000000000000000000000000000000000000000000000000000000000000000000000000000000000000000000000000000000000000000000000000000000000000000000000000000000000000000000000000000000000000000000000000000000000000000000000000000000000000000000000000000000000000000000000000000000000000000000000000000000000000000000000000000000000000000000000000000000000000000000000000000000000000000000000000000000000000000000000000000000000000000000000000000000000000000000000000000000000000000000000",
            "coinbase" : "0x8888f1f195afa192cfee860698584c030f4c9db1",
            "difficulty" : "0x020000",
            "extraData" : "0x42",
            "gasLimit" : "0x2fefd8",
            "gasUsed" : "0x00",
            "hash" : "0xe38bef3dadb98e856ea82c7e9813b76a6ec8d9cf60694dd65d800a1669c1a1fd",
            "mixHash" : "0x56e81f171bcc55a6ff8345e692c0f86e5b48e01b996cadc001622fb5e363b421",
            "nonce" : "0x0102030405060708",
            "number" : "0x00",
            "parentHash" : "0x0000000000000000000000000000000000000000000000000000000000000000",
            "receiptTrie" : "0x56e81f171bcc55a6ff8345e692c0f86e5b48e01b996cadc001622fb5e363b421",
            "stateRoot" : "0xf403922bfd555a9223f68fc755564004e20d78bb42aae647e867e3b23c48beba",
            "timestamp" : "0x54c98c81",
            "transactionsTrie" : "0x56e81f171bcc55a6ff8345e692c0f86e5b48e01b996cadc001622fb5e363b421",
            "uncleHash" : "0x1dcc4de8dec75d7aab85b567b6ccd41ad312451b948a7413f0a142fd40d49347"
        },
        "genesisRLP" : "0xf901fcf901f7a00000000000000000000000000000000000000000000000000000000000000000a01dcc4de8dec75d7aab85b567b6ccd41ad312451b948a7413f0a142fd40d49347948888f1f195afa192cfee860698584c030f4c9db1a0f403922bfd555a9223f68fc755564004e20d78bb42aae647e867e3b23c48bebaa056e81f171bcc55a6ff8345e692c0f86e5b48e01b996cadc001622fb5e363b421a056e81f171bcc55a6ff8345e692c0f86e5b48e01b996cadc001622fb5e363b421b90100000000000000000000000000000000000000000000000000000000000000000000000000000000000000000000000000000000000000000000000000000000000000000000000000000000000000000000000000000000000000000000000000000000000000000000000000000000000000000000000000000000000000000000000000000000000000000000000000000000000000000000000000000000000000000000000000000000000000000000000000000000000000000000000000000000000000000000000000000000000000000000000000000000000000000000000000000000000000000000000000000000000000000000000000000000008302000080832fefd8808454c98c8142a056e81f171bcc55a6ff8345e692c0f86e5b48e01b996cadc001622fb5e363b421880102030405060708c0c0",
        "lastblockhash" : "0x1742cb07e6a74e0e2710f85e55eb52b0623b1bb55c146f4abe68d244d46b5d6c",
        "network" : "Constantinople",
        "postState" : {
            "0x095e7baea6a6c7c4c2dfeb977efac326af552d87" : {
                "balance" : "0x0186aa",
                "code" : "0x73a94f5374fce5edbc8e2a8697c15331677e6ebf0b31600055738888f1f195afa192cfee860698584c030f4c9db13160015573a94f5374fce5edbc8e2a8697c15331677e6ebf0b31600255738888f1f195afa192cfee860698584c030f4c9db13160035573095e7baea6a6c7c4c2dfeb977efac326af552d8731600555",
                "nonce" : "0x00",
                "storage" : {
                    "0x00" : "0x17485b3218",
                    "0x02" : "0x17485b3218",
                    "0x05" : "0x0186aa"
                }
            },
            "0x195e7baea6a6c7c4c2dfeb977efac326af552d87" : {
                "balance" : "0x018a88",
                "code" : "0x73a94f5374fce5edbc8e2a8697c15331677e6ebf0b31600055738888f1f195afa192cfee860698584c030f4c9db13160015573a94f5374fce5edbc8e2a8697c15331677e6ebf0b31600255738888f1f195afa192cfee860698584c030f4c9db13160035573095e7baea6a6c7c4c2dfeb977efac326af552d873160045573195e7baea6a6c7c4c2dfeb977efac326af552d8731600555",
                "nonce" : "0x00",
                "storage" : {
                    "0x00" : "0x17484e7334",
                    "0x01" : "0x1bc16d674ed4bafc",
                    "0x02" : "0x17484e7334",
                    "0x03" : "0x1bc16d674ed4bafc",
                    "0x04" : "0x0186aa",
                    "0x05" : "0x018a88"
                }
            },
            "0x8888f1f195afa192cfee860698584c030f4c9db1" : {
                "balance" : "0x3782dace9db29df4",
                "code" : "",
                "nonce" : "0x00",
                "storage" : {
                }
            },
            "0xa94f5374fce5edbc8e2a8697c15331677e6ebf0b" : {
                "balance" : "0x17484f739c",
                "code" : "",
                "nonce" : "0x02",
                "storage" : {
                }
            }
        },
        "pre" : {
            "0x095e7baea6a6c7c4c2dfeb977efac326af552d87" : {
                "balance" : "0x0186a0",
                "code" : "0x73a94f5374fce5edbc8e2a8697c15331677e6ebf0b31600055738888f1f195afa192cfee860698584c030f4c9db13160015573a94f5374fce5edbc8e2a8697c15331677e6ebf0b31600255738888f1f195afa192cfee860698584c030f4c9db13160035573095e7baea6a6c7c4c2dfeb977efac326af552d8731600555",
                "nonce" : "0x00",
                "storage" : {
                }
            },
            "0x195e7baea6a6c7c4c2dfeb977efac326af552d87" : {
                "balance" : "0x0186a0",
                "code" : "0x73a94f5374fce5edbc8e2a8697c15331677e6ebf0b31600055738888f1f195afa192cfee860698584c030f4c9db13160015573a94f5374fce5edbc8e2a8697c15331677e6ebf0b31600255738888f1f195afa192cfee860698584c030f4c9db13160035573095e7baea6a6c7c4c2dfeb977efac326af552d873160045573195e7baea6a6c7c4c2dfeb977efac326af552d8731600555",
                "nonce" : "0x00",
                "storage" : {
                }
            },
            "0xa94f5374fce5edbc8e2a8697c15331677e6ebf0b" : {
                "balance" : "0x1748721582",
                "code" : "",
                "nonce" : "0x00",
                "storage" : {
                }
            }
        },
        "sealEngine" : "NoProof"
    }
}
