{
    "RecallSuicidedContractInOneBlock_Byzantium" : {
        "_info" : {
            "comment" : "",
            "filledwith" : "testeth 1.5.0.dev2-68+commit.4a43125d.dirty",
            "lllcversion" : "Version: 0.5.0-develop.2018.10.10+commit.06200b4b.Linux.g++",
            "source" : "src/BlockchainTestsFiller/bcValidBlockTest/RecallSuicidedContractInOneBlockFiller.json",
            "sourceHash" : "c28687af7b09c51e0419c4e0407bb0243667c98b1130ed6bbfe846989f9483e7"
        },
        "blocks" : [
            {
                "blockHeader" : {
                    "bloom" : "0x00000000000000000000000000000000000000000000000000000000000000000000000000000000000000000000000000000000000000000000000000000000000000000000000000000000000000000000000000000000000000000000000000000000000000000000000000000000000000000000000000000000000000000000000000000000000000000000000000000000000000000000000000000000000000000000000000000000000000000000000000000000000000000000000000000000000000000000000000000000000000000000000000000000000000000000000000000000000000000000000000000000000000000000000000000000",
                    "coinbase" : "0x8888f1f195afa192cfee860698584c030f4c9db1",
                    "difficulty" : "0x020000",
                    "extraData" : "",
                    "gasLimit" : "0x2fefba",
                    "gasUsed" : "0x011860",
                    "hash" : "0x9def0441acb41025ce42f194464f80ec03fdeccacfdec37762dd2e5129d613de",
                    "mixHash" : "0x0000000000000000000000000000000000000000000000000000000000000000",
                    "nonce" : "0x0000000000000000",
                    "number" : "0x01",
                    "parentHash" : "0x5a39ed1020c04d4d84539975b893a4e7c53eab6c2965db8bc3468093a31bc5ae",
                    "receiptTrie" : "0xa99647afb0646b1337f1615b1e9d1712269b027fac143e1a33a2e2ccfa52818b",
                    "stateRoot" : "0x402ded4ca8bdd3b5ae2b3498c2f3deb06a2850cee076f58b093c85074896ab6d",
                    "timestamp" : "0x5bbdfad0",
                    "transactionsTrie" : "0x7f40c85c972d94c1505e6309a763cabd663665e88520dc1df9910bdb2edb80ae",
                    "uncleHash" : "0x1dcc4de8dec75d7aab85b567b6ccd41ad312451b948a7413f0a142fd40d49347"
                },
                "rlp" : "0xf902a7f901faa05a39ed1020c04d4d84539975b893a4e7c53eab6c2965db8bc3468093a31bc5aea01dcc4de8dec75d7aab85b567b6ccd41ad312451b948a7413f0a142fd40d49347948888f1f195afa192cfee860698584c030f4c9db1a0402ded4ca8bdd3b5ae2b3498c2f3deb06a2850cee076f58b093c85074896ab6da07f40c85c972d94c1505e6309a763cabd663665e88520dc1df9910bdb2edb80aea0a99647afb0646b1337f1615b1e9d1712269b027fac143e1a33a2e2ccfa52818bb90100000000000000000000000000000000000000000000000000000000000000000000000000000000000000000000000000000000000000000000000000000000000000000000000000000000000000000000000000000000000000000000000000000000000000000000000000000000000000000000000000000000000000000000000000000000000000000000000000000000000000000000000000000000000000000000000000000000000000000000000000000000000000000000000000000000000000000000000000000000000000000000000000000000000000000000000000000000000000000000000000000000000000000000000000000000008302000001832fefba83011860845bbdfad080a00000000000000000000000000000000000000000000000000000000000000000880000000000000000f8a7f8a5800a8307a1208081ffb857604b80600c6000396000f3007c01000000000000000000000000000000000000000000000000000000006000350463cbf0b0c08114602d57005b60006004358073ffffffffffffffffffffffffffffffffffffffff16ff1ca00e7d3c664c49aa9f5ce4eb76c8547450466262a78bd093160f492ea0853c68e9a03f843e72210ff1da4fd9e375339872bcf0fad05c014e280ffc755e173700dd62c0",
                "transactions" : [
                    {
                        "data" : "0x604b80600c6000396000f3007c01000000000000000000000000000000000000000000000000000000006000350463cbf0b0c08114602d57005b60006004358073ffffffffffffffffffffffffffffffffffffffff16ff",
                        "gasLimit" : "0x07a120",
                        "gasPrice" : "0x0a",
                        "nonce" : "0x00",
                        "r" : "0x0e7d3c664c49aa9f5ce4eb76c8547450466262a78bd093160f492ea0853c68e9",
                        "s" : "0x3f843e72210ff1da4fd9e375339872bcf0fad05c014e280ffc755e173700dd62",
                        "to" : "",
                        "v" : "0x1c",
                        "value" : "0xff"
                    }
                ],
                "uncleHeaders" : [
                ]
            },
            {
                "blockHeader" : {
                    "bloom" : "0x00000000000000000000000000000000000000000000000000000000000000000000000000000000000000000000000000000000000000000000000000000000000000000000000000000000000000000000000000000000000000000000000000000000000000000000000000000000000000000000000000000000000000000000000000000000000000000000000000000000000000000000000000000000000000000000000000000000000000000000000000000000000000000000000000000000000000000000000000000000000000000000000000000000000000000000000000000000000000000000000000000000000000000000000000000000",
                    "coinbase" : "0x8888f1f195afa192cfee860698584c030f4c9db1",
                    "difficulty" : "0x020040",
                    "extraData" : "",
                    "gasLimit" : "0x2fefba",
                    "gasUsed" : "0xc097",
                    "hash" : "0x820bfd33f9e612bae6a30205d97d72c1ebf300ce059e955010c8f9f192dc091f",
                    "mixHash" : "0x0000000000000000000000000000000000000000000000000000000000000000",
                    "nonce" : "0x0000000000000000",
                    "number" : "0x02",
                    "parentHash" : "0x9def0441acb41025ce42f194464f80ec03fdeccacfdec37762dd2e5129d613de",
                    "receiptTrie" : "0x206bb52701f7930526c879c7122dba001bb19e76148f5e3c92dd4745b3ea25fa",
                    "stateRoot" : "0x7acecb53db448a150bfce0a6ee19c79d30a2f56311cb82504756958e8608f3ea",
                    "timestamp" : "0x5bbdfad1",
                    "transactionsTrie" : "0x4fe1aa9540114cce1ee19a4751bede622013e27f1025c7ef5d955f0132f978db",
                    "uncleHash" : "0x1dcc4de8dec75d7aab85b567b6ccd41ad312451b948a7413f0a142fd40d49347"
                },
                "rlp" : "0xf9030cf901f9a09def0441acb41025ce42f194464f80ec03fdeccacfdec37762dd2e5129d613dea01dcc4de8dec75d7aab85b567b6ccd41ad312451b948a7413f0a142fd40d49347948888f1f195afa192cfee860698584c030f4c9db1a07acecb53db448a150bfce0a6ee19c79d30a2f56311cb82504756958e8608f3eaa04fe1aa9540114cce1ee19a4751bede622013e27f1025c7ef5d955f0132f978dba0206bb52701f7930526c879c7122dba001bb19e76148f5e3c92dd4745b3ea25fab90100000000000000000000000000000000000000000000000000000000000000000000000000000000000000000000000000000000000000000000000000000000000000000000000000000000000000000000000000000000000000000000000000000000000000000000000000000000000000000000000000000000000000000000000000000000000000000000000000000000000000000000000000000000000000000000000000000000000000000000000000000000000000000000000000000000000000000000000000000000000000000000000000000000000000000000000000000000000000000000000000000000000000000000000000000000008302004002832fefba82c097845bbdfad180a00000000000000000000000000000000000000000000000000000000000000000880000000000000000f9010cf884010a8307a120946295ee1b4f6dd65047762f924ecd367c17eabf8f01a4cbf0b0c000000000000000000000000000000000000000000000000000000000000000001ba0e9f25400a2683c5323e1f0a2c1d1bbfbc7a525e861993b9f21e414acfa876df0a04e3cb018a144be08a3cf6abc8abfcb0f159190af5d697283f05b326ba59ccc10f884020a8307a120946295ee1b4f6dd65047762f924ecd367c17eabf8f01a4cbf0b0c001100000000000110000000000000110000000000000110000000000000000111ba02db741161d0014df4fdc93cfb33867295da3b2d9bcc9af8e2d6bb478e1a877d0a0439808cf9ba3e46e97e20a05450daa2a6dca8b21fc47041b5fa492fb322f39e4c0",
                "transactions" : [
                    {
                        "data" : "0xcbf0b0c00000000000000000000000000000000000000000000000000000000000000000",
                        "gasLimit" : "0x07a120",
                        "gasPrice" : "0x0a",
                        "nonce" : "0x01",
                        "r" : "0xe9f25400a2683c5323e1f0a2c1d1bbfbc7a525e861993b9f21e414acfa876df0",
                        "s" : "0x4e3cb018a144be08a3cf6abc8abfcb0f159190af5d697283f05b326ba59ccc10",
                        "to" : "0x6295ee1b4f6dd65047762f924ecd367c17eabf8f",
                        "v" : "0x1b",
                        "value" : "0x01"
                    },
                    {
                        "data" : "0xcbf0b0c00110000000000011000000000000011000000000000011000000000000000011",
                        "gasLimit" : "0x07a120",
                        "gasPrice" : "0x0a",
                        "nonce" : "0x02",
                        "r" : "0x2db741161d0014df4fdc93cfb33867295da3b2d9bcc9af8e2d6bb478e1a877d0",
                        "s" : "0x439808cf9ba3e46e97e20a05450daa2a6dca8b21fc47041b5fa492fb322f39e4",
                        "to" : "0x6295ee1b4f6dd65047762f924ecd367c17eabf8f",
                        "v" : "0x1b",
                        "value" : "0x01"
                    }
                ],
                "uncleHeaders" : [
                ]
            }
        ],
        "genesisBlockHeader" : {
            "bloom" : "0x00000000000000000000000000000000000000000000000000000000000000000000000000000000000000000000000000000000000000000000000000000000000000000000000000000000000000000000000000000000000000000000000000000000000000000000000000000000000000000000000000000000000000000000000000000000000000000000000000000000000000000000000000000000000000000000000000000000000000000000000000000000000000000000000000000000000000000000000000000000000000000000000000000000000000000000000000000000000000000000000000000000000000000000000000000000",
            "coinbase" : "0x8888f1f195afa192cfee860698584c030f4c9db1",
            "difficulty" : "0x020000",
            "extraData" : "0x42",
            "gasLimit" : "0x2fefd8",
            "gasUsed" : "0x00",
            "hash" : "0x5a39ed1020c04d4d84539975b893a4e7c53eab6c2965db8bc3468093a31bc5ae",
            "mixHash" : "0x56e81f171bcc55a6ff8345e692c0f86e5b48e01b996cadc001622fb5e363b421",
            "nonce" : "0x0102030405060708",
            "number" : "0x00",
            "parentHash" : "0x0000000000000000000000000000000000000000000000000000000000000000",
            "receiptTrie" : "0x56e81f171bcc55a6ff8345e692c0f86e5b48e01b996cadc001622fb5e363b421",
            "stateRoot" : "0x7dba07d6b448a186e9612e5f737d1c909dce473e53199901a302c00646d523c1",
            "timestamp" : "0x54c98c81",
            "transactionsTrie" : "0x56e81f171bcc55a6ff8345e692c0f86e5b48e01b996cadc001622fb5e363b421",
            "uncleHash" : "0x1dcc4de8dec75d7aab85b567b6ccd41ad312451b948a7413f0a142fd40d49347"
        },
        "genesisRLP" : "0xf901fcf901f7a00000000000000000000000000000000000000000000000000000000000000000a01dcc4de8dec75d7aab85b567b6ccd41ad312451b948a7413f0a142fd40d49347948888f1f195afa192cfee860698584c030f4c9db1a07dba07d6b448a186e9612e5f737d1c909dce473e53199901a302c00646d523c1a056e81f171bcc55a6ff8345e692c0f86e5b48e01b996cadc001622fb5e363b421a056e81f171bcc55a6ff8345e692c0f86e5b48e01b996cadc001622fb5e363b421b90100000000000000000000000000000000000000000000000000000000000000000000000000000000000000000000000000000000000000000000000000000000000000000000000000000000000000000000000000000000000000000000000000000000000000000000000000000000000000000000000000000000000000000000000000000000000000000000000000000000000000000000000000000000000000000000000000000000000000000000000000000000000000000000000000000000000000000000000000000000000000000000000000000000000000000000000000000000000000000000000000000000000000000000000000000000008302000080832fefd8808454c98c8142a056e81f171bcc55a6ff8345e692c0f86e5b48e01b996cadc001622fb5e363b421880102030405060708c0c0",
        "lastblockhash" : "0x820bfd33f9e612bae6a30205d97d72c1ebf300ce059e955010c8f9f192dc091f",
        "network" : "Byzantium",
        "postState" : {
            "0x0000000000000000000000000000000000000000" : {
                "balance" : "0x0100",
                "code" : "",
                "nonce" : "0x00",
                "storage" : {
                }
            },
            "0x6295ee1b4f6dd65047762f924ecd367c17eabf8f" : {
                "balance" : "0x01",
                "code" : "",
                "nonce" : "0x00",
                "storage" : {
                }
            },
            "0x8888f1f195afa192cfee860698584c030f4c9db1" : {
                "balance" : "0x53444835ec6a79a6",
                "code" : "",
                "nonce" : "0x00",
                "storage" : {
                }
            },
            "0xa94f5374fce5edbc8e2a8697c15331677e6ebf0b" : {
                "balance" : "0x09184e602559",
                "code" : "",
                "nonce" : "0x03",
                "storage" : {
                }
            }
        },
        "pre" : {
            "0xa94f5374fce5edbc8e2a8697c15331677e6ebf0b" : {
                "balance" : "0x09184e72a000",
                "code" : "",
                "nonce" : "0x00",
                "storage" : {
                }
            }
        },
        "sealEngine" : "NoProof"
    },
    "RecallSuicidedContractInOneBlock_Constantinople" : {
        "_info" : {
            "comment" : "",
            "filledwith" : "testeth 1.5.0.dev2-68+commit.4a43125d.dirty",
            "lllcversion" : "Version: 0.5.0-develop.2018.10.10+commit.06200b4b.Linux.g++",
            "source" : "src/BlockchainTestsFiller/bcValidBlockTest/RecallSuicidedContractInOneBlockFiller.json",
            "sourceHash" : "c28687af7b09c51e0419c4e0407bb0243667c98b1130ed6bbfe846989f9483e7"
        },
        "blocks" : [
            {
                "blockHeader" : {
                    "bloom" : "0x00000000000000000000000000000000000000000000000000000000000000000000000000000000000000000000000000000000000000000000000000000000000000000000000000000000000000000000000000000000000000000000000000000000000000000000000000000000000000000000000000000000000000000000000000000000000000000000000000000000000000000000000000000000000000000000000000000000000000000000000000000000000000000000000000000000000000000000000000000000000000000000000000000000000000000000000000000000000000000000000000000000000000000000000000000000",
                    "coinbase" : "0x8888f1f195afa192cfee860698584c030f4c9db1",
                    "difficulty" : "0x020000",
                    "extraData" : "",
                    "gasLimit" : "0x2fefba",
                    "gasUsed" : "0x011860",
                    "hash" : "0xeaae8ed3340fb8615f93294639d573897f8e40f815c992e5cbdd0a31e6562e08",
                    "mixHash" : "0x0000000000000000000000000000000000000000000000000000000000000000",
                    "nonce" : "0x0000000000000000",
                    "number" : "0x01",
                    "parentHash" : "0x5a39ed1020c04d4d84539975b893a4e7c53eab6c2965db8bc3468093a31bc5ae",
                    "receiptTrie" : "0xa99647afb0646b1337f1615b1e9d1712269b027fac143e1a33a2e2ccfa52818b",
                    "stateRoot" : "0xc7237a0dd312cbcc09ca39fcb2b11c9c9cda36828b51491c31bf00e94cb99463",
                    "timestamp" : "0x5bbdfad0",
                    "transactionsTrie" : "0x7f40c85c972d94c1505e6309a763cabd663665e88520dc1df9910bdb2edb80ae",
                    "uncleHash" : "0x1dcc4de8dec75d7aab85b567b6ccd41ad312451b948a7413f0a142fd40d49347"
                },
                "rlp" : "0xf902a7f901faa05a39ed1020c04d4d84539975b893a4e7c53eab6c2965db8bc3468093a31bc5aea01dcc4de8dec75d7aab85b567b6ccd41ad312451b948a7413f0a142fd40d49347948888f1f195afa192cfee860698584c030f4c9db1a0c7237a0dd312cbcc09ca39fcb2b11c9c9cda36828b51491c31bf00e94cb99463a07f40c85c972d94c1505e6309a763cabd663665e88520dc1df9910bdb2edb80aea0a99647afb0646b1337f1615b1e9d1712269b027fac143e1a33a2e2ccfa52818bb90100000000000000000000000000000000000000000000000000000000000000000000000000000000000000000000000000000000000000000000000000000000000000000000000000000000000000000000000000000000000000000000000000000000000000000000000000000000000000000000000000000000000000000000000000000000000000000000000000000000000000000000000000000000000000000000000000000000000000000000000000000000000000000000000000000000000000000000000000000000000000000000000000000000000000000000000000000000000000000000000000000000000000000000000000000000008302000001832fefba83011860845bbdfad080a00000000000000000000000000000000000000000000000000000000000000000880000000000000000f8a7f8a5800a8307a1208081ffb857604b80600c6000396000f3007c01000000000000000000000000000000000000000000000000000000006000350463cbf0b0c08114602d57005b60006004358073ffffffffffffffffffffffffffffffffffffffff16ff1ca00e7d3c664c49aa9f5ce4eb76c8547450466262a78bd093160f492ea0853c68e9a03f843e72210ff1da4fd9e375339872bcf0fad05c014e280ffc755e173700dd62c0",
                "transactions" : [
                    {
                        "data" : "0x604b80600c6000396000f3007c01000000000000000000000000000000000000000000000000000000006000350463cbf0b0c08114602d57005b60006004358073ffffffffffffffffffffffffffffffffffffffff16ff",
                        "gasLimit" : "0x07a120",
                        "gasPrice" : "0x0a",
                        "nonce" : "0x00",
                        "r" : "0x0e7d3c664c49aa9f5ce4eb76c8547450466262a78bd093160f492ea0853c68e9",
                        "s" : "0x3f843e72210ff1da4fd9e375339872bcf0fad05c014e280ffc755e173700dd62",
                        "to" : "",
                        "v" : "0x1c",
                        "value" : "0xff"
                    }
                ],
                "uncleHeaders" : [
                ]
            },
            {
                "blockHeader" : {
                    "bloom" : "0x00000000000000000000000000000000000000000000000000000000000000000000000000000000000000000000000000000000000000000000000000000000000000000000000000000000000000000000000000000000000000000000000000000000000000000000000000000000000000000000000000000000000000000000000000000000000000000000000000000000000000000000000000000000000000000000000000000000000000000000000000000000000000000000000000000000000000000000000000000000000000000000000000000000000000000000000000000000000000000000000000000000000000000000000000000000",
                    "coinbase" : "0x8888f1f195afa192cfee860698584c030f4c9db1",
                    "difficulty" : "0x020040",
                    "extraData" : "",
                    "gasLimit" : "0x2fefba",
                    "gasUsed" : "0xc097",
                    "hash" : "0x4d42bdec3bff1f9276511b146e92f39f22f45e7adcad5985fc7000e4c97eaa5d",
                    "mixHash" : "0x0000000000000000000000000000000000000000000000000000000000000000",
                    "nonce" : "0x0000000000000000",
                    "number" : "0x02",
                    "parentHash" : "0xeaae8ed3340fb8615f93294639d573897f8e40f815c992e5cbdd0a31e6562e08",
                    "receiptTrie" : "0x206bb52701f7930526c879c7122dba001bb19e76148f5e3c92dd4745b3ea25fa",
                    "stateRoot" : "0x77818df1c077e8fd65027b8cd1a86d3f54c76908b3e03e7b2d4521b47a657095",
                    "timestamp" : "0x5bbdfad1",
                    "transactionsTrie" : "0x4fe1aa9540114cce1ee19a4751bede622013e27f1025c7ef5d955f0132f978db",
                    "uncleHash" : "0x1dcc4de8dec75d7aab85b567b6ccd41ad312451b948a7413f0a142fd40d49347"
                },
                "rlp" : "0xf9030cf901f9a0eaae8ed3340fb8615f93294639d573897f8e40f815c992e5cbdd0a31e6562e08a01dcc4de8dec75d7aab85b567b6ccd41ad312451b948a7413f0a142fd40d49347948888f1f195afa192cfee860698584c030f4c9db1a077818df1c077e8fd65027b8cd1a86d3f54c76908b3e03e7b2d4521b47a657095a04fe1aa9540114cce1ee19a4751bede622013e27f1025c7ef5d955f0132f978dba0206bb52701f7930526c879c7122dba001bb19e76148f5e3c92dd4745b3ea25fab90100000000000000000000000000000000000000000000000000000000000000000000000000000000000000000000000000000000000000000000000000000000000000000000000000000000000000000000000000000000000000000000000000000000000000000000000000000000000000000000000000000000000000000000000000000000000000000000000000000000000000000000000000000000000000000000000000000000000000000000000000000000000000000000000000000000000000000000000000000000000000000000000000000000000000000000000000000000000000000000000000000000000000000000000000000000008302004002832fefba82c097845bbdfad180a00000000000000000000000000000000000000000000000000000000000000000880000000000000000f9010cf884010a8307a120946295ee1b4f6dd65047762f924ecd367c17eabf8f01a4cbf0b0c000000000000000000000000000000000000000000000000000000000000000001ba0e9f25400a2683c5323e1f0a2c1d1bbfbc7a525e861993b9f21e414acfa876df0a04e3cb018a144be08a3cf6abc8abfcb0f159190af5d697283f05b326ba59ccc10f884020a8307a120946295ee1b4f6dd65047762f924ecd367c17eabf8f01a4cbf0b0c001100000000000110000000000000110000000000000110000000000000000111ba02db741161d0014df4fdc93cfb33867295da3b2d9bcc9af8e2d6bb478e1a877d0a0439808cf9ba3e46e97e20a05450daa2a6dca8b21fc47041b5fa492fb322f39e4c0",
                "transactions" : [
                    {
                        "data" : "0xcbf0b0c00000000000000000000000000000000000000000000000000000000000000000",
                        "gasLimit" : "0x07a120",
                        "gasPrice" : "0x0a",
                        "nonce" : "0x01",
                        "r" : "0xe9f25400a2683c5323e1f0a2c1d1bbfbc7a525e861993b9f21e414acfa876df0",
                        "s" : "0x4e3cb018a144be08a3cf6abc8abfcb0f159190af5d697283f05b326ba59ccc10",
                        "to" : "0x6295ee1b4f6dd65047762f924ecd367c17eabf8f",
                        "v" : "0x1b",
                        "value" : "0x01"
                    },
                    {
                        "data" : "0xcbf0b0c00110000000000011000000000000011000000000000011000000000000000011",
                        "gasLimit" : "0x07a120",
                        "gasPrice" : "0x0a",
                        "nonce" : "0x02",
                        "r" : "0x2db741161d0014df4fdc93cfb33867295da3b2d9bcc9af8e2d6bb478e1a877d0",
                        "s" : "0x439808cf9ba3e46e97e20a05450daa2a6dca8b21fc47041b5fa492fb322f39e4",
                        "to" : "0x6295ee1b4f6dd65047762f924ecd367c17eabf8f",
                        "v" : "0x1b",
                        "value" : "0x01"
                    }
                ],
                "uncleHeaders" : [
                ]
            }
        ],
        "genesisBlockHeader" : {
            "bloom" : "0x00000000000000000000000000000000000000000000000000000000000000000000000000000000000000000000000000000000000000000000000000000000000000000000000000000000000000000000000000000000000000000000000000000000000000000000000000000000000000000000000000000000000000000000000000000000000000000000000000000000000000000000000000000000000000000000000000000000000000000000000000000000000000000000000000000000000000000000000000000000000000000000000000000000000000000000000000000000000000000000000000000000000000000000000000000000",
            "coinbase" : "0x8888f1f195afa192cfee860698584c030f4c9db1",
            "difficulty" : "0x020000",
            "extraData" : "0x42",
            "gasLimit" : "0x2fefd8",
            "gasUsed" : "0x00",
            "hash" : "0x5a39ed1020c04d4d84539975b893a4e7c53eab6c2965db8bc3468093a31bc5ae",
            "mixHash" : "0x56e81f171bcc55a6ff8345e692c0f86e5b48e01b996cadc001622fb5e363b421",
            "nonce" : "0x0102030405060708",
            "number" : "0x00",
            "parentHash" : "0x0000000000000000000000000000000000000000000000000000000000000000",
            "receiptTrie" : "0x56e81f171bcc55a6ff8345e692c0f86e5b48e01b996cadc001622fb5e363b421",
            "stateRoot" : "0x7dba07d6b448a186e9612e5f737d1c909dce473e53199901a302c00646d523c1",
            "timestamp" : "0x54c98c81",
            "transactionsTrie" : "0x56e81f171bcc55a6ff8345e692c0f86e5b48e01b996cadc001622fb5e363b421",
            "uncleHash" : "0x1dcc4de8dec75d7aab85b567b6ccd41ad312451b948a7413f0a142fd40d49347"
        },
        "genesisRLP" : "0xf901fcf901f7a00000000000000000000000000000000000000000000000000000000000000000a01dcc4de8dec75d7aab85b567b6ccd41ad312451b948a7413f0a142fd40d49347948888f1f195afa192cfee860698584c030f4c9db1a07dba07d6b448a186e9612e5f737d1c909dce473e53199901a302c00646d523c1a056e81f171bcc55a6ff8345e692c0f86e5b48e01b996cadc001622fb5e363b421a056e81f171bcc55a6ff8345e692c0f86e5b48e01b996cadc001622fb5e363b421b90100000000000000000000000000000000000000000000000000000000000000000000000000000000000000000000000000000000000000000000000000000000000000000000000000000000000000000000000000000000000000000000000000000000000000000000000000000000000000000000000000000000000000000000000000000000000000000000000000000000000000000000000000000000000000000000000000000000000000000000000000000000000000000000000000000000000000000000000000000000000000000000000000000000000000000000000000000000000000000000000000000000000000000000000000000000008302000080832fefd8808454c98c8142a056e81f171bcc55a6ff8345e692c0f86e5b48e01b996cadc001622fb5e363b421880102030405060708c0c0",
        "lastblockhash" : "0x4d42bdec3bff1f9276511b146e92f39f22f45e7adcad5985fc7000e4c97eaa5d",
        "network" : "Constantinople",
        "postState" : {
            "0x0000000000000000000000000000000000000000" : {
                "balance" : "0x0100",
                "code" : "",
                "nonce" : "0x00",
                "storage" : {
                }
            },
            "0x6295ee1b4f6dd65047762f924ecd367c17eabf8f" : {
                "balance" : "0x01",
                "code" : "",
                "nonce" : "0x00",
                "storage" : {
                }
            },
            "0x8888f1f195afa192cfee860698584c030f4c9db1" : {
                "balance" : "0x3782dace9da279a6",
                "code" : "",
                "nonce" : "0x00",
                "storage" : {
                }
            },
            "0xa94f5374fce5edbc8e2a8697c15331677e6ebf0b" : {
                "balance" : "0x09184e602559",
                "code" : "",
                "nonce" : "0x03",
                "storage" : {
                }
            }
        },
        "pre" : {
            "0xa94f5374fce5edbc8e2a8697c15331677e6ebf0b" : {
                "balance" : "0x09184e72a000",
                "code" : "",
                "nonce" : "0x00",
                "storage" : {
                }
            }
        },
        "sealEngine" : "NoProof"
    }
}